{"project/contracts/OSCHLib.sol":{"OCSHLib":{"abi":[{"inputs":[],"name":"ALLIANCE_LEADER_ROLE","outputs":[{"internalType":"bytes32","name":"","type":"bytes32"}],"stateMutability":"view","type":"function"},{"inputs":[],"name":"GAME_ADMIN_ROLE","outputs":[{"internalType":"bytes32","name":"","type":"bytes32"}],"stateMutability":"view","type":"function"}],"evm":{"bytecode":{"linkReferences":{},"object":"60d4610034600b8282823980515f1a60731461002857634e487b7160e01b5f525f60045260245ffd5b305f52607381538281f3fe7300000000000000000000000000000000000000003014608060405260043610603c575f3560e01c806317282d5c146040578063be22d27d146078575b5f80fd5b60667f828a9190dc16dc0116154c184677dac8abebc0b3aeeba46f3ba5f89b8e41439881565b60405190815260200160405180910390f35b60667f9b7946abd96dccbe6cfc6cc2c13300ab429d93e16fa72dc459eeccda73817f088156fea26469706673582212206964ff9ef2cbd7e5b4fce3d95fd1fd17f27fbbe3138a647ae94b9ac745379dca64736f6c63430008150033","opcodes":"PUSH1 0xD4 PUSH2 0x34 PUSH1 0xB DUP3 DUP3 DUP3 CODECOPY DUP1 MLOAD PUSH0 BYTE PUSH1 0x73 EQ PUSH2 0x28 JUMPI PUSH4 0x4E487B71 PUSH1 0xE0 SHL PUSH0 MSTORE PUSH0 PUSH1 0x4 MSTORE PUSH1 0x24 PUSH0 REVERT JUMPDEST ADDRESS PUSH0 MSTORE PUSH1 0x73 DUP2 MSTORE8 DUP3 DUP2 RETURN INVALID PUSH20 0x0 ADDRESS EQ PUSH1 0x80 PUSH1 0x40 MSTORE PUSH1 0x4 CALLDATASIZE LT PUSH1 0x3C JUMPI PUSH0 CALLDATALOAD PUSH1 0xE0 SHR DUP1 PUSH4 0x17282D5C EQ PUSH1 0x40 JUMPI DUP1 PUSH4 0xBE22D27D EQ PUSH1 0x78 JUMPI JUMPDEST PUSH0 DUP1 REVERT JUMPDEST PUSH1 0x66 PUSH32 0x828A9190DC16DC0116154C184677DAC8ABEBC0B3AEEBA46F3BA5F89B8E414398 DUP2 JUMP JUMPDEST PUSH1 0x40 MLOAD SWAP1 DUP2 MSTORE PUSH1 0x20 ADD PUSH1 0x40 MLOAD DUP1 SWAP2 SUB SWAP1 RETURN JUMPDEST PUSH1 0x66 PUSH32 0x9B7946ABD96DCCBE6CFC6CC2C13300AB429D93E16FA72DC459EECCDA73817F08 DUP2 JUMP INVALID LOG2 PUSH5 0x6970667358 0x22 SLT KECCAK256 PUSH10 0x64FF9EF2CBD7E5B4FCE3 0xD9 PUSH0 0xD1 REVERT OR CALLCODE PUSH32 0xBBE3138A647AE94B9AC745379DCA64736F6C6343000815003300000000000000 "},"methodIdentifiers":{"ALLIANCE_LEADER_ROLE()":"17282d5c","GAME_ADMIN_ROLE()":"be22d27d"}}}}}