{"project/contracts/OCSH.sol":{"OCSH":{"abi":[{"inputs":[],"stateMutability":"nonpayable","type":"constructor"},{"inputs":[],"name":"AccessControlBadConfirmation","type":"error"},{"inputs":[{"internalType":"address","name":"account","type":"address"},{"internalType":"bytes32","name":"neededRole","type":"bytes32"}],"name":"AccessControlUnauthorizedAccount","type":"error"},{"inputs":[],"name":"ERC721EnumerableForbiddenBatchMint","type":"error"},{"inputs":[{"internalType":"address","name":"sender","type":"address"},{"internalType":"uint256","name":"tokenId","type":"uint256"},{"internalType":"address","name":"owner","type":"address"}],"name":"ERC721IncorrectOwner","type":"error"},{"inputs":[{"internalType":"address","name":"operator","type":"address"},{"internalType":"uint256","name":"tokenId","type":"uint256"}],"name":"ERC721InsufficientApproval","type":"error"},{"inputs":[{"internalType":"address","name":"approver","type":"address"}],"name":"ERC721InvalidApprover","type":"error"},{"inputs":[{"internalType":"address","name":"operator","type":"address"}],"name":"ERC721InvalidOperator","type":"error"},{"inputs":[{"internalType":"address","name":"owner","type":"address"}],"name":"ERC721InvalidOwner","type":"error"},{"inputs":[{"internalType":"address","name":"receiver","type":"address"}],"name":"ERC721InvalidReceiver","type":"error"},{"inputs":[{"internalType":"address","name":"sender","type":"address"}],"name":"ERC721InvalidSender","type":"error"},{"inputs":[{"internalType":"uint256","name":"tokenId","type":"uint256"}],"name":"ERC721NonexistentToken","type":"error"},{"inputs":[{"internalType":"address","name":"owner","type":"address"},{"internalType":"uint256","name":"index","type":"uint256"}],"name":"ERC721OutOfBoundsIndex","type":"error"},{"inputs":[{"internalType":"address","name":"owner","type":"address"}],"name":"OwnableInvalidOwner","type":"error"},{"inputs":[{"internalType":"address","name":"account","type":"address"}],"name":"OwnableUnauthorizedAccount","type":"error"},{"anonymous":false,"inputs":[{"indexed":true,"internalType":"uint40","name":"allianceId","type":"uint40"},{"indexed":false,"internalType":"uint40[]","name":"members","type":"uint40[]"},{"indexed":false,"internalType":"address","name":"leader","type":"address"}],"name":"AllianceCreated","type":"event"},{"anonymous":false,"inputs":[{"indexed":true,"internalType":"uint40","name":"allianceId","type":"uint40"},{"indexed":true,"internalType":"uint40","name":"tokenId","type":"uint40"}],"name":"AllianceJoined","type":"event"},{"anonymous":false,"inputs":[{"indexed":true,"internalType":"address","name":"owner","type":"address"},{"indexed":true,"internalType":"address","name":"approved","type":"address"},{"indexed":true,"internalType":"uint256","name":"tokenId","type":"uint256"}],"name":"Approval","type":"event"},{"anonymous":false,"inputs":[{"indexed":true,"internalType":"address","name":"owner","type":"address"},{"indexed":true,"internalType":"address","name":"operator","type":"address"},{"indexed":false,"internalType":"bool","name":"approved","type":"bool"}],"name":"ApprovalForAll","type":"event"},{"anonymous":false,"inputs":[{"indexed":true,"internalType":"uint40","name":"challengeId","type":"uint40"},{"indexed":false,"internalType":"uint40","name":"challenger","type":"uint40"},{"indexed":false,"internalType":"uint40","name":"opponent","type":"uint40"}],"name":"ChallengeIssued","type":"event"},{"anonymous":false,"inputs":[{"indexed":true,"internalType":"uint40","name":"challengeId","type":"uint40"},{"indexed":false,"internalType":"address","name":"winner","type":"address"}],"name":"ChallengeResolved","type":"event"},{"anonymous":false,"inputs":[{"indexed":true,"internalType":"uint40","name":"tokenId","type":"uint40"},{"indexed":false,"internalType":"uint8","name":"newLevel","type":"uint8"}],"name":"LeveledUp","type":"event"},{"anonymous":false,"inputs":[{"indexed":true,"internalType":"uint40","name":"tokenId","type":"uint40"},{"indexed":true,"internalType":"address","name":"from","type":"address"},{"indexed":false,"internalType":"bytes32","name":"textHash","type":"bytes32"},{"indexed":false,"internalType":"uint256","name":"fee","type":"uint256"}],"name":"MessageSent","type":"event"},{"anonymous":false,"inputs":[{"indexed":true,"internalType":"address","name":"to","type":"address"},{"indexed":true,"internalType":"uint40","name":"tokenId","type":"uint40"},{"indexed":false,"internalType":"uint40","name":"prevTokenId","type":"uint40"},{"indexed":false,"internalType":"bytes32","name":"dataHash","type":"bytes32"}],"name":"Minted","type":"event"},{"anonymous":false,"inputs":[{"indexed":true,"internalType":"address","name":"previousOwner","type":"address"},{"indexed":true,"internalType":"address","name":"newOwner","type":"address"}],"name":"OwnershipTransferred","type":"event"},{"anonymous":false,"inputs":[{"indexed":true,"internalType":"bytes32","name":"role","type":"bytes32"},{"indexed":true,"internalType":"bytes32","name":"previousAdminRole","type":"bytes32"},{"indexed":true,"internalType":"bytes32","name":"newAdminRole","type":"bytes32"}],"name":"RoleAdminChanged","type":"event"},{"anonymous":false,"inputs":[{"indexed":true,"internalType":"bytes32","name":"role","type":"bytes32"},{"indexed":true,"internalType":"address","name":"account","type":"address"},{"indexed":true,"internalType":"address","name":"sender","type":"address"}],"name":"RoleGranted","type":"event"},{"anonymous":false,"inputs":[{"indexed":true,"internalType":"bytes32","name":"role","type":"bytes32"},{"indexed":true,"internalType":"address","name":"account","type":"address"},{"indexed":true,"internalType":"address","name":"sender","type":"address"}],"name":"RoleRevoked","type":"event"},{"anonymous":false,"inputs":[{"indexed":true,"internalType":"uint40","name":"territoryId","type":"uint40"},{"indexed":true,"internalType":"uint40","name":"tokenId","type":"uint40"},{"indexed":true,"internalType":"uint40","name":"allianceId","type":"uint40"}],"name":"TerritoryClaimed","type":"event"},{"anonymous":false,"inputs":[{"indexed":true,"internalType":"uint40","name":"fromToken","type":"uint40"},{"indexed":true,"internalType":"uint40","name":"toToken","type":"uint40"}],"name":"TradeAccepted","type":"event"},{"anonymous":false,"inputs":[{"indexed":true,"internalType":"uint40","name":"fromToken","type":"uint40"},{"indexed":true,"internalType":"uint40","name":"toToken","type":"uint40"}],"name":"TradeProposed","type":"event"},{"anonymous":false,"inputs":[{"indexed":true,"internalType":"address","name":"from","type":"address"},{"indexed":true,"internalType":"address","name":"to","type":"address"},{"indexed":true,"internalType":"uint256","name":"tokenId","type":"uint256"}],"name":"Transfer","type":"event"},{"inputs":[],"name":"ALLIANCE_LEADER_ROLE","outputs":[{"internalType":"bytes32","name":"","type":"bytes32"}],"stateMutability":"view","type":"function"},{"inputs":[],"name":"BASE_MSG_FEE","outputs":[{"internalType":"uint256","name":"","type":"uint256"}],"stateMutability":"view","type":"function"},{"inputs":[],"name":"DEFAULT_ADMIN_ROLE","outputs":[{"internalType":"bytes32","name":"","type":"bytes32"}],"stateMutability":"view","type":"function"},{"inputs":[],"name":"GAME_ADMIN_ROLE","outputs":[{"internalType":"bytes32","name":"","type":"bytes32"}],"stateMutability":"view","type":"function"},{"inputs":[],"name":"MAX_MSG_LEN","outputs":[{"internalType":"uint8","name":"","type":"uint8"}],"stateMutability":"view","type":"function"},{"inputs":[],"name":"MSG_COOLDOWN_BLOCKS","outputs":[{"internalType":"uint256","name":"","type":"uint256"}],"stateMutability":"view","type":"function"},{"inputs":[],"name":"NUM_TERRITORIES","outputs":[{"internalType":"uint40","name":"","type":"uint40"}],"stateMutability":"view","type":"function"},{"inputs":[{"internalType":"uint40","name":"challengeId","type":"uint40"}],"name":"acceptChallenge","outputs":[],"stateMutability":"nonpayable","type":"function"},{"inputs":[{"internalType":"uint40","name":"fromToken","type":"uint40"},{"internalType":"uint40","name":"toToken","type":"uint40"}],"name":"acceptTrade","outputs":[],"stateMutability":"nonpayable","type":"function"},{"inputs":[{"internalType":"uint40","name":"","type":"uint40"}],"name":"allianceOf","outputs":[{"internalType":"uint40","name":"","type":"uint40"}],"stateMutability":"view","type":"function"},{"inputs":[{"internalType":"uint40","name":"","type":"uint40"}],"name":"alliances","outputs":[{"internalType":"bool","name":"exists","type":"bool"},{"internalType":"address","name":"leader","type":"address"}],"stateMutability":"view","type":"function"},{"inputs":[{"internalType":"address","name":"to","type":"address"},{"internalType":"uint256","name":"tokenId","type":"uint256"}],"name":"approve","outputs":[],"stateMutability":"nonpayable","type":"function"},{"inputs":[{"internalType":"address","name":"owner","type":"address"}],"name":"balanceOf","outputs":[{"internalType":"uint256","name":"","type":"uint256"}],"stateMutability":"view","type":"function"},{"inputs":[{"internalType":"uint256","name":"","type":"uint256"}],"name":"chain","outputs":[{"internalType":"uint40","name":"prevTokenId","type":"uint40"},{"internalType":"bytes32","name":"dataHash","type":"bytes32"},{"internalType":"uint40","name":"timestamp","type":"uint40"}],"stateMutability":"view","type":"function"},{"inputs":[{"internalType":"uint40","name":"","type":"uint40"}],"name":"challenges","outputs":[{"internalType":"uint40","name":"challenger","type":"uint40"},{"internalType":"uint40","name":"opponent","type":"uint40"},{"internalType":"enum OCSH.ChallengeStatus","name":"status","type":"uint8"},{"internalType":"address","name":"winner","type":"address"},{"internalType":"uint40","name":"timestamp","type":"uint40"}],"stateMutability":"view","type":"function"},{"inputs":[{"internalType":"uint40","name":"territoryId","type":"uint40"},{"internalType":"uint40","name":"tokenId","type":"uint40"}],"name":"claimTerritory","outputs":[],"stateMutability":"nonpayable","type":"function"},{"inputs":[{"internalType":"uint40[]","name":"memberTokenIds","type":"uint40[]"}],"name":"createAlliance","outputs":[{"internalType":"uint40","name":"","type":"uint40"}],"stateMutability":"nonpayable","type":"function"},{"inputs":[{"internalType":"uint256","name":"tokenId","type":"uint256"}],"name":"getApproved","outputs":[{"internalType":"address","name":"","type":"address"}],"stateMutability":"view","type":"function"},{"inputs":[{"internalType":"uint40","name":"tokenId","type":"uint40"},{"internalType":"uint40","name":"depth","type":"uint40"}],"name":"getChain","outputs":[{"components":[{"internalType":"uint40","name":"prevTokenId","type":"uint40"},{"internalType":"bytes32","name":"dataHash","type":"bytes32"},{"internalType":"uint40","name":"timestamp","type":"uint40"}],"internalType":"struct OCSH.ChainLink[]","name":"","type":"tuple[]"}],"stateMutability":"view","type":"function"},{"inputs":[],"name":"getDarknetGuide","outputs":[{"internalType":"string","name":"","type":"string"},{"internalType":"string","name":"","type":"string"},{"internalType":"string","name":"","type":"string"}],"stateMutability":"pure","type":"function"},{"inputs":[{"internalType":"bytes32","name":"role","type":"bytes32"}],"name":"getRoleAdmin","outputs":[{"internalType":"bytes32","name":"","type":"bytes32"}],"stateMutability":"view","type":"function"},{"inputs":[{"internalType":"bytes32","name":"role","type":"bytes32"},{"internalType":"address","name":"account","type":"address"}],"name":"grantRole","outputs":[],"stateMutability":"nonpayable","type":"function"},{"inputs":[{"internalType":"bytes32","name":"role","type":"bytes32"},{"internalType":"address","name":"account","type":"address"}],"name":"hasRole","outputs":[{"internalType":"bool","name":"","type":"bool"}],"stateMutability":"view","type":"function"},{"inputs":[{"internalType":"address","name":"owner","type":"address"},{"internalType":"address","name":"operator","type":"address"}],"name":"isApprovedForAll","outputs":[{"internalType":"bool","name":"","type":"bool"}],"stateMutability":"view","type":"function"},{"inputs":[{"internalType":"uint40","name":"challenger","type":"uint40"},{"internalType":"uint40","name":"opponent","type":"uint40"}],"name":"issueChallenge","outputs":[{"internalType":"uint40","name":"","type":"uint40"}],"stateMutability":"nonpayable","type":"function"},{"inputs":[{"internalType":"uint40","name":"allianceId","type":"uint40"},{"internalType":"uint40","name":"tokenId","type":"uint40"}],"name":"joinAlliance","outputs":[],"stateMutability":"nonpayable","type":"function"},{"inputs":[{"internalType":"uint256","name":"","type":"uint256"}],"name":"lastMsgBlock","outputs":[{"internalType":"uint256","name":"","type":"uint256"}],"stateMutability":"view","type":"function"},{"inputs":[{"internalType":"uint40","name":"","type":"uint40"}],"name":"levels","outputs":[{"internalType":"uint32","name":"xp","type":"uint32"},{"internalType":"uint8","name":"level","type":"uint8"}],"stateMutability":"view","type":"function"},{"inputs":[{"internalType":"uint256","name":"","type":"uint256"},{"internalType":"uint256","name":"","type":"uint256"}],"name":"messages","outputs":[{"internalType":"address","name":"from","type":"address"},{"internalType":"bytes32","name":"textHash","type":"bytes32"},{"internalType":"uint40","name":"timestamp","type":"uint40"}],"stateMutability":"view","type":"function"},{"inputs":[{"internalType":"address","name":"to","type":"address"},{"internalType":"bytes32","name":"customData","type":"bytes32"}],"name":"mint","outputs":[],"stateMutability":"nonpayable","type":"function"},{"inputs":[{"internalType":"uint256","name":"","type":"uint256"}],"name":"msgCount","outputs":[{"internalType":"uint256","name":"","type":"uint256"}],"stateMutability":"view","type":"function"},{"inputs":[],"name":"name","outputs":[{"internalType":"string","name":"","type":"string"}],"stateMutability":"view","type":"function"},{"inputs":[],"name":"nextAllianceId","outputs":[{"internalType":"uint40","name":"","type":"uint40"}],"stateMutability":"view","type":"function"},{"inputs":[],"name":"nextChallengeId","outputs":[{"internalType":"uint40","name":"","type":"uint40"}],"stateMutability":"view","type":"function"},{"inputs":[],"name":"nextTokenId","outputs":[{"internalType":"uint40","name":"","type":"uint40"}],"stateMutability":"view","type":"function"},{"inputs":[],"name":"owner","outputs":[{"internalType":"address","name":"","type":"address"}],"stateMutability":"view","type":"function"},{"inputs":[{"internalType":"uint256","name":"tokenId","type":"uint256"}],"name":"ownerOf","outputs":[{"internalType":"address","name":"","type":"address"}],"stateMutability":"view","type":"function"},{"inputs":[{"internalType":"uint40","name":"fromToken","type":"uint40"},{"internalType":"uint40","name":"toToken","type":"uint40"}],"name":"proposeTrade","outputs":[],"stateMutability":"nonpayable","type":"function"},{"inputs":[],"name":"renounceOwnership","outputs":[],"stateMutability":"nonpayable","type":"function"},{"inputs":[{"internalType":"bytes32","name":"role","type":"bytes32"},{"internalType":"address","name":"callerConfirmation","type":"address"}],"name":"renounceRole","outputs":[],"stateMutability":"nonpayable","type":"function"},{"inputs":[{"internalType":"bytes32","name":"role","type":"bytes32"},{"internalType":"address","name":"account","type":"address"}],"name":"revokeRole","outputs":[],"stateMutability":"nonpayable","type":"function"},{"inputs":[{"internalType":"address","name":"from","type":"address"},{"internalType":"address","name":"to","type":"address"},{"internalType":"uint256","name":"tokenId","type":"uint256"}],"name":"safeTransferFrom","outputs":[],"stateMutability":"nonpayable","type":"function"},{"inputs":[{"internalType":"address","name":"from","type":"address"},{"internalType":"address","name":"to","type":"address"},{"internalType":"uint256","name":"tokenId","type":"uint256"},{"internalType":"bytes","name":"data","type":"bytes"}],"name":"safeTransferFrom","outputs":[],"stateMutability":"nonpayable","type":"function"},{"inputs":[{"internalType":"uint40","name":"tokenId","type":"uint40"},{"internalType":"string","name":"text","type":"string"}],"name":"sendMessage","outputs":[],"stateMutability":"payable","type":"function"},{"inputs":[{"internalType":"address","name":"operator","type":"address"},{"internalType":"bool","name":"approved","type":"bool"}],"name":"setApprovalForAll","outputs":[],"stateMutability":"nonpayable","type":"function"},{"inputs":[{"internalType":"bytes4","name":"interfaceId","type":"bytes4"}],"name":"supportsInterface","outputs":[{"internalType":"bool","name":"","type":"bool"}],"stateMutability":"view","type":"function"},{"inputs":[],"name":"symbol","outputs":[{"internalType":"string","name":"","type":"string"}],"stateMutability":"view","type":"function"},{"inputs":[{"internalType":"uint40","name":"","type":"uint40"}],"name":"territories","outputs":[{"internalType":"uint40","name":"ownerTokenId","type":"uint40"},{"internalType":"uint40","name":"allianceId","type":"uint40"},{"internalType":"uint40","name":"lastClaimed","type":"uint40"}],"stateMutability":"view","type":"function"},{"inputs":[{"internalType":"uint256","name":"index","type":"uint256"}],"name":"tokenByIndex","outputs":[{"internalType":"uint256","name":"","type":"uint256"}],"stateMutability":"view","type":"function"},{"inputs":[{"internalType":"address","name":"owner","type":"address"},{"internalType":"uint256","name":"index","type":"uint256"}],"name":"tokenOfOwnerByIndex","outputs":[{"internalType":"uint256","name":"","type":"uint256"}],"stateMutability":"view","type":"function"},{"inputs":[{"internalType":"uint256","name":"tokenId","type":"uint256"}],"name":"tokenURI","outputs":[{"internalType":"string","name":"","type":"string"}],"stateMutability":"pure","type":"function"},{"inputs":[],"name":"totalSupply","outputs":[{"internalType":"uint256","name":"","type":"uint256"}],"stateMutability":"view","type":"function"},{"inputs":[{"internalType":"uint40","name":"","type":"uint40"}],"name":"tradeProposals","outputs":[{"internalType":"uint40","name":"","type":"uint40"}],"stateMutability":"view","type":"function"},{"inputs":[{"internalType":"address","name":"from","type":"address"},{"internalType":"address","name":"to","type":"address"},{"internalType":"uint256","name":"tokenId","type":"uint256"}],"name":"transferFrom","outputs":[],"stateMutability":"nonpayable","type":"function"},{"inputs":[{"internalType":"address","name":"newOwner","type":"address"}],"name":"transferOwnership","outputs":[],"stateMutability":"nonpayable","type":"function"}],"evm":{"bytecode":{"linkReferences":{},"object":"608060405234801562000010575f80fd5b50336040518060400160405280601681526020017f4f6e636861696e20537572766976616c20436861696e000000000000000000008152506040518060400160405280600481526020016309e86a6960e31b815250815f9081620000759190620002a2565b506001620000848282620002a2565b5050506001600160a01b038116620000b557604051631e4fbdf760e01b81525f600482015260240160405180910390fd5b620000c08162000101565b50620000cd5f3362000152565b50620000fa7f9b7946abd96dccbe6cfc6cc2c13300ab429d93e16fa72dc459eeccda73817f083362000152565b506200036a565b600a80546001600160a01b038381166001600160a01b0319831681179093556040519116919082907f8be0079c531659141344cd1fd0a4f28419497f9722a3daafe3b4186f6b6457e0905f90a35050565b5f828152600b602090815260408083206001600160a01b038516845290915281205460ff16620001f9575f838152600b602090815260408083206001600160a01b03861684529091529020805460ff19166001179055620001b03390565b6001600160a01b0316826001600160a01b0316847f2f8788117e7eff1d82e926ec794901d17c78024a50270940304540a733656f0d60405160405180910390a4506001620001fc565b505f5b92915050565b634e487b7160e01b5f52604160045260245ffd5b600181811c908216806200022b57607f821691505b6020821081036200024a57634e487b7160e01b5f52602260045260245ffd5b50919050565b601f8211156200029d575f81815260208120601f850160051c81016020861015620002785750805b601f850160051c820191505b81811015620002995782815560010162000284565b5050505b505050565b81516001600160401b03811115620002be57620002be62000202565b620002d681620002cf845462000216565b8462000250565b602080601f8311600181146200030c575f8415620002f45750858301515b5f19600386901b1c1916600185901b17855562000299565b5f85815260208120601f198616915b828110156200033c578886015182559484019460019091019084016200031b565b50858210156200035a57878501515f19600388901b60f8161c191681555b5050505050600190811b01905550565b61482480620003785f395ff3fe608060405260043610610341575f3560e01c80635eef0fe7116101bd578063ae89e98c116100f2578063d547741f11610092578063e985e9c51161006d578063e985e9c514610ba1578063f2fde38b14610bc0578063f71e2dff14610bdf578063fc67aa5014610bf3575f80fd5b8063d547741f14610b0e578063d55adf1c14610b2d578063e7661ef714610b8d575f80fd5b8063be22d27d116100cd578063be22d27d14610a2d578063c87b56dd14610a60578063ce1cc2e814610a7f578063d321393914610a9e575f80fd5b8063ae89e98c146109cc578063b00cf317146109eb578063b88d4fde14610a0e575f80fd5b80638da5cb5b1161015d57806395d89b411161013857806395d89b4114610967578063a217fddf1461097b578063a22cb4651461098e578063a828043e146109ad575f80fd5b80638da5cb5b146108e05780638f272112146108fd57806391d1485414610948575f80fd5b8063715018a611610198578063715018a61461088357806375794a3c1461089757806376d15b08146108b45780638c9d2e96146108c7575f80fd5b80635eef0fe7146108135780636352211e1461084557806370a0823114610864575f80fd5b8063248a9ca3116102935780633b771d54116102335780634f6ccce71161020e5780634f6ccce71461074157806353768aba146107605780635852cc0c1461077d5780635cddbc7a146107e8575f80fd5b80633b771d54146106e457806342842e0e1461070357806349a8f2cb14610722575f80fd5b80632f745c591161026e5780632f745c59146106495780633309b2d71461066857806334030bcc1461069357806336568abe146106c5575f80fd5b8063248a9ca3146105dd5780632cfd30051461060b5780632f2ff15d1461062a575f80fd5b806313556b82116102fe5780631a1b8ae8116102d95780631a1b8ae8146104e85780631b8826a214610514578063233c1cc71461054957806323b872dd146105be575f80fd5b806313556b821461043757806317282d5c1461049357806318160ddd146104d4575f80fd5b806301ffc9a71461034557806305ef77971461037957806306fdde031461039f578063081812fc146103c0578063095ea7b3146103f75780630e8876bf14610418575b5f80fd5b348015610350575f80fd5b5061036461035f366004612f2b565b610c10565b60405190151581526020015b60405180910390f35b348015610384575f80fd5b5061038d604081565b60405160ff9091168152602001610370565b3480156103aa575f80fd5b506103b3610c20565b6040516103709190612f90565b3480156103cb575f80fd5b506103df6103da366004612fa2565b610caf565b6040516001600160a01b039091168152602001610370565b348015610402575f80fd5b50610416610411366004612fd4565b610cd6565b005b348015610423575f80fd5b50610416610432366004613010565b610ce5565b348015610442575f80fd5b50610475610451366004613010565b60186020525f908152604090205463ffffffff811690640100000000900460ff1682565b6040805163ffffffff909316835260ff909116602083015201610370565b34801561049e575f80fd5b506104c67f828a9190dc16dc0116154c184677dac8abebc0b3aeeba46f3ba5f89b8e41439881565b604051908152602001610370565b3480156104df575f80fd5b506008546104c6565b3480156104f3575f80fd5b50610507610502366004613029565b611014565b604051610370919061305a565b34801561051f575f80fd5b5061053361052e366004613029565b61115c565b60405164ffffffffff9091168152602001610370565b348015610554575f80fd5b506105ad610563366004613010565b60146020525f90815260409020805460019091015464ffffffffff80831692600160281b8104821692600160501b820460ff1692600160581b9092046001600160a01b0316911685565b6040516103709594939291906130d1565b3480156105c9575f80fd5b506104166105d836600461312f565b6113a8565b3480156105e8575f80fd5b506104c66105f7366004612fa2565b5f908152600b602052604090206001015490565b348015610616575f80fd5b50610416610625366004612fd4565b611431565b348015610635575f80fd5b50610416610644366004613168565b6115ce565b348015610654575f80fd5b506104c6610663366004612fd4565b6115f2565b348015610673575f80fd5b506104c6610682366004612fa2565b600f6020525f908152604090205481565b34801561069e575f80fd5b506105336106ad366004613010565b60166020525f908152604090205464ffffffffff1681565b3480156106d0575f80fd5b506104166106df366004613168565b611655565b3480156106ef575f80fd5b506104166106fe366004613029565b61168d565b34801561070e575f80fd5b5061041661071d36600461312f565b6118a3565b34801561072d575f80fd5b5061041661073c366004613029565b6118bd565b34801561074c575f80fd5b506104c661075b366004612fa2565b611962565b34801561076b575f80fd5b506013546105339064ffffffffff1681565b348015610788575f80fd5b506107c0610797366004612fa2565b600c6020525f908152604090208054600182015460029092015464ffffffffff91821692911683565b6040805164ffffffffff94851681526020810193909352921691810191909152606001610370565b3480156107f3575f80fd5b506104c6610802366004612fa2565b60106020525f908152604090205481565b34801561081e575f80fd5b5061053361082d366004613010565b60116020525f908152604090205464ffffffffff1681565b348015610850575f80fd5b506103df61085f366004612fa2565b6119b7565b34801561086f575f80fd5b506104c661087e366004613189565b6119c1565b34801561088e575f80fd5b50610416611a06565b3480156108a2575f80fd5b50600d546105339064ffffffffff1681565b6104166108c23660046131a2565b611a19565b3480156108d2575f80fd5b506104c66509184e72a00081565b3480156108eb575f80fd5b50600a546001600160a01b03166103df565b348015610908575f80fd5b5061091c61091736600461321e565b611c65565b604080516001600160a01b039094168452602084019290925264ffffffffff1690820152606001610370565b348015610953575f80fd5b50610364610962366004613168565b611cb4565b348015610972575f80fd5b506103b3611cde565b348015610986575f80fd5b506104c65f81565b348015610999575f80fd5b506104166109a836600461323e565b611ced565b3480156109b8575f80fd5b506104166109c7366004613029565b611cf8565b3480156109d7575f80fd5b506104166109e6366004613029565b611e5c565b3480156109f6575f80fd5b506109ff611f8c565b60405161037093929190613277565b348015610a19575f80fd5b50610416610a283660046132cd565b611ff0565b348015610a38575f80fd5b506104c67f9b7946abd96dccbe6cfc6cc2c13300ab429d93e16fa72dc459eeccda73817f0881565b348015610a6b575f80fd5b506103b3610a7a366004612fa2565b612008565b348015610a8a575f80fd5b50610533610a993660046133a2565b61202c565b348015610aa9575f80fd5b50610ae6610ab8366004613010565b60176020525f908152604090205464ffffffffff80821691600160281b8104821691600160501b9091041683565b6040805164ffffffffff94851681529284166020840152921691810191909152606001610370565b348015610b19575f80fd5b50610416610b28366004613168565b6122a0565b348015610b38575f80fd5b50610b6e610b47366004613010565b60126020525f908152604090206001015460ff81169061010090046001600160a01b031682565b6040805192151583526001600160a01b03909116602083015201610370565b348015610b98575f80fd5b50610533600a81565b348015610bac575f80fd5b50610364610bbb366004613411565b6122c4565b348015610bcb575f80fd5b50610416610bda366004613189565b6122f1565b348015610bea575f80fd5b506104c6600a81565b348015610bfe575f80fd5b506015546105339064ffffffffff1681565b5f610c1a8261232e565b92915050565b60605f8054610c2e90613439565b80601f0160208091040260200160405190810160405280929190818152602001828054610c5a90613439565b8015610ca55780601f10610c7c57610100808354040283529160200191610ca5565b820191905f5260205f20905b815481529060010190602001808311610c8857829003601f168201915b5050505050905090565b5f610cb982612352565b505f828152600460205260409020546001600160a01b0316610c1a565b610ce182823361238a565b5050565b64ffffffffff81165f90815260146020526040902060018154600160501b900460ff166003811115610d1957610d196130bd565b14610d595760405162461bcd60e51b815260206004820152600b60248201526a4e6f742070656e64696e6760a81b60448201526064015b60405180910390fd5b80543390610d7490600160281b900464ffffffffff166119b7565b6001600160a01b031614610dbf5760405162461bcd60e51b81526020600482015260126024820152712737ba1037b83837b732b73a1037bbb732b960711b6044820152606401610d50565b805460ff60501b1916600160511b1781555f610ddc600143613485565b825460408051924060208401526001600160d81b031960d883811b821692850192909252600160281b909204901b16604582015242604a820152606a0160408051601f19818403018152919052805160209091012090505f610e3f600283613498565b15610e62578254610e5d90600160281b900464ffffffffff166119b7565b610e74565b8254610e749064ffffffffff166119b7565b83547fff000000000000000000000000000000000000000000ffffffffffffffffffff16600160581b6001600160a01b0383160260ff60501b191617600360501b17845590505f610ec6600284613498565b15610ee0578354600160281b900464ffffffffff16610eea565b835464ffffffffff165b64ffffffffff81165f9081526018602052604081208054929350606492909190610f1b90849063ffffffff166134b7565b82546101009290920a63ffffffff81810219909316918316021790915564ffffffffff83165f90815260186020526040812054909250610f5b9116612397565b64ffffffffff8381165f90815260186020908152604091829020805464ff00000000191664010000000060ff87160217905590516001600160a01b0387168152929350908816917f63d7eeff29328ab4cacddd0d9242a7be8b1bf3c5f5b7e22f6bf88255fe564cc2910160405180910390a260405160ff8216815264ffffffffff8316907fddec92da7cc59a7428f9a8cc1a1e125a910ca18941c46d002d023f6f8bb97a169060200160405180910390a2505050505050565b60605f8264ffffffffff1667ffffffffffffffff811115611037576110376132b9565b60405190808252806020026020018201604052801561108057816020015b604080516060810182525f80825260208083018290529282015282525f199092019101816110555790505b509050835f5b8464ffffffffff168164ffffffffff161080156110af5750600d5464ffffffffff908116908316105b156111525764ffffffffff8083165f908152600c602090815260409182902082516060810184528154851681526001820154928101929092526002015483169181019190915284519091859190841690811061110d5761110d6134db565b602090810291909101015264ffffffffff8216156111525764ffffffffff9182165f908152600c6020526040902054909116908061114a816134ef565b915050611086565b5090949350505050565b5f3361116e64ffffffffff85166119b7565b6001600160a01b0316146111bb5760405162461bcd60e51b81526020600482015260146024820152732737ba1031b430b63632b733b2b91037bbb732b960611b6044820152606401610d50565b8164ffffffffff168364ffffffffff16036112105760405162461bcd60e51b815260206004820152601560248201527421b0b73737ba1031b430b63632b733b29039b2b63360591b6044820152606401610d50565b601580545f9164ffffffffff909116908261122a836134ef565b91906101000a81548164ffffffffff021916908364ffffffffff16021790555090506040518060a001604052808564ffffffffff1681526020018464ffffffffff16815260200160016003811115611284576112846130bd565b81525f602080830182905264ffffffffff4281166040948501528581168352601482529183902084518154928601518416600160281b0269ffffffffffffffffffff1990931693169290921717808255918301519091829060ff60501b1916600160501b8360038111156112fa576112fa6130bd565b0217905550606082015181547fff0000000000000000000000000000000000000000ffffffffffffffffffffff16600160581b6001600160a01b03909216919091021781556080909101516001909101805464ffffffffff191664ffffffffff9283161790556040805186831681528583166020820152918316917f4d2a87c1ba137fa06166ea13381badd4094ef8d73605e0830728e59279ffe6d991015b60405180910390a29392505050565b6001600160a01b0382166113d157604051633250574960e11b81525f6004820152602401610d50565b5f6113dd8383336123ff565b9050836001600160a01b0316816001600160a01b03161461142b576040516364283d7b60e01b81526001600160a01b0380861660048301526024820184905282166044820152606401610d50565b50505050565b6114396124d2565b600d5464ffffffffff165f811561145a57611455600183613512565b61145c565b5f5b90505f61146a600143613485565b60408051914060208301526bffffffffffffffffffffffff19606088901b1690820152605481018590526001600160d81b031960d884901b16607482015260790160408051601f19818403018152828252805160209182012060608401835264ffffffffff80871685528483018281524282168686019081528983165f818152600c909652959094209551865490831664ffffffffff199182161787559051600187015592516002909501805495909116949092169390931790559091506115339086906124ff565b600d805464ffffffffff16905f611549836134ef565b91906101000a81548164ffffffffff021916908364ffffffffff160217905550508264ffffffffff16856001600160a01b03167f4c10f935e0e6852f460d1682cbfe7200c89f570e056578fd9de6f9f0aed4cdb184846040516115bf92919064ffffffffff929092168252602082015260400190565b60405180910390a35050505050565b5f828152600b60205260409020600101546115e881612518565b61142b8383612522565b5f6115fc836119c1565b821061162d5760405163295f44f760e21b81526001600160a01b038416600482015260248101839052604401610d50565b506001600160a01b03919091165f908152600660209081526040808320938352929052205490565b6001600160a01b038116331461167e5760405163334bd91960e11b815260040160405180910390fd5b61168882826125b3565b505050565b600a64ffffffffff8316106116d85760405162461bcd60e51b8152602060048201526011602482015270496e76616c6964207465727269746f727960781b6044820152606401610d50565b336116e964ffffffffff83166119b7565b6001600160a01b03161461170f5760405162461bcd60e51b8152600401610d5090613530565b6040805160608101825264ffffffffff8084168083525f8181526011602090815285822054841681860190815242851686880190815289861684526017835287842096518754925191518716600160501b0264ffffffffff60501b19928816600160281b0269ffffffffffffffffffff1990941691909716179190911716939093179093558252601890529081208054603292906117b490849063ffffffff166134b7565b82546101009290920a63ffffffff81810219909316918316021790915564ffffffffff83165f908152601860205260408120549092506117f49116612397565b64ffffffffff8381165f818152601860209081526040808320805464ff00000000191664010000000060ff891602179055601190915280822054905194955083169391928716917f2d3bbffd93f30e4d9d78f300c2f02460c032ae17c775876fdd9ce2917b3612869190a460405160ff8216815264ffffffffff8316907fddec92da7cc59a7428f9a8cc1a1e125a910ca18941c46d002d023f6f8bb97a169060200160405180910390a2505050565b61168883838360405180602001604052805f815250611ff0565b336118ce64ffffffffff84166119b7565b6001600160a01b0316146119105760405162461bcd60e51b81526020600482015260096024820152682737ba1037bbb732b960b91b6044820152606401610d50565b64ffffffffff8281165f81815260166020526040808220805464ffffffffff19169486169485179055517f8ae944086487743363c2af0d66070ad4f9d4a0fdaa56c289fa29f9d03a9fd4aa9190a35050565b5f61196c60085490565b82106119945760405163295f44f760e21b81525f600482015260248101839052604401610d50565b600882815481106119a7576119a76134db565b905f5260205f2001549050919050565b5f610c1a82612352565b5f6001600160a01b0382166119eb576040516322718ad960e21b81525f6004820152602401610d50565b506001600160a01b03165f9081526003602052604090205490565b611a0e6124d2565b611a175f61261e565b565b33611a2a64ffffffffff85166119b7565b6001600160a01b031614611a505760405162461bcd60e51b8152600401610d5090613530565b8015801590611a60575060408111155b611a9d5760405162461bcd60e51b815260206004820152600e60248201526d09acae6e6c2ceca40d8cadccee8d60931b6044820152606401610d50565b64ffffffffff83165f908152600f6020526040902054611abe90600a61266f565b611af55760405162461bcd60e51b815260206004820152600860248201526721b7b7b63237bbb760c11b6044820152606401610d50565b64ffffffffff83165f908152601060205260409020546509184e72a000901b34811115611b575760405162461bcd60e51b815260206004820152601060248201526f496e73756666696369656e742066656560801b6044820152606401610d50565b5f8383604051611b68929190613557565b6040805191829003822064ffffffffff8881165f818152600e60209081528582206060880187523388528188018681524286168989019081528254600180820185559386528486209a516003909102909a0180546001600160a01b0319166001600160a01b03909b169a909a178a55905191890191909155516002909701805464ffffffffff191697909416969096179092558152600f8452828120439055601090935290822080549193509091611c1f83613566565b90915550506040805182815260208101849052339164ffffffffff8816917f74f8a0d6cc1d5e3c4f35a2e52027f4d38def0a75a72a4e06caabda68ae05400d91016115bf565b600e602052815f5260405f208181548110611c7e575f80fd5b5f9182526020909120600390910201805460018201546002909201546001600160a01b03909116935090915064ffffffffff1683565b5f918252600b602090815260408084206001600160a01b0393909316845291905290205460ff1690565b606060018054610c2e90613439565b610ce1338383612684565b33611d0964ffffffffff83166119b7565b6001600160a01b031614611d4b5760405162461bcd60e51b81526020600482015260096024820152682737ba1037bbb732b960b91b6044820152606401610d50565b64ffffffffff8281165f90815260166020526040902054811690821614611da25760405162461bcd60e51b815260206004820152600b60248201526a139bc81c1c9bdc1bdcd85b60aa1b6044820152606401610d50565b5f611db38364ffffffffff166119b7565b90505f611dc68364ffffffffff166119b7565b9050611de982828664ffffffffff1660405180602001604052805f815250612722565b611e0a81838564ffffffffff1660405180602001604052805f815250612722565b64ffffffffff8085165f81815260166020526040808220805464ffffffffff1916905551928616927f12a7944a4752bf8e2c4fe39b345e3f378f032131bd1e47331255149561a5ac7e9190a350505050565b64ffffffffff82165f9081526012602052604090206001015460ff16611ec45760405162461bcd60e51b815260206004820152601760248201527f416c6c69616e636520646f6573206e6f742065786973740000000000000000006044820152606401610d50565b33611ed564ffffffffff83166119b7565b6001600160a01b031614611efb5760405162461bcd60e51b8152600401610d5090613530565b64ffffffffff8281165f818152601260209081526040808320805460018101825590845282842060068083049091018054919092066005026101000a808802199091169688169081029690961790558483526011909152808220805464ffffffffff191684179055517fd92a267fc0a66feba6010a5a39605cce10efc23a5f540cc417525e94bb9414059190a35050565b606080606060405180610480016040528061044481526020016143ab610444913960405180610440016040528061040e8152602001613ddd61040e9139604051806101e001604052806101c081526020016141eb6101c09139925092509250909192565b611ffb8484846113a8565b61142b338585858561272d565b6060604051806107c0016040528061078c815260200161365161078c913992915050565b5f805b828110156120ce573361206e85858481811061204d5761204d6134db565b90506020020160208101906120629190613010565b64ffffffffff166119b7565b6001600160a01b0316146120bc5760405162461bcd60e51b81526020600482015260156024820152744e6f74206f776e6572206f6620616c6c204e46547360581b6044820152606401610d50565b806120c681613566565b91505061202f565b50601380545f9164ffffffffff90911690826120e9836134ef565b91906101000a81548164ffffffffff021916908364ffffffffff160217905550905060405180606001604052808585808060200260200160405190810160405280939291908181526020018383602002808284375f920182905250938552505060016020808501919091523360409485015264ffffffffff86168352601281529290912083518051919361218293508492910190612e53565b506020820151600190910180546040909301516001600160a01b031661010002610100600160a81b0319921515929092166001600160a81b0319909316929092171790555f5b83811015612239578160115f8787858181106121e6576121e66134db565b90506020020160208101906121fb9190613010565b64ffffffffff908116825260208201929092526040015f20805464ffffffffff1916929091169190911790558061223181613566565b9150506121c8565b506122647f828a9190dc16dc0116154c184677dac8abebc0b3aeeba46f3ba5f89b8e41439833612522565b508064ffffffffff167f3a4c5433c67e6c3a4697d7912f890eb0d2bf330958c95be2bbe9f0a8402c10aa8585336040516113999392919061357e565b5f828152600b60205260409020600101546122ba81612518565b61142b83836125b3565b6001600160a01b039182165f90815260056020908152604080832093909416825291909152205460ff1690565b6122f96124d2565b6001600160a01b03811661232257604051631e4fbdf760e01b81525f6004820152602401610d50565b61232b8161261e565b50565b5f6001600160e01b03198216637965db0b60e01b1480610c1a5750610c1a82612855565b5f818152600260205260408120546001600160a01b031680610c1a57604051637e27328960e01b815260048101849052602401610d50565b6116888383836001612879565b5f60648263ffffffff1610156123af57506001919050565b61012c8263ffffffff1610156123c757506002919050565b6102588263ffffffff1610156123df57506003919050565b6103e88263ffffffff1610156123f757506004919050565b506005919050565b5f8061240c85858561297d565b90506001600160a01b0381166124685761246384600880545f838152600960205260408120829055600182018355919091527ff3f7a9fe364faab93b216da50a3214154f22a0a2b415b23a84c8169e8b636ee30155565b61248b565b846001600160a01b0316816001600160a01b03161461248b5761248b8185612a6f565b6001600160a01b0385166124a7576124a284612aec565b6124ca565b846001600160a01b0316816001600160a01b0316146124ca576124ca8585612b93565b949350505050565b600a546001600160a01b03163314611a175760405163118cdaa760e01b8152336004820152602401610d50565b610ce1828260405180602001604052805f815250612be1565b61232b8133612bf8565b5f61252d8383611cb4565b6125ac575f838152600b602090815260408083206001600160a01b03861684529091529020805460ff191660011790556125643390565b6001600160a01b0316826001600160a01b0316847f2f8788117e7eff1d82e926ec794901d17c78024a50270940304540a733656f0d60405160405180910390a4506001610c1a565b505f610c1a565b5f6125be8383611cb4565b156125ac575f838152600b602090815260408083206001600160a01b0386168085529252808320805460ff1916905551339286917ff6391f5c32d9c69d2a47ea670b442974b53935d1edc7fd64eb21e047a839171b9190a4506001610c1a565b600a80546001600160a01b038381166001600160a01b0319831681179093556040519116919082907f8be0079c531659141344cd1fd0a4f28419497f9722a3daafe3b4186f6b6457e0905f90a35050565b5f61267a82846135dc565b4310159392505050565b6001600160a01b0382166126b657604051630b61174360e31b81526001600160a01b0383166004820152602401610d50565b6001600160a01b038381165f81815260056020908152604080832094871680845294825291829020805460ff191686151590811790915591519182527f17307eab39ab6107e8899845ad3d59bd9653f200f220920489ca2b5937696c31910160405180910390a3505050565b611ffb848484612c31565b6001600160a01b0383163b1561284e57604051630a85bd0160e11b81526001600160a01b0384169063150b7a029061276f9088908890879087906004016135ef565b6020604051808303815f875af19250505080156127a9575060408051601f3d908101601f191682019092526127a691810190613621565b60015b612810573d8080156127d6576040519150601f19603f3d011682016040523d82523d5f602084013e6127db565b606091505b5080515f0361280857604051633250574960e11b81526001600160a01b0385166004820152602401610d50565b805160208201fd5b6001600160e01b03198116630a85bd0160e11b1461284c57604051633250574960e11b81526001600160a01b0385166004820152602401610d50565b505b5050505050565b5f6001600160e01b0319821663780e9d6360e01b1480610c1a5750610c1a82612cde565b808061288d57506001600160a01b03821615155b1561294e575f61289c84612352565b90506001600160a01b038316158015906128c85750826001600160a01b0316816001600160a01b031614155b80156128db57506128d981846122c4565b155b156129045760405163a9fbf51f60e01b81526001600160a01b0384166004820152602401610d50565b811561294c5783856001600160a01b0316826001600160a01b03167f8c5be1e5ebec7d5bd14f71427d1e84f3dd0314c0f7b2291e5b200ac8c7c3b92560405160405180910390a45b505b50505f90815260046020526040902080546001600160a01b0319166001600160a01b0392909216919091179055565b5f828152600260205260408120546001600160a01b03908116908316156129a9576129a9818486612d2d565b6001600160a01b038116156129e3576129c45f855f80612879565b6001600160a01b0381165f90815260036020526040902080545f190190555b6001600160a01b03851615612a11576001600160a01b0385165f908152600360205260409020805460010190555b5f8481526002602052604080822080546001600160a01b0319166001600160a01b0389811691821790925591518793918516917fddf252ad1be2c89b69c2b068fc378daa952ba7f163c4a11628f55a4df523b3ef91a4949350505050565b5f612a79836119c1565b5f838152600760209081526040808320546001600160a01b0388168452600690925290912091925090818314612ace575f83815260208281526040808320548584528184208190558352600790915290208290555b5f938452600760209081526040808620869055938552525081205550565b6008545f90612afd90600190613485565b5f8381526009602052604081205460088054939450909284908110612b2457612b246134db565b905f5260205f20015490508060088381548110612b4357612b436134db565b5f918252602080832090910192909255828152600990915260408082208490558582528120556008805480612b7a57612b7a61363c565b600190038181905f5260205f20015f9055905550505050565b5f6001612b9f846119c1565b612ba99190613485565b6001600160a01b039093165f908152600660209081526040808320868452825280832085905593825260079052919091209190915550565b612beb8383612d91565b611688335f85858561272d565b612c028282611cb4565b610ce15760405163e2517d3f60e01b81526001600160a01b038216600482015260248101839052604401610d50565b6001600160a01b038216612c5a57604051633250574960e11b81525f6004820152602401610d50565b5f612c6683835f6123ff565b90506001600160a01b038116612c9257604051637e27328960e01b815260048101839052602401610d50565b836001600160a01b0316816001600160a01b03161461142b576040516364283d7b60e01b81526001600160a01b0380861660048301526024820184905282166044820152606401610d50565b5f6001600160e01b031982166380ac58cd60e01b1480612d0e57506001600160e01b03198216635b5e139f60e01b145b80610c1a57506301ffc9a760e01b6001600160e01b0319831614610c1a565b612d38838383612df2565b611688576001600160a01b038316612d6657604051637e27328960e01b815260048101829052602401610d50565b60405163177e802f60e01b81526001600160a01b038316600482015260248101829052604401610d50565b6001600160a01b038216612dba57604051633250574960e11b81525f6004820152602401610d50565b5f612dc683835f6123ff565b90506001600160a01b03811615611688576040516339e3563760e11b81525f6004820152602401610d50565b5f6001600160a01b038316158015906124ca5750826001600160a01b0316846001600160a01b03161480612e2b5750612e2b84846122c4565b806124ca5750505f908152600460205260409020546001600160a01b03908116911614919050565b828054828255905f5260205f2090600501600690048101928215612ef2579160200282015f5b83821115612ebf57835183826101000a81548164ffffffffff021916908364ffffffffff1602179055509260200192600501602081600401049283019260010302612e79565b8015612ef05782816101000a81549064ffffffffff0219169055600501602081600401049283019260010302612ebf565b505b50612efe929150612f02565b5090565b5b80821115612efe575f8155600101612f03565b6001600160e01b03198116811461232b575f80fd5b5f60208284031215612f3b575f80fd5b8135612f4681612f16565b9392505050565b5f81518084525f5b81811015612f7157602081850181015186830182015201612f55565b505f602082860101526020601f19601f83011685010191505092915050565b602081525f612f466020830184612f4d565b5f60208284031215612fb2575f80fd5b5035919050565b80356001600160a01b0381168114612fcf575f80fd5b919050565b5f8060408385031215612fe5575f80fd5b612fee83612fb9565b946020939093013593505050565b803564ffffffffff81168114612fcf575f80fd5b5f60208284031215613020575f80fd5b612f4682612ffc565b5f806040838503121561303a575f80fd5b61304383612ffc565b915061305160208401612ffc565b90509250929050565b602080825282518282018190525f919060409081850190868401855b828110156130b0578151805164ffffffffff9081168652878201518887015290860151168585015260609093019290850190600101613076565b5091979650505050505050565b634e487b7160e01b5f52602160045260245ffd5b64ffffffffff8681168252858116602083015260a08201906004861061310557634e487b7160e01b5f52602160045260245ffd5b60408301959095526001600160a01b03939093166060820152921660809092019190915292915050565b5f805f60608486031215613141575f80fd5b61314a84612fb9565b925061315860208501612fb9565b9150604084013590509250925092565b5f8060408385031215613179575f80fd5b8235915061305160208401612fb9565b5f60208284031215613199575f80fd5b612f4682612fb9565b5f805f604084860312156131b4575f80fd5b6131bd84612ffc565b9250602084013567ffffffffffffffff808211156131d9575f80fd5b818601915086601f8301126131ec575f80fd5b8135818111156131fa575f80fd5b87602082850101111561320b575f80fd5b6020830194508093505050509250925092565b5f806040838503121561322f575f80fd5b50508035926020909101359150565b5f806040838503121561324f575f80fd5b61325883612fb9565b91506020830135801515811461326c575f80fd5b809150509250929050565b606081525f6132896060830186612f4d565b828103602084015261329b8186612f4d565b905082810360408401526132af8185612f4d565b9695505050505050565b634e487b7160e01b5f52604160045260245ffd5b5f805f80608085870312156132e0575f80fd5b6132e985612fb9565b93506132f760208601612fb9565b925060408501359150606085013567ffffffffffffffff8082111561331a575f80fd5b818701915087601f83011261332d575f80fd5b81358181111561333f5761333f6132b9565b604051601f8201601f19908116603f01168101908382118183101715613367576133676132b9565b816040528281528a602084870101111561337f575f80fd5b826020860160208301375f60208483010152809550505050505092959194509250565b5f80602083850312156133b3575f80fd5b823567ffffffffffffffff808211156133ca575f80fd5b818501915085601f8301126133dd575f80fd5b8135818111156133eb575f80fd5b8660208260051b85010111156133ff575f80fd5b60209290920196919550909350505050565b5f8060408385031215613422575f80fd5b61342b83612fb9565b915061305160208401612fb9565b600181811c9082168061344d57607f821691505b60208210810361346b57634e487b7160e01b5f52602260045260245ffd5b50919050565b634e487b7160e01b5f52601160045260245ffd5b81810381811115610c1a57610c1a613471565b5f826134b257634e487b7160e01b5f52601260045260245ffd5b500690565b63ffffffff8181168382160190808211156134d4576134d4613471565b5092915050565b634e487b7160e01b5f52603260045260245ffd5b5f64ffffffffff80831681810361350857613508613471565b6001019392505050565b64ffffffffff8281168282160390808211156134d4576134d4613471565b6020808252600d908201526c2737ba1027232a1037bbb732b960991b604082015260600190565b818382375f9101908152919050565b5f6001820161357757613577613471565b5060010190565b604080825281018390525f8460608301825b868110156135bc5764ffffffffff6135a784612ffc565b16825260209283019290910190600101613590565b506001600160a01b03949094166020939093019290925250909392505050565b80820180821115610c1a57610c1a613471565b6001600160a01b03858116825284166020820152604081018390526080606082018190525f906132af90830184612f4d565b5f60208284031215613631575f80fd5b8151612f4681612f16565b634e487b7160e01b5f52603160045260245ffdfe646174613a696d6167652f706e673b6261736536342c6956424f5277304b47676f414141414e535568455567414141674141414149414341594141414430654e5436414141414358424957584d41414173544141414c457745416d7077594141414b54326c44513142516147393062334e6f6233416753554e444948427962325a706247554141486a616e564e6e56465070466a333333765243533469416c4574765568554949464a43693441556b53597149516b51536f67686f646b5655634552525555454738696769414f4f6a6f434d4656457344496f4b3241666b49614b4f67364f49697372373458756a61396138392b624e2f725858507565733835327a7a7766414341795753444e524e59414d715549654565434478385447346551755149454b4a4841414541697a5a43467a2f534d424150682b504477724973414876674142654e4d4c43414441545a76414d4279482f772f7151706c6341594345416342306b54684c43494155414542366a6b4b6d41454247415943646d435a54414b41454147444c59324c6a414641744147416e662b6254414943642b4a6c37415142626c43455641614352414341545a59684541476737414b7a50566f7046414667774142526d53385135414e67744144424a56325a49414c4333414d444f454175794141674d4144425269495570414152374147444949794e344149535a41425247386c633838537575454f6371414142346d624938755351355259466243433178423164584c68346f7a6b6b584b78513259514a686d6b4175776e6d5a47544b424e412f6738387741414b435246524867672f5039654d344f7273374f4e6f3632446c3874367238472f794a695975502b35632b7263454141414f46306674482b4c432b7a476f4137426f42742f71496c3767526f586775676466654c5a724950514c55416f4f6e61562f4e772b483438504557686b4c6e5a3265586b354e684b78454a62596370586666356e776c2f41562f31732b5834382f506631344c37694a4945795859464842506a6777737a30544b55637a35494a68474c63356f39482f4c634c2f2f776430794c4553574b3557436f5534314553635935456d6f7a7a4d71556969554b534b63556c3076396b347438732b774d2b337a554173476f2b415875524c6168645977503253796351574854413476634141504b37623848554b41674467476944346339332f2b382f2f5565674a5143415a6b6d5363514141586b516b4c6c544b737a2f4843414141524b43424b724242472f544247437a4142687a4242647a42432f78674e6f52434a4d544351684243436d534148484a674b617943516969477a6241644b6d4176314541644e4d42526149615463413475776c5734446a3177442f7068434a37424b4c794243515242794167545953486169414669696c676a6a6767586d5958344963464942424b4c4a43444a69425252496b75524e556778556f705549465649486649396367493568317847757045377941417967767947764563786c49477955543355444c564475616733476f52476f6776515a4851786d6f38576f4a765163725161505977326f65665171326750326f382b51386377774f6759427a50456244417578734e4373546773435a4e6a7937456972417972786871775671774475346e3159382b7864775153675558414354594564304967595235425346684d57453759534b67674843513045646f4a4e776b44684648434a794b54714575304a726f522b635159596a4978683168494c435057456f38544c784237694550454e79515369554d794a376d51416b6d787046545345744a47306d3553492b6b73715a733053426f6a6b386e615a477579427a6d554c4341727949586b6e6554443544506b472b5168386c734b6e574a4163615434552b496f5573707153686e6c454f553035515a6c6d444a4256614f615574326f6f5651524e59396151713268746c4b765559656f457a52316d6a6e4e67785a4a533657746f705854476d675861506470722b6830756848646c52354f6c39425830737670522b6958364150306477774e686857447834686e4b426d62474163595a786c33474b2b59544b595a3034735a783151774e7a48726d4f655a44356c765656677174697038465a484b4370564b6c53615647796f76564b6d7170717265716774563831584c56492b70586c4e39726b5a564d31506a71516e556c7174567170315136314d62553265704f366948716d656f6231512f7048355a2f596b4757634e4d773039447046476773562f6a764d596743324d5a733367734957734e71345a31675458454a72484e325878324b7275592f523237697a327171614535517a4e4b4d31657a55764f555a6a3848343568782b4a783054676e6e4b4b65583833364b336854764b65497047365930544c6b785a567872717061586c6c6972534b74527130667276546175376165647072314675316e376751354278306f6e584364485a342f4f425a336e55396c543361634b70785a4e5054723172693671613655626f62744564373975702b36596e723565674a354d623666656562336e2b6878394c2f31552f573336702f5648444667477377776b4274734d7a68673878545678627a77644c3866623856464458634e41513656686c5747583453552e2e2e456d706c6f79206120706879736963616c2d64656c6976657279206d6574686f6420666f72207472616e73616374696f6e732e204f6e6520706572736f6e207369676e732061207472616e73616374696f6e2c20616e6420616e6f7468657220706572736f6e20706879736963616c6c79206361727269657320746865206461746120746f2061206c6f636174696f6e207769746820616e20696e7465726e657420636f6e6e656374696f6e20746f2062726f6164636173742069742e2054686973206d6574686f64207475726e73207472616e73616374696f6e2064656c697665727920696e746f206120666f726d206f662073707963726166742e0a505254434c340a444154412052454c49430a55534220536e65616b65726e65740a557365206120706f727461626c652073746f726167652064657669636520617320746865206461746120636172726965722e2041207369676e6564207472616e73616374696f6e2066696c6520697320736176656420746f20612055534220737469636b2c20706879736963616c6c79206d6f76656420746f206120646576696365207468617420686173206e6574776f726b206163636573732c20616e64207468656e2062726f61646361737420746f2074686520626c6f636b636861696e2e0a505254434c350a20535441544943204841554c20284c4f4e4720262053484f5254290a48616d20526164696f20426c6f636b636861696e200a4861726e6573732074686520706f776572206f6620616d617465757220726164696f2e2049662068616d20726164696f2063616e207472616e736d697420656d61696c73206f766572206c6f6e672064697374616e6365732c2069742063616e207472616e736d697420626c6f636b636861696e20646174612c206f66666572696e67206120726573696c69656e742c2063726f73732d626f72646572206d6574686f64206f6620636f6d6d756e69636174696f6e207468617420697320696d6d756e6520746f20706879736963616c20696e66726173747275637475726520637574732e0a505254434c360a47484f5354204d4f44450a526164696f2042726f6164636173740a4c6576657261676520726164696f2062726f6164636173747320746f207472616e736d6974207472616e73616374696f6e732e2041207369676e65642c20636f6d707265737365642064617461207061636b657420697320636f6e76657274656420696e746f20726164696f20776176657320616e642062726f616463617374206f76657220746865206169722e20416e796f6e652077697468207468652072696768742072656365697665722063616e20636170747572652c206465636f64652c20616e640a505254434c370a534b59434841494e2052454c41590a536174656c6c697465204c696e6b2042726f616463617374207472616e73616374696f6e73206469726563746c7920696e746f207370616365207573696e67206120736174656c6c69746520646973682e2054686520736174656c6c697465207468656e2072656c617973207468652064617461206261636b20646f776e20746f206120726563656976696e672073746174696f6e20636f6e6e656374656420746f2074686520626c6f636b636861696e206e6574776f726b2c20636f6d706c6574656c7920627970617373696e6720616c6c20746572726573747269616c20696e6672617374727563747572652e0a436f726520446f637472696e650a54686520626c6f636b636861696e2773207472756520686f6d65206973206e6f742074686520696e7465726e65743b2074686520696e7465726e6574206973206d6572656c79206120636f6e76656e69656e74207472616e73706f7274206c617965722e205768656e206f6e652070617468776179206661696c732c206120726573696c69656e74206e6574776f726b2066696e647320616e6f746865722e204173206c6f6e6720617320796f752063616e206d6f766520646174612c20796f752063616e206d6f76652076616c75652e4461726b6e657420436f6e74696e75756d0a4d4f56494e472056414c554520574954484f55542054484520494e5445524e45540a4f6e2d436861696e20526573696c69656e6365204669656c64204d616e75616c0a496e207468652065766f6c76696e67206469676974616c2065636f6e6f6d792c2072656c69616e6365206f6e2074686520747261646974696f6e616c20696e7465726e657420696e66726173747275637475726520706f736573207269736b732e20496e206361736573206f6620706f776572206f7574616765732c206361626c652064616d6167652c206f722067726964206661696c757265732c20626c6f636b636861696e206e6574776f726b732063616e20656e647572652062792066696e64696e6720616c7465726e61746976652064617461207472616e736d697373696f6e20726f757465732e20546869732067756964652070726f76696465732070726f746f636f6c7320746f206d61696e7461696e207472616e73616374696f6e20666c6f772c206576656e207768656e20636f6e76656e74696f6e616c206e6574776f726b73206661696c2e0a505254434c310a20424f4e45204e45542028424f4e4554290a4d657368204e6574776f726b696e67200a437265617465206120646563656e7472616c697a65642c20706565722d746f2d70656572206e6574776f726b207768657265206465766963657320636f6e6e656374206469726563746c7920746f2065616368206f746865722e205472616e73616374696f6e7320617265207061737365642066726f6d2064657669636520746f20646576696365206c696b65207768697370657273207468726f75676820612063726f77642e2054686973206d6574686f6420697320736c6f7765722062757420686967686c792065666665637469766520666f72206d6f76696e67207369676e6564207472616e73616374696f6e7320776974686f757420612063656e7472616c20696e7465726e657420636f6e6e656374696f6e2e0a505254434c320a205349474e414c205343524950540a534d53205472616e73616374696f6e730a5574696c697a65206578697374696e672063656c6c756c617220746f7765727320666f7220626173696320636f6d6d756e69636174696f6e2e205472616e73616374696f6e732063616e2062652073656e742076696120706c61696e2d7465787420534d532c20636f6e7461696e696e6720612073696d706c6520636f6d6d616e642c2077616c6c657420616464726573732c20616e64207369676e61747572652e2054686973206d6574686f64207265717569726573206e6f2061707073206f722062726f77736572732c2072656c79696e67206f6e6c79206f6e20612063656c6c207369676e616c20616e642061206b65797061642e0a505254434c330a504859534943414c2048414e445348414b4520284c4544474552290a4f66666c696e65204861726477617265205472616e7366657220a2646970667358221220ef3bfde4d4c31a058c7091e6f2fd9cfd0b672bf3e69afba3cccc2a9f3c0629a164736f6c63430008150033","opcodes":"PUSH1 0x80 PUSH1 0x40 MSTORE CALLVALUE DUP1 ISZERO PUSH3 0x10 JUMPI PUSH0 DUP1 REVERT JUMPDEST POP CALLER PUSH1 0x40 MLOAD DUP1 PUSH1 0x40 ADD PUSH1 0x40 MSTORE DUP1 PUSH1 0x16 DUP2 MSTORE PUSH1 0x20 ADD PUSH32 0x4F6E636861696E20537572766976616C20436861696E00000000000000000000 DUP2 MSTORE POP PUSH1 0x40 MLOAD DUP1 PUSH1 0x40 ADD PUSH1 0x40 MSTORE DUP1 PUSH1 0x4 DUP2 MSTORE PUSH1 0x20 ADD PUSH4 0x9E86A69 PUSH1 0xE3 SHL DUP2 MSTORE POP DUP2 PUSH0 SWAP1 DUP2 PUSH3 0x75 SWAP2 SWAP1 PUSH3 0x2A2 JUMP JUMPDEST POP PUSH1 0x1 PUSH3 0x84 DUP3 DUP3 PUSH3 0x2A2 JUMP JUMPDEST POP POP POP PUSH1 0x1 PUSH1 0x1 PUSH1 0xA0 SHL SUB DUP2 AND PUSH3 0xB5 JUMPI PUSH1 0x40 MLOAD PUSH4 0x1E4FBDF7 PUSH1 0xE0 SHL DUP2 MSTORE PUSH0 PUSH1 0x4 DUP3 ADD MSTORE PUSH1 0x24 ADD PUSH1 0x40 MLOAD DUP1 SWAP2 SUB SWAP1 REVERT JUMPDEST PUSH3 0xC0 DUP2 PUSH3 0x101 JUMP JUMPDEST POP PUSH3 0xCD PUSH0 CALLER PUSH3 0x152 JUMP JUMPDEST POP PUSH3 0xFA PUSH32 0x9B7946ABD96DCCBE6CFC6CC2C13300AB429D93E16FA72DC459EECCDA73817F08 CALLER PUSH3 0x152 JUMP JUMPDEST POP PUSH3 0x36A JUMP JUMPDEST PUSH1 0xA DUP1 SLOAD PUSH1 0x1 PUSH1 0x1 PUSH1 0xA0 SHL SUB DUP4 DUP2 AND PUSH1 0x1 PUSH1 0x1 PUSH1 0xA0 SHL SUB NOT DUP4 AND DUP2 OR SWAP1 SWAP4 SSTORE PUSH1 0x40 MLOAD SWAP2 AND SWAP2 SWAP1 DUP3 SWAP1 PUSH32 0x8BE0079C531659141344CD1FD0A4F28419497F9722A3DAAFE3B4186F6B6457E0 SWAP1 PUSH0 SWAP1 LOG3 POP POP JUMP JUMPDEST PUSH0 DUP3 DUP2 MSTORE PUSH1 0xB PUSH1 0x20 SWAP1 DUP2 MSTORE PUSH1 0x40 DUP1 DUP4 KECCAK256 PUSH1 0x1 PUSH1 0x1 PUSH1 0xA0 SHL SUB DUP6 AND DUP5 MSTORE SWAP1 SWAP2 MSTORE DUP2 KECCAK256 SLOAD PUSH1 0xFF AND PUSH3 0x1F9 JUMPI PUSH0 DUP4 DUP2 MSTORE PUSH1 0xB PUSH1 0x20 SWAP1 DUP2 MSTORE PUSH1 0x40 DUP1 DUP4 KECCAK256 PUSH1 0x1 PUSH1 0x1 PUSH1 0xA0 SHL SUB DUP7 AND DUP5 MSTORE SWAP1 SWAP2 MSTORE SWAP1 KECCAK256 DUP1 SLOAD PUSH1 0xFF NOT AND PUSH1 0x1 OR SWAP1 SSTORE PUSH3 0x1B0 CALLER SWAP1 JUMP JUMPDEST PUSH1 0x1 PUSH1 0x1 PUSH1 0xA0 SHL SUB AND DUP3 PUSH1 0x1 PUSH1 0x1 PUSH1 0xA0 SHL SUB AND DUP5 PUSH32 0x2F8788117E7EFF1D82E926EC794901D17C78024A50270940304540A733656F0D PUSH1 0x40 MLOAD PUSH1 0x40 MLOAD DUP1 SWAP2 SUB SWAP1 LOG4 POP PUSH1 0x1 PUSH3 0x1FC JUMP JUMPDEST POP PUSH0 JUMPDEST SWAP3 SWAP2 POP POP JUMP JUMPDEST PUSH4 0x4E487B71 PUSH1 0xE0 SHL PUSH0 MSTORE PUSH1 0x41 PUSH1 0x4 MSTORE PUSH1 0x24 PUSH0 REVERT JUMPDEST PUSH1 0x1 DUP2 DUP2 SHR SWAP1 DUP3 AND DUP1 PUSH3 0x22B JUMPI PUSH1 0x7F DUP3 AND SWAP2 POP JUMPDEST PUSH1 0x20 DUP3 LT DUP2 SUB PUSH3 0x24A JUMPI PUSH4 0x4E487B71 PUSH1 0xE0 SHL PUSH0 MSTORE PUSH1 0x22 PUSH1 0x4 MSTORE PUSH1 0x24 PUSH0 REVERT JUMPDEST POP SWAP2 SWAP1 POP JUMP JUMPDEST PUSH1 0x1F DUP3 GT ISZERO PUSH3 0x29D JUMPI PUSH0 DUP2 DUP2 MSTORE PUSH1 0x20 DUP2 KECCAK256 PUSH1 0x1F DUP6 ADD PUSH1 0x5 SHR DUP2 ADD PUSH1 0x20 DUP7 LT ISZERO PUSH3 0x278 JUMPI POP DUP1 JUMPDEST PUSH1 0x1F DUP6 ADD PUSH1 0x5 SHR DUP3 ADD SWAP2 POP JUMPDEST DUP2 DUP2 LT ISZERO PUSH3 0x299 JUMPI DUP3 DUP2 SSTORE PUSH1 0x1 ADD PUSH3 0x284 JUMP JUMPDEST POP POP POP JUMPDEST POP POP POP JUMP JUMPDEST DUP2 MLOAD PUSH1 0x1 PUSH1 0x1 PUSH1 0x40 SHL SUB DUP2 GT ISZERO PUSH3 0x2BE JUMPI PUSH3 0x2BE PUSH3 0x202 JUMP JUMPDEST PUSH3 0x2D6 DUP2 PUSH3 0x2CF DUP5 SLOAD PUSH3 0x216 JUMP JUMPDEST DUP5 PUSH3 0x250 JUMP JUMPDEST PUSH1 0x20 DUP1 PUSH1 0x1F DUP4 GT PUSH1 0x1 DUP2 EQ PUSH3 0x30C JUMPI PUSH0 DUP5 ISZERO PUSH3 0x2F4 JUMPI POP DUP6 DUP4 ADD MLOAD JUMPDEST PUSH0 NOT PUSH1 0x3 DUP7 SWAP1 SHL SHR NOT AND PUSH1 0x1 DUP6 SWAP1 SHL OR DUP6 SSTORE PUSH3 0x299 JUMP JUMPDEST PUSH0 DUP6 DUP2 MSTORE PUSH1 0x20 DUP2 KECCAK256 PUSH1 0x1F NOT DUP7 AND SWAP2 JUMPDEST DUP3 DUP2 LT ISZERO PUSH3 0x33C JUMPI DUP9 DUP7 ADD MLOAD DUP3 SSTORE SWAP5 DUP5 ADD SWAP5 PUSH1 0x1 SWAP1 SWAP2 ADD SWAP1 DUP5 ADD PUSH3 0x31B JUMP JUMPDEST POP DUP6 DUP3 LT ISZERO PUSH3 0x35A JUMPI DUP8 DUP6 ADD MLOAD PUSH0 NOT PUSH1 0x3 DUP9 SWAP1 SHL PUSH1 0xF8 AND SHR NOT AND DUP2 SSTORE JUMPDEST POP POP POP POP POP PUSH1 0x1 SWAP1 DUP2 SHL ADD SWAP1 SSTORE POP JUMP JUMPDEST PUSH2 0x4824 DUP1 PUSH3 0x378 PUSH0 CODECOPY PUSH0 RETURN INVALID PUSH1 0x80 PUSH1 0x40 MSTORE PUSH1 0x4 CALLDATASIZE LT PUSH2 0x341 JUMPI PUSH0 CALLDATALOAD PUSH1 0xE0 SHR DUP1 PUSH4 0x5EEF0FE7 GT PUSH2 0x1BD JUMPI DUP1 PUSH4 0xAE89E98C GT PUSH2 0xF2 JUMPI DUP1 PUSH4 0xD547741F GT PUSH2 0x92 JUMPI DUP1 PUSH4 0xE985E9C5 GT PUSH2 0x6D JUMPI DUP1 PUSH4 0xE985E9C5 EQ PUSH2 0xBA1 JUMPI DUP1 PUSH4 0xF2FDE38B EQ PUSH2 0xBC0 JUMPI DUP1 PUSH4 0xF71E2DFF EQ PUSH2 0xBDF JUMPI DUP1 PUSH4 0xFC67AA50 EQ PUSH2 0xBF3 JUMPI PUSH0 DUP1 REVERT JUMPDEST DUP1 PUSH4 0xD547741F EQ PUSH2 0xB0E JUMPI DUP1 PUSH4 0xD55ADF1C EQ PUSH2 0xB2D JUMPI DUP1 PUSH4 0xE7661EF7 EQ PUSH2 0xB8D JUMPI PUSH0 DUP1 REVERT JUMPDEST DUP1 PUSH4 0xBE22D27D GT PUSH2 0xCD JUMPI DUP1 PUSH4 0xBE22D27D EQ PUSH2 0xA2D JUMPI DUP1 PUSH4 0xC87B56DD EQ PUSH2 0xA60 JUMPI DUP1 PUSH4 0xCE1CC2E8 EQ PUSH2 0xA7F JUMPI DUP1 PUSH4 0xD3213939 EQ PUSH2 0xA9E JUMPI PUSH0 DUP1 REVERT JUMPDEST DUP1 PUSH4 0xAE89E98C EQ PUSH2 0x9CC JUMPI DUP1 PUSH4 0xB00CF317 EQ PUSH2 0x9EB JUMPI DUP1 PUSH4 0xB88D4FDE EQ PUSH2 0xA0E JUMPI PUSH0 DUP1 REVERT JUMPDEST DUP1 PUSH4 0x8DA5CB5B GT PUSH2 0x15D JUMPI DUP1 PUSH4 0x95D89B41 GT PUSH2 0x138 JUMPI DUP1 PUSH4 0x95D89B41 EQ PUSH2 0x967 JUMPI DUP1 PUSH4 0xA217FDDF EQ PUSH2 0x97B JUMPI DUP1 PUSH4 0xA22CB465 EQ PUSH2 0x98E JUMPI DUP1 PUSH4 0xA828043E EQ PUSH2 0x9AD JUMPI PUSH0 DUP1 REVERT JUMPDEST DUP1 PUSH4 0x8DA5CB5B EQ PUSH2 0x8E0 JUMPI DUP1 PUSH4 0x8F272112 EQ PUSH2 0x8FD JUMPI DUP1 PUSH4 0x91D14854 EQ PUSH2 0x948 JUMPI PUSH0 DUP1 REVERT JUMPDEST DUP1 PUSH4 0x715018A6 GT PUSH2 0x198 JUMPI DUP1 PUSH4 0x715018A6 EQ PUSH2 0x883 JUMPI DUP1 PUSH4 0x75794A3C EQ PUSH2 0x897 JUMPI DUP1 PUSH4 0x76D15B08 EQ PUSH2 0x8B4 JUMPI DUP1 PUSH4 0x8C9D2E96 EQ PUSH2 0x8C7 JUMPI PUSH0 DUP1 REVERT JUMPDEST DUP1 PUSH4 0x5EEF0FE7 EQ PUSH2 0x813 JUMPI DUP1 PUSH4 0x6352211E EQ PUSH2 0x845 JUMPI DUP1 PUSH4 0x70A08231 EQ PUSH2 0x864 JUMPI PUSH0 DUP1 REVERT JUMPDEST DUP1 PUSH4 0x248A9CA3 GT PUSH2 0x293 JUMPI DUP1 PUSH4 0x3B771D54 GT PUSH2 0x233 JUMPI DUP1 PUSH4 0x4F6CCCE7 GT PUSH2 0x20E JUMPI DUP1 PUSH4 0x4F6CCCE7 EQ PUSH2 0x741 JUMPI DUP1 PUSH4 0x53768ABA EQ PUSH2 0x760 JUMPI DUP1 PUSH4 0x5852CC0C EQ PUSH2 0x77D JUMPI DUP1 PUSH4 0x5CDDBC7A EQ PUSH2 0x7E8 JUMPI PUSH0 DUP1 REVERT JUMPDEST DUP1 PUSH4 0x3B771D54 EQ PUSH2 0x6E4 JUMPI DUP1 PUSH4 0x42842E0E EQ PUSH2 0x703 JUMPI DUP1 PUSH4 0x49A8F2CB EQ PUSH2 0x722 JUMPI PUSH0 DUP1 REVERT JUMPDEST DUP1 PUSH4 0x2F745C59 GT PUSH2 0x26E JUMPI DUP1 PUSH4 0x2F745C59 EQ PUSH2 0x649 JUMPI DUP1 PUSH4 0x3309B2D7 EQ PUSH2 0x668 JUMPI DUP1 PUSH4 0x34030BCC EQ PUSH2 0x693 JUMPI DUP1 PUSH4 0x36568ABE EQ PUSH2 0x6C5 JUMPI PUSH0 DUP1 REVERT JUMPDEST DUP1 PUSH4 0x248A9CA3 EQ PUSH2 0x5DD JUMPI DUP1 PUSH4 0x2CFD3005 EQ PUSH2 0x60B JUMPI DUP1 PUSH4 0x2F2FF15D EQ PUSH2 0x62A JUMPI PUSH0 DUP1 REVERT JUMPDEST DUP1 PUSH4 0x13556B82 GT PUSH2 0x2FE JUMPI DUP1 PUSH4 0x1A1B8AE8 GT PUSH2 0x2D9 JUMPI DUP1 PUSH4 0x1A1B8AE8 EQ PUSH2 0x4E8 JUMPI DUP1 PUSH4 0x1B8826A2 EQ PUSH2 0x514 JUMPI DUP1 PUSH4 0x233C1CC7 EQ PUSH2 0x549 JUMPI DUP1 PUSH4 0x23B872DD EQ PUSH2 0x5BE JUMPI PUSH0 DUP1 REVERT JUMPDEST DUP1 PUSH4 0x13556B82 EQ PUSH2 0x437 JUMPI DUP1 PUSH4 0x17282D5C EQ PUSH2 0x493 JUMPI DUP1 PUSH4 0x18160DDD EQ PUSH2 0x4D4 JUMPI PUSH0 DUP1 REVERT JUMPDEST DUP1 PUSH4 0x1FFC9A7 EQ PUSH2 0x345 JUMPI DUP1 PUSH4 0x5EF7797 EQ PUSH2 0x379 JUMPI DUP1 PUSH4 0x6FDDE03 EQ PUSH2 0x39F JUMPI DUP1 PUSH4 0x81812FC EQ PUSH2 0x3C0 JUMPI DUP1 PUSH4 0x95EA7B3 EQ PUSH2 0x3F7 JUMPI DUP1 PUSH4 0xE8876BF EQ PUSH2 0x418 JUMPI JUMPDEST PUSH0 DUP1 REVERT JUMPDEST CALLVALUE DUP1 ISZERO PUSH2 0x350 JUMPI PUSH0 DUP1 REVERT JUMPDEST POP PUSH2 0x364 PUSH2 0x35F CALLDATASIZE PUSH1 0x4 PUSH2 0x2F2B JUMP JUMPDEST PUSH2 0xC10 JUMP JUMPDEST PUSH1 0x40 MLOAD SWAP1 ISZERO ISZERO DUP2 MSTORE PUSH1 0x20 ADD JUMPDEST PUSH1 0x40 MLOAD DUP1 SWAP2 SUB SWAP1 RETURN JUMPDEST CALLVALUE DUP1 ISZERO PUSH2 0x384 JUMPI PUSH0 DUP1 REVERT JUMPDEST POP PUSH2 0x38D PUSH1 0x40 DUP2 JUMP JUMPDEST PUSH1 0x40 MLOAD PUSH1 0xFF SWAP1 SWAP2 AND DUP2 MSTORE PUSH1 0x20 ADD PUSH2 0x370 JUMP JUMPDEST CALLVALUE DUP1 ISZERO PUSH2 0x3AA JUMPI PUSH0 DUP1 REVERT JUMPDEST POP PUSH2 0x3B3 PUSH2 0xC20 JUMP JUMPDEST PUSH1 0x40 MLOAD PUSH2 0x370 SWAP2 SWAP1 PUSH2 0x2F90 JUMP JUMPDEST CALLVALUE DUP1 ISZERO PUSH2 0x3CB JUMPI PUSH0 DUP1 REVERT JUMPDEST POP PUSH2 0x3DF PUSH2 0x3DA CALLDATASIZE PUSH1 0x4 PUSH2 0x2FA2 JUMP JUMPDEST PUSH2 0xCAF JUMP JUMPDEST PUSH1 0x40 MLOAD PUSH1 0x1 PUSH1 0x1 PUSH1 0xA0 SHL SUB SWAP1 SWAP2 AND DUP2 MSTORE PUSH1 0x20 ADD PUSH2 0x370 JUMP JUMPDEST CALLVALUE DUP1 ISZERO PUSH2 0x402 JUMPI PUSH0 DUP1 REVERT JUMPDEST POP PUSH2 0x416 PUSH2 0x411 CALLDATASIZE PUSH1 0x4 PUSH2 0x2FD4 JUMP JUMPDEST PUSH2 0xCD6 JUMP JUMPDEST STOP JUMPDEST CALLVALUE DUP1 ISZERO PUSH2 0x423 JUMPI PUSH0 DUP1 REVERT JUMPDEST POP PUSH2 0x416 PUSH2 0x432 CALLDATASIZE PUSH1 0x4 PUSH2 0x3010 JUMP JUMPDEST PUSH2 0xCE5 JUMP JUMPDEST CALLVALUE DUP1 ISZERO PUSH2 0x442 JUMPI PUSH0 DUP1 REVERT JUMPDEST POP PUSH2 0x475 PUSH2 0x451 CALLDATASIZE PUSH1 0x4 PUSH2 0x3010 JUMP JUMPDEST PUSH1 0x18 PUSH1 0x20 MSTORE PUSH0 SWAP1 DUP2 MSTORE PUSH1 0x40 SWAP1 KECCAK256 SLOAD PUSH4 0xFFFFFFFF DUP2 AND SWAP1 PUSH5 0x100000000 SWAP1 DIV PUSH1 0xFF AND DUP3 JUMP JUMPDEST PUSH1 0x40 DUP1 MLOAD PUSH4 0xFFFFFFFF SWAP1 SWAP4 AND DUP4 MSTORE PUSH1 0xFF SWAP1 SWAP2 AND PUSH1 0x20 DUP4 ADD MSTORE ADD PUSH2 0x370 JUMP JUMPDEST CALLVALUE DUP1 ISZERO PUSH2 0x49E JUMPI PUSH0 DUP1 REVERT JUMPDEST POP PUSH2 0x4C6 PUSH32 0x828A9190DC16DC0116154C184677DAC8ABEBC0B3AEEBA46F3BA5F89B8E414398 DUP2 JUMP JUMPDEST PUSH1 0x40 MLOAD SWAP1 DUP2 MSTORE PUSH1 0x20 ADD PUSH2 0x370 JUMP JUMPDEST CALLVALUE DUP1 ISZERO PUSH2 0x4DF JUMPI PUSH0 DUP1 REVERT JUMPDEST POP PUSH1 0x8 SLOAD PUSH2 0x4C6 JUMP JUMPDEST CALLVALUE DUP1 ISZERO PUSH2 0x4F3 JUMPI PUSH0 DUP1 REVERT JUMPDEST POP PUSH2 0x507 PUSH2 0x502 CALLDATASIZE PUSH1 0x4 PUSH2 0x3029 JUMP JUMPDEST PUSH2 0x1014 JUMP JUMPDEST PUSH1 0x40 MLOAD PUSH2 0x370 SWAP2 SWAP1 PUSH2 0x305A JUMP JUMPDEST CALLVALUE DUP1 ISZERO PUSH2 0x51F JUMPI PUSH0 DUP1 REVERT JUMPDEST POP PUSH2 0x533 PUSH2 0x52E CALLDATASIZE PUSH1 0x4 PUSH2 0x3029 JUMP JUMPDEST PUSH2 0x115C JUMP JUMPDEST PUSH1 0x40 MLOAD PUSH5 0xFFFFFFFFFF SWAP1 SWAP2 AND DUP2 MSTORE PUSH1 0x20 ADD PUSH2 0x370 JUMP JUMPDEST CALLVALUE DUP1 ISZERO PUSH2 0x554 JUMPI PUSH0 DUP1 REVERT JUMPDEST POP PUSH2 0x5AD PUSH2 0x563 CALLDATASIZE PUSH1 0x4 PUSH2 0x3010 JUMP JUMPDEST PUSH1 0x14 PUSH1 0x20 MSTORE PUSH0 SWAP1 DUP2 MSTORE PUSH1 0x40 SWAP1 KECCAK256 DUP1 SLOAD PUSH1 0x1 SWAP1 SWAP2 ADD SLOAD PUSH5 0xFFFFFFFFFF DUP1 DUP4 AND SWAP3 PUSH1 0x1 PUSH1 0x28 SHL DUP2 DIV DUP3 AND SWAP3 PUSH1 0x1 PUSH1 0x50 SHL DUP3 DIV PUSH1 0xFF AND SWAP3 PUSH1 0x1 PUSH1 0x58 SHL SWAP1 SWAP3 DIV PUSH1 0x1 PUSH1 0x1 PUSH1 0xA0 SHL SUB AND SWAP2 AND DUP6 JUMP JUMPDEST PUSH1 0x40 MLOAD PUSH2 0x370 SWAP6 SWAP5 SWAP4 SWAP3 SWAP2 SWAP1 PUSH2 0x30D1 JUMP JUMPDEST CALLVALUE DUP1 ISZERO PUSH2 0x5C9 JUMPI PUSH0 DUP1 REVERT JUMPDEST POP PUSH2 0x416 PUSH2 0x5D8 CALLDATASIZE PUSH1 0x4 PUSH2 0x312F JUMP JUMPDEST PUSH2 0x13A8 JUMP JUMPDEST CALLVALUE DUP1 ISZERO PUSH2 0x5E8 JUMPI PUSH0 DUP1 REVERT JUMPDEST POP PUSH2 0x4C6 PUSH2 0x5F7 CALLDATASIZE PUSH1 0x4 PUSH2 0x2FA2 JUMP JUMPDEST PUSH0 SWAP1 DUP2 MSTORE PUSH1 0xB PUSH1 0x20 MSTORE PUSH1 0x40 SWAP1 KECCAK256 PUSH1 0x1 ADD SLOAD SWAP1 JUMP JUMPDEST CALLVALUE DUP1 ISZERO PUSH2 0x616 JUMPI PUSH0 DUP1 REVERT JUMPDEST POP PUSH2 0x416 PUSH2 0x625 CALLDATASIZE PUSH1 0x4 PUSH2 0x2FD4 JUMP JUMPDEST PUSH2 0x1431 JUMP JUMPDEST CALLVALUE DUP1 ISZERO PUSH2 0x635 JUMPI PUSH0 DUP1 REVERT JUMPDEST POP PUSH2 0x416 PUSH2 0x644 CALLDATASIZE PUSH1 0x4 PUSH2 0x3168 JUMP JUMPDEST PUSH2 0x15CE JUMP JUMPDEST CALLVALUE DUP1 ISZERO PUSH2 0x654 JUMPI PUSH0 DUP1 REVERT JUMPDEST POP PUSH2 0x4C6 PUSH2 0x663 CALLDATASIZE PUSH1 0x4 PUSH2 0x2FD4 JUMP JUMPDEST PUSH2 0x15F2 JUMP JUMPDEST CALLVALUE DUP1 ISZERO PUSH2 0x673 JUMPI PUSH0 DUP1 REVERT JUMPDEST POP PUSH2 0x4C6 PUSH2 0x682 CALLDATASIZE PUSH1 0x4 PUSH2 0x2FA2 JUMP JUMPDEST PUSH1 0xF PUSH1 0x20 MSTORE PUSH0 SWAP1 DUP2 MSTORE PUSH1 0x40 SWAP1 KECCAK256 SLOAD DUP2 JUMP JUMPDEST CALLVALUE DUP1 ISZERO PUSH2 0x69E JUMPI PUSH0 DUP1 REVERT JUMPDEST POP PUSH2 0x533 PUSH2 0x6AD CALLDATASIZE PUSH1 0x4 PUSH2 0x3010 JUMP JUMPDEST PUSH1 0x16 PUSH1 0x20 MSTORE PUSH0 SWAP1 DUP2 MSTORE PUSH1 0x40 SWAP1 KECCAK256 SLOAD PUSH5 0xFFFFFFFFFF AND DUP2 JUMP JUMPDEST CALLVALUE DUP1 ISZERO PUSH2 0x6D0 JUMPI PUSH0 DUP1 REVERT JUMPDEST POP PUSH2 0x416 PUSH2 0x6DF CALLDATASIZE PUSH1 0x4 PUSH2 0x3168 JUMP JUMPDEST PUSH2 0x1655 JUMP JUMPDEST CALLVALUE DUP1 ISZERO PUSH2 0x6EF JUMPI PUSH0 DUP1 REVERT JUMPDEST POP PUSH2 0x416 PUSH2 0x6FE CALLDATASIZE PUSH1 0x4 PUSH2 0x3029 JUMP JUMPDEST PUSH2 0x168D JUMP JUMPDEST CALLVALUE DUP1 ISZERO PUSH2 0x70E JUMPI PUSH0 DUP1 REVERT JUMPDEST POP PUSH2 0x416 PUSH2 0x71D CALLDATASIZE PUSH1 0x4 PUSH2 0x312F JUMP JUMPDEST PUSH2 0x18A3 JUMP JUMPDEST CALLVALUE DUP1 ISZERO PUSH2 0x72D JUMPI PUSH0 DUP1 REVERT JUMPDEST POP PUSH2 0x416 PUSH2 0x73C CALLDATASIZE PUSH1 0x4 PUSH2 0x3029 JUMP JUMPDEST PUSH2 0x18BD JUMP JUMPDEST CALLVALUE DUP1 ISZERO PUSH2 0x74C JUMPI PUSH0 DUP1 REVERT JUMPDEST POP PUSH2 0x4C6 PUSH2 0x75B CALLDATASIZE PUSH1 0x4 PUSH2 0x2FA2 JUMP JUMPDEST PUSH2 0x1962 JUMP JUMPDEST CALLVALUE DUP1 ISZERO PUSH2 0x76B JUMPI PUSH0 DUP1 REVERT JUMPDEST POP PUSH1 0x13 SLOAD PUSH2 0x533 SWAP1 PUSH5 0xFFFFFFFFFF AND DUP2 JUMP JUMPDEST CALLVALUE DUP1 ISZERO PUSH2 0x788 JUMPI PUSH0 DUP1 REVERT JUMPDEST POP PUSH2 0x7C0 PUSH2 0x797 CALLDATASIZE PUSH1 0x4 PUSH2 0x2FA2 JUMP JUMPDEST PUSH1 0xC PUSH1 0x20 MSTORE PUSH0 SWAP1 DUP2 MSTORE PUSH1 0x40 SWAP1 KECCAK256 DUP1 SLOAD PUSH1 0x1 DUP3 ADD SLOAD PUSH1 0x2 SWAP1 SWAP3 ADD SLOAD PUSH5 0xFFFFFFFFFF SWAP2 DUP3 AND SWAP3 SWAP2 AND DUP4 JUMP JUMPDEST PUSH1 0x40 DUP1 MLOAD PUSH5 0xFFFFFFFFFF SWAP5 DUP6 AND DUP2 MSTORE PUSH1 0x20 DUP2 ADD SWAP4 SWAP1 SWAP4 MSTORE SWAP3 AND SWAP2 DUP2 ADD SWAP2 SWAP1 SWAP2 MSTORE PUSH1 0x60 ADD PUSH2 0x370 JUMP JUMPDEST CALLVALUE DUP1 ISZERO PUSH2 0x7F3 JUMPI PUSH0 DUP1 REVERT JUMPDEST POP PUSH2 0x4C6 PUSH2 0x802 CALLDATASIZE PUSH1 0x4 PUSH2 0x2FA2 JUMP JUMPDEST PUSH1 0x10 PUSH1 0x20 MSTORE PUSH0 SWAP1 DUP2 MSTORE PUSH1 0x40 SWAP1 KECCAK256 SLOAD DUP2 JUMP JUMPDEST CALLVALUE DUP1 ISZERO PUSH2 0x81E JUMPI PUSH0 DUP1 REVERT JUMPDEST POP PUSH2 0x533 PUSH2 0x82D CALLDATASIZE PUSH1 0x4 PUSH2 0x3010 JUMP JUMPDEST PUSH1 0x11 PUSH1 0x20 MSTORE PUSH0 SWAP1 DUP2 MSTORE PUSH1 0x40 SWAP1 KECCAK256 SLOAD PUSH5 0xFFFFFFFFFF AND DUP2 JUMP JUMPDEST CALLVALUE DUP1 ISZERO PUSH2 0x850 JUMPI PUSH0 DUP1 REVERT JUMPDEST POP PUSH2 0x3DF PUSH2 0x85F CALLDATASIZE PUSH1 0x4 PUSH2 0x2FA2 JUMP JUMPDEST PUSH2 0x19B7 JUMP JUMPDEST CALLVALUE DUP1 ISZERO PUSH2 0x86F JUMPI PUSH0 DUP1 REVERT JUMPDEST POP PUSH2 0x4C6 PUSH2 0x87E CALLDATASIZE PUSH1 0x4 PUSH2 0x3189 JUMP JUMPDEST PUSH2 0x19C1 JUMP JUMPDEST CALLVALUE DUP1 ISZERO PUSH2 0x88E JUMPI PUSH0 DUP1 REVERT JUMPDEST POP PUSH2 0x416 PUSH2 0x1A06 JUMP JUMPDEST CALLVALUE DUP1 ISZERO PUSH2 0x8A2 JUMPI PUSH0 DUP1 REVERT JUMPDEST POP PUSH1 0xD SLOAD PUSH2 0x533 SWAP1 PUSH5 0xFFFFFFFFFF AND DUP2 JUMP JUMPDEST PUSH2 0x416 PUSH2 0x8C2 CALLDATASIZE PUSH1 0x4 PUSH2 0x31A2 JUMP JUMPDEST PUSH2 0x1A19 JUMP JUMPDEST CALLVALUE DUP1 ISZERO PUSH2 0x8D2 JUMPI PUSH0 DUP1 REVERT JUMPDEST POP PUSH2 0x4C6 PUSH6 0x9184E72A000 DUP2 JUMP JUMPDEST CALLVALUE DUP1 ISZERO PUSH2 0x8EB JUMPI PUSH0 DUP1 REVERT JUMPDEST POP PUSH1 0xA SLOAD PUSH1 0x1 PUSH1 0x1 PUSH1 0xA0 SHL SUB AND PUSH2 0x3DF JUMP JUMPDEST CALLVALUE DUP1 ISZERO PUSH2 0x908 JUMPI PUSH0 DUP1 REVERT JUMPDEST POP PUSH2 0x91C PUSH2 0x917 CALLDATASIZE PUSH1 0x4 PUSH2 0x321E JUMP JUMPDEST PUSH2 0x1C65 JUMP JUMPDEST PUSH1 0x40 DUP1 MLOAD PUSH1 0x1 PUSH1 0x1 PUSH1 0xA0 SHL SUB SWAP1 SWAP5 AND DUP5 MSTORE PUSH1 0x20 DUP5 ADD SWAP3 SWAP1 SWAP3 MSTORE PUSH5 0xFFFFFFFFFF AND SWAP1 DUP3 ADD MSTORE PUSH1 0x60 ADD PUSH2 0x370 JUMP JUMPDEST CALLVALUE DUP1 ISZERO PUSH2 0x953 JUMPI PUSH0 DUP1 REVERT JUMPDEST POP PUSH2 0x364 PUSH2 0x962 CALLDATASIZE PUSH1 0x4 PUSH2 0x3168 JUMP JUMPDEST PUSH2 0x1CB4 JUMP JUMPDEST CALLVALUE DUP1 ISZERO PUSH2 0x972 JUMPI PUSH0 DUP1 REVERT JUMPDEST POP PUSH2 0x3B3 PUSH2 0x1CDE JUMP JUMPDEST CALLVALUE DUP1 ISZERO PUSH2 0x986 JUMPI PUSH0 DUP1 REVERT JUMPDEST POP PUSH2 0x4C6 PUSH0 DUP2 JUMP JUMPDEST CALLVALUE DUP1 ISZERO PUSH2 0x999 JUMPI PUSH0 DUP1 REVERT JUMPDEST POP PUSH2 0x416 PUSH2 0x9A8 CALLDATASIZE PUSH1 0x4 PUSH2 0x323E JUMP JUMPDEST PUSH2 0x1CED JUMP JUMPDEST CALLVALUE DUP1 ISZERO PUSH2 0x9B8 JUMPI PUSH0 DUP1 REVERT JUMPDEST POP PUSH2 0x416 PUSH2 0x9C7 CALLDATASIZE PUSH1 0x4 PUSH2 0x3029 JUMP JUMPDEST PUSH2 0x1CF8 JUMP JUMPDEST CALLVALUE DUP1 ISZERO PUSH2 0x9D7 JUMPI PUSH0 DUP1 REVERT JUMPDEST POP PUSH2 0x416 PUSH2 0x9E6 CALLDATASIZE PUSH1 0x4 PUSH2 0x3029 JUMP JUMPDEST PUSH2 0x1E5C JUMP JUMPDEST CALLVALUE DUP1 ISZERO PUSH2 0x9F6 JUMPI PUSH0 DUP1 REVERT JUMPDEST POP PUSH2 0x9FF PUSH2 0x1F8C JUMP JUMPDEST PUSH1 0x40 MLOAD PUSH2 0x370 SWAP4 SWAP3 SWAP2 SWAP1 PUSH2 0x3277 JUMP JUMPDEST CALLVALUE DUP1 ISZERO PUSH2 0xA19 JUMPI PUSH0 DUP1 REVERT JUMPDEST POP PUSH2 0x416 PUSH2 0xA28 CALLDATASIZE PUSH1 0x4 PUSH2 0x32CD JUMP JUMPDEST PUSH2 0x1FF0 JUMP JUMPDEST CALLVALUE DUP1 ISZERO PUSH2 0xA38 JUMPI PUSH0 DUP1 REVERT JUMPDEST POP PUSH2 0x4C6 PUSH32 0x9B7946ABD96DCCBE6CFC6CC2C13300AB429D93E16FA72DC459EECCDA73817F08 DUP2 JUMP JUMPDEST CALLVALUE DUP1 ISZERO PUSH2 0xA6B JUMPI PUSH0 DUP1 REVERT JUMPDEST POP PUSH2 0x3B3 PUSH2 0xA7A CALLDATASIZE PUSH1 0x4 PUSH2 0x2FA2 JUMP JUMPDEST PUSH2 0x2008 JUMP JUMPDEST CALLVALUE DUP1 ISZERO PUSH2 0xA8A JUMPI PUSH0 DUP1 REVERT JUMPDEST POP PUSH2 0x533 PUSH2 0xA99 CALLDATASIZE PUSH1 0x4 PUSH2 0x33A2 JUMP JUMPDEST PUSH2 0x202C JUMP JUMPDEST CALLVALUE DUP1 ISZERO PUSH2 0xAA9 JUMPI PUSH0 DUP1 REVERT JUMPDEST POP PUSH2 0xAE6 PUSH2 0xAB8 CALLDATASIZE PUSH1 0x4 PUSH2 0x3010 JUMP JUMPDEST PUSH1 0x17 PUSH1 0x20 MSTORE PUSH0 SWAP1 DUP2 MSTORE PUSH1 0x40 SWAP1 KECCAK256 SLOAD PUSH5 0xFFFFFFFFFF DUP1 DUP3 AND SWAP2 PUSH1 0x1 PUSH1 0x28 SHL DUP2 DIV DUP3 AND SWAP2 PUSH1 0x1 PUSH1 0x50 SHL SWAP1 SWAP2 DIV AND DUP4 JUMP JUMPDEST PUSH1 0x40 DUP1 MLOAD PUSH5 0xFFFFFFFFFF SWAP5 DUP6 AND DUP2 MSTORE SWAP3 DUP5 AND PUSH1 0x20 DUP5 ADD MSTORE SWAP3 AND SWAP2 DUP2 ADD SWAP2 SWAP1 SWAP2 MSTORE PUSH1 0x60 ADD PUSH2 0x370 JUMP JUMPDEST CALLVALUE DUP1 ISZERO PUSH2 0xB19 JUMPI PUSH0 DUP1 REVERT JUMPDEST POP PUSH2 0x416 PUSH2 0xB28 CALLDATASIZE PUSH1 0x4 PUSH2 0x3168 JUMP JUMPDEST PUSH2 0x22A0 JUMP JUMPDEST CALLVALUE DUP1 ISZERO PUSH2 0xB38 JUMPI PUSH0 DUP1 REVERT JUMPDEST POP PUSH2 0xB6E PUSH2 0xB47 CALLDATASIZE PUSH1 0x4 PUSH2 0x3010 JUMP JUMPDEST PUSH1 0x12 PUSH1 0x20 MSTORE PUSH0 SWAP1 DUP2 MSTORE PUSH1 0x40 SWAP1 KECCAK256 PUSH1 0x1 ADD SLOAD PUSH1 0xFF DUP2 AND SWAP1 PUSH2 0x100 SWAP1 DIV PUSH1 0x1 PUSH1 0x1 PUSH1 0xA0 SHL SUB AND DUP3 JUMP JUMPDEST PUSH1 0x40 DUP1 MLOAD SWAP3 ISZERO ISZERO DUP4 MSTORE PUSH1 0x1 PUSH1 0x1 PUSH1 0xA0 SHL SUB SWAP1 SWAP2 AND PUSH1 0x20 DUP4 ADD MSTORE ADD PUSH2 0x370 JUMP JUMPDEST CALLVALUE DUP1 ISZERO PUSH2 0xB98 JUMPI PUSH0 DUP1 REVERT JUMPDEST POP PUSH2 0x533 PUSH1 0xA DUP2 JUMP JUMPDEST CALLVALUE DUP1 ISZERO PUSH2 0xBAC JUMPI PUSH0 DUP1 REVERT JUMPDEST POP PUSH2 0x364 PUSH2 0xBBB CALLDATASIZE PUSH1 0x4 PUSH2 0x3411 JUMP JUMPDEST PUSH2 0x22C4 JUMP JUMPDEST CALLVALUE DUP1 ISZERO PUSH2 0xBCB JUMPI PUSH0 DUP1 REVERT JUMPDEST POP PUSH2 0x416 PUSH2 0xBDA CALLDATASIZE PUSH1 0x4 PUSH2 0x3189 JUMP JUMPDEST PUSH2 0x22F1 JUMP JUMPDEST CALLVALUE DUP1 ISZERO PUSH2 0xBEA JUMPI PUSH0 DUP1 REVERT JUMPDEST POP PUSH2 0x4C6 PUSH1 0xA DUP2 JUMP JUMPDEST CALLVALUE DUP1 ISZERO PUSH2 0xBFE JUMPI PUSH0 DUP1 REVERT JUMPDEST POP PUSH1 0x15 SLOAD PUSH2 0x533 SWAP1 PUSH5 0xFFFFFFFFFF AND DUP2 JUMP JUMPDEST PUSH0 PUSH2 0xC1A DUP3 PUSH2 0x232E JUMP JUMPDEST SWAP3 SWAP2 POP POP JUMP JUMPDEST PUSH1 0x60 PUSH0 DUP1 SLOAD PUSH2 0xC2E SWAP1 PUSH2 0x3439 JUMP JUMPDEST DUP1 PUSH1 0x1F ADD PUSH1 0x20 DUP1 SWAP2 DIV MUL PUSH1 0x20 ADD PUSH1 0x40 MLOAD SWAP1 DUP2 ADD PUSH1 0x40 MSTORE DUP1 SWAP3 SWAP2 SWAP1 DUP2 DUP2 MSTORE PUSH1 0x20 ADD DUP3 DUP1 SLOAD PUSH2 0xC5A SWAP1 PUSH2 0x3439 JUMP JUMPDEST DUP1 ISZERO PUSH2 0xCA5 JUMPI DUP1 PUSH1 0x1F LT PUSH2 0xC7C JUMPI PUSH2 0x100 DUP1 DUP4 SLOAD DIV MUL DUP4 MSTORE SWAP2 PUSH1 0x20 ADD SWAP2 PUSH2 0xCA5 JUMP JUMPDEST DUP3 ADD SWAP2 SWAP1 PUSH0 MSTORE PUSH1 0x20 PUSH0 KECCAK256 SWAP1 JUMPDEST DUP2 SLOAD DUP2 MSTORE SWAP1 PUSH1 0x1 ADD SWAP1 PUSH1 0x20 ADD DUP1 DUP4 GT PUSH2 0xC88 JUMPI DUP3 SWAP1 SUB PUSH1 0x1F AND DUP3 ADD SWAP2 JUMPDEST POP POP POP POP POP SWAP1 POP SWAP1 JUMP JUMPDEST PUSH0 PUSH2 0xCB9 DUP3 PUSH2 0x2352 JUMP JUMPDEST POP PUSH0 DUP3 DUP2 MSTORE PUSH1 0x4 PUSH1 0x20 MSTORE PUSH1 0x40 SWAP1 KECCAK256 SLOAD PUSH1 0x1 PUSH1 0x1 PUSH1 0xA0 SHL SUB AND PUSH2 0xC1A JUMP JUMPDEST PUSH2 0xCE1 DUP3 DUP3 CALLER PUSH2 0x238A JUMP JUMPDEST POP POP JUMP JUMPDEST PUSH5 0xFFFFFFFFFF DUP2 AND PUSH0 SWAP1 DUP2 MSTORE PUSH1 0x14 PUSH1 0x20 MSTORE PUSH1 0x40 SWAP1 KECCAK256 PUSH1 0x1 DUP2 SLOAD PUSH1 0x1 PUSH1 0x50 SHL SWAP1 DIV PUSH1 0xFF AND PUSH1 0x3 DUP2 GT ISZERO PUSH2 0xD19 JUMPI PUSH2 0xD19 PUSH2 0x30BD JUMP JUMPDEST EQ PUSH2 0xD59 JUMPI PUSH1 0x40 MLOAD PUSH3 0x461BCD PUSH1 0xE5 SHL DUP2 MSTORE PUSH1 0x20 PUSH1 0x4 DUP3 ADD MSTORE PUSH1 0xB PUSH1 0x24 DUP3 ADD MSTORE PUSH11 0x4E6F742070656E64696E67 PUSH1 0xA8 SHL PUSH1 0x44 DUP3 ADD MSTORE PUSH1 0x64 ADD JUMPDEST PUSH1 0x40 MLOAD DUP1 SWAP2 SUB SWAP1 REVERT JUMPDEST DUP1 SLOAD CALLER SWAP1 PUSH2 0xD74 SWAP1 PUSH1 0x1 PUSH1 0x28 SHL SWAP1 DIV PUSH5 0xFFFFFFFFFF AND PUSH2 0x19B7 JUMP JUMPDEST PUSH1 0x1 PUSH1 0x1 PUSH1 0xA0 SHL SUB AND EQ PUSH2 0xDBF JUMPI PUSH1 0x40 MLOAD PUSH3 0x461BCD PUSH1 0xE5 SHL DUP2 MSTORE PUSH1 0x20 PUSH1 0x4 DUP3 ADD MSTORE PUSH1 0x12 PUSH1 0x24 DUP3 ADD MSTORE PUSH18 0x2737BA1037B83837B732B73A1037BBB732B9 PUSH1 0x71 SHL PUSH1 0x44 DUP3 ADD MSTORE PUSH1 0x64 ADD PUSH2 0xD50 JUMP JUMPDEST DUP1 SLOAD PUSH1 0xFF PUSH1 0x50 SHL NOT AND PUSH1 0x1 PUSH1 0x51 SHL OR DUP2 SSTORE PUSH0 PUSH2 0xDDC PUSH1 0x1 NUMBER PUSH2 0x3485 JUMP JUMPDEST DUP3 SLOAD PUSH1 0x40 DUP1 MLOAD SWAP3 BLOCKHASH PUSH1 0x20 DUP5 ADD MSTORE PUSH1 0x1 PUSH1 0x1 PUSH1 0xD8 SHL SUB NOT PUSH1 0xD8 DUP4 DUP2 SHL DUP3 AND SWAP3 DUP6 ADD SWAP3 SWAP1 SWAP3 MSTORE PUSH1 0x1 PUSH1 0x28 SHL SWAP1 SWAP3 DIV SWAP1 SHL AND PUSH1 0x45 DUP3 ADD MSTORE TIMESTAMP PUSH1 0x4A DUP3 ADD MSTORE PUSH1 0x6A ADD PUSH1 0x40 DUP1 MLOAD PUSH1 0x1F NOT DUP2 DUP5 SUB ADD DUP2 MSTORE SWAP2 SWAP1 MSTORE DUP1 MLOAD PUSH1 0x20 SWAP1 SWAP2 ADD KECCAK256 SWAP1 POP PUSH0 PUSH2 0xE3F PUSH1 0x2 DUP4 PUSH2 0x3498 JUMP JUMPDEST ISZERO PUSH2 0xE62 JUMPI DUP3 SLOAD PUSH2 0xE5D SWAP1 PUSH1 0x1 PUSH1 0x28 SHL SWAP1 DIV PUSH5 0xFFFFFFFFFF AND PUSH2 0x19B7 JUMP JUMPDEST PUSH2 0xE74 JUMP JUMPDEST DUP3 SLOAD PUSH2 0xE74 SWAP1 PUSH5 0xFFFFFFFFFF AND PUSH2 0x19B7 JUMP JUMPDEST DUP4 SLOAD PUSH32 0xFF000000000000000000000000000000000000000000FFFFFFFFFFFFFFFFFFFF AND PUSH1 0x1 PUSH1 0x58 SHL PUSH1 0x1 PUSH1 0x1 PUSH1 0xA0 SHL SUB DUP4 AND MUL PUSH1 0xFF PUSH1 0x50 SHL NOT AND OR PUSH1 0x3 PUSH1 0x50 SHL OR DUP5 SSTORE SWAP1 POP PUSH0 PUSH2 0xEC6 PUSH1 0x2 DUP5 PUSH2 0x3498 JUMP JUMPDEST ISZERO PUSH2 0xEE0 JUMPI DUP4 SLOAD PUSH1 0x1 PUSH1 0x28 SHL SWAP1 DIV PUSH5 0xFFFFFFFFFF AND PUSH2 0xEEA JUMP JUMPDEST DUP4 SLOAD PUSH5 0xFFFFFFFFFF AND JUMPDEST PUSH5 0xFFFFFFFFFF DUP2 AND PUSH0 SWAP1 DUP2 MSTORE PUSH1 0x18 PUSH1 0x20 MSTORE PUSH1 0x40 DUP2 KECCAK256 DUP1 SLOAD SWAP3 SWAP4 POP PUSH1 0x64 SWAP3 SWAP1 SWAP2 SWAP1 PUSH2 0xF1B SWAP1 DUP5 SWAP1 PUSH4 0xFFFFFFFF AND PUSH2 0x34B7 JUMP JUMPDEST DUP3 SLOAD PUSH2 0x100 SWAP3 SWAP1 SWAP3 EXP PUSH4 0xFFFFFFFF DUP2 DUP2 MUL NOT SWAP1 SWAP4 AND SWAP2 DUP4 AND MUL OR SWAP1 SWAP2 SSTORE PUSH5 0xFFFFFFFFFF DUP4 AND PUSH0 SWAP1 DUP2 MSTORE PUSH1 0x18 PUSH1 0x20 MSTORE PUSH1 0x40 DUP2 KECCAK256 SLOAD SWAP1 SWAP3 POP PUSH2 0xF5B SWAP2 AND PUSH2 0x2397 JUMP JUMPDEST PUSH5 0xFFFFFFFFFF DUP4 DUP2 AND PUSH0 SWAP1 DUP2 MSTORE PUSH1 0x18 PUSH1 0x20 SWAP1 DUP2 MSTORE PUSH1 0x40 SWAP2 DUP3 SWAP1 KECCAK256 DUP1 SLOAD PUSH5 0xFF00000000 NOT AND PUSH5 0x100000000 PUSH1 0xFF DUP8 AND MUL OR SWAP1 SSTORE SWAP1 MLOAD PUSH1 0x1 PUSH1 0x1 PUSH1 0xA0 SHL SUB DUP8 AND DUP2 MSTORE SWAP3 SWAP4 POP SWAP1 DUP9 AND SWAP2 PUSH32 0x63D7EEFF29328AB4CACDDD0D9242A7BE8B1BF3C5F5B7E22F6BF88255FE564CC2 SWAP2 ADD PUSH1 0x40 MLOAD DUP1 SWAP2 SUB SWAP1 LOG2 PUSH1 0x40 MLOAD PUSH1 0xFF DUP3 AND DUP2 MSTORE PUSH5 0xFFFFFFFFFF DUP4 AND SWAP1 PUSH32 0xDDEC92DA7CC59A7428F9A8CC1A1E125A910CA18941C46D002D023F6F8BB97A16 SWAP1 PUSH1 0x20 ADD PUSH1 0x40 MLOAD DUP1 SWAP2 SUB SWAP1 LOG2 POP POP POP POP POP POP JUMP JUMPDEST PUSH1 0x60 PUSH0 DUP3 PUSH5 0xFFFFFFFFFF AND PUSH8 0xFFFFFFFFFFFFFFFF DUP2 GT ISZERO PUSH2 0x1037 JUMPI PUSH2 0x1037 PUSH2 0x32B9 JUMP JUMPDEST PUSH1 0x40 MLOAD SWAP1 DUP1 DUP3 MSTORE DUP1 PUSH1 0x20 MUL PUSH1 0x20 ADD DUP3 ADD PUSH1 0x40 MSTORE DUP1 ISZERO PUSH2 0x1080 JUMPI DUP2 PUSH1 0x20 ADD JUMPDEST PUSH1 0x40 DUP1 MLOAD PUSH1 0x60 DUP2 ADD DUP3 MSTORE PUSH0 DUP1 DUP3 MSTORE PUSH1 0x20 DUP1 DUP4 ADD DUP3 SWAP1 MSTORE SWAP3 DUP3 ADD MSTORE DUP3 MSTORE PUSH0 NOT SWAP1 SWAP3 ADD SWAP2 ADD DUP2 PUSH2 0x1055 JUMPI SWAP1 POP JUMPDEST POP SWAP1 POP DUP4 PUSH0 JUMPDEST DUP5 PUSH5 0xFFFFFFFFFF AND DUP2 PUSH5 0xFFFFFFFFFF AND LT DUP1 ISZERO PUSH2 0x10AF JUMPI POP PUSH1 0xD SLOAD PUSH5 0xFFFFFFFFFF SWAP1 DUP2 AND SWAP1 DUP4 AND LT JUMPDEST ISZERO PUSH2 0x1152 JUMPI PUSH5 0xFFFFFFFFFF DUP1 DUP4 AND PUSH0 SWAP1 DUP2 MSTORE PUSH1 0xC PUSH1 0x20 SWAP1 DUP2 MSTORE PUSH1 0x40 SWAP2 DUP3 SWAP1 KECCAK256 DUP3 MLOAD PUSH1 0x60 DUP2 ADD DUP5 MSTORE DUP2 SLOAD DUP6 AND DUP2 MSTORE PUSH1 0x1 DUP3 ADD SLOAD SWAP3 DUP2 ADD SWAP3 SWAP1 SWAP3 MSTORE PUSH1 0x2 ADD SLOAD DUP4 AND SWAP2 DUP2 ADD SWAP2 SWAP1 SWAP2 MSTORE DUP5 MLOAD SWAP1 SWAP2 DUP6 SWAP2 SWAP1 DUP5 AND SWAP1 DUP2 LT PUSH2 0x110D JUMPI PUSH2 0x110D PUSH2 0x34DB JUMP JUMPDEST PUSH1 0x20 SWAP1 DUP2 MUL SWAP2 SWAP1 SWAP2 ADD ADD MSTORE PUSH5 0xFFFFFFFFFF DUP3 AND ISZERO PUSH2 0x1152 JUMPI PUSH5 0xFFFFFFFFFF SWAP2 DUP3 AND PUSH0 SWAP1 DUP2 MSTORE PUSH1 0xC PUSH1 0x20 MSTORE PUSH1 0x40 SWAP1 KECCAK256 SLOAD SWAP1 SWAP2 AND SWAP1 DUP1 PUSH2 0x114A DUP2 PUSH2 0x34EF JUMP JUMPDEST SWAP2 POP POP PUSH2 0x1086 JUMP JUMPDEST POP SWAP1 SWAP5 SWAP4 POP POP POP POP JUMP JUMPDEST PUSH0 CALLER PUSH2 0x116E PUSH5 0xFFFFFFFFFF DUP6 AND PUSH2 0x19B7 JUMP JUMPDEST PUSH1 0x1 PUSH1 0x1 PUSH1 0xA0 SHL SUB AND EQ PUSH2 0x11BB JUMPI PUSH1 0x40 MLOAD PUSH3 0x461BCD PUSH1 0xE5 SHL DUP2 MSTORE PUSH1 0x20 PUSH1 0x4 DUP3 ADD MSTORE PUSH1 0x14 PUSH1 0x24 DUP3 ADD MSTORE PUSH20 0x2737BA1031B430B63632B733B2B91037BBB732B9 PUSH1 0x61 SHL PUSH1 0x44 DUP3 ADD MSTORE PUSH1 0x64 ADD PUSH2 0xD50 JUMP JUMPDEST DUP2 PUSH5 0xFFFFFFFFFF AND DUP4 PUSH5 0xFFFFFFFFFF AND SUB PUSH2 0x1210 JUMPI PUSH1 0x40 MLOAD PUSH3 0x461BCD PUSH1 0xE5 SHL DUP2 MSTORE PUSH1 0x20 PUSH1 0x4 DUP3 ADD MSTORE PUSH1 0x15 PUSH1 0x24 DUP3 ADD MSTORE PUSH21 0x21B0B73737BA1031B430B63632B733B29039B2B633 PUSH1 0x59 SHL PUSH1 0x44 DUP3 ADD MSTORE PUSH1 0x64 ADD PUSH2 0xD50 JUMP JUMPDEST PUSH1 0x15 DUP1 SLOAD PUSH0 SWAP2 PUSH5 0xFFFFFFFFFF SWAP1 SWAP2 AND SWAP1 DUP3 PUSH2 0x122A DUP4 PUSH2 0x34EF JUMP JUMPDEST SWAP2 SWAP1 PUSH2 0x100 EXP DUP2 SLOAD DUP2 PUSH5 0xFFFFFFFFFF MUL NOT AND SWAP1 DUP4 PUSH5 0xFFFFFFFFFF AND MUL OR SWAP1 SSTORE POP SWAP1 POP PUSH1 0x40 MLOAD DUP1 PUSH1 0xA0 ADD PUSH1 0x40 MSTORE DUP1 DUP6 PUSH5 0xFFFFFFFFFF AND DUP2 MSTORE PUSH1 0x20 ADD DUP5 PUSH5 0xFFFFFFFFFF AND DUP2 MSTORE PUSH1 0x20 ADD PUSH1 0x1 PUSH1 0x3 DUP2 GT ISZERO PUSH2 0x1284 JUMPI PUSH2 0x1284 PUSH2 0x30BD JUMP JUMPDEST DUP2 MSTORE PUSH0 PUSH1 0x20 DUP1 DUP4 ADD DUP3 SWAP1 MSTORE PUSH5 0xFFFFFFFFFF TIMESTAMP DUP2 AND PUSH1 0x40 SWAP5 DUP6 ADD MSTORE DUP6 DUP2 AND DUP4 MSTORE PUSH1 0x14 DUP3 MSTORE SWAP2 DUP4 SWAP1 KECCAK256 DUP5 MLOAD DUP2 SLOAD SWAP3 DUP7 ADD MLOAD DUP5 AND PUSH1 0x1 PUSH1 0x28 SHL MUL PUSH10 0xFFFFFFFFFFFFFFFFFFFF NOT SWAP1 SWAP4 AND SWAP4 AND SWAP3 SWAP1 SWAP3 OR OR DUP1 DUP3 SSTORE SWAP2 DUP4 ADD MLOAD SWAP1 SWAP2 DUP3 SWAP1 PUSH1 0xFF PUSH1 0x50 SHL NOT AND PUSH1 0x1 PUSH1 0x50 SHL DUP4 PUSH1 0x3 DUP2 GT ISZERO PUSH2 0x12FA JUMPI PUSH2 0x12FA PUSH2 0x30BD JUMP JUMPDEST MUL OR SWAP1 SSTORE POP PUSH1 0x60 DUP3 ADD MLOAD DUP2 SLOAD PUSH32 0xFF0000000000000000000000000000000000000000FFFFFFFFFFFFFFFFFFFFFF AND PUSH1 0x1 PUSH1 0x58 SHL PUSH1 0x1 PUSH1 0x1 PUSH1 0xA0 SHL SUB SWAP1 SWAP3 AND SWAP2 SWAP1 SWAP2 MUL OR DUP2 SSTORE PUSH1 0x80 SWAP1 SWAP2 ADD MLOAD PUSH1 0x1 SWAP1 SWAP2 ADD DUP1 SLOAD PUSH5 0xFFFFFFFFFF NOT AND PUSH5 0xFFFFFFFFFF SWAP3 DUP4 AND OR SWAP1 SSTORE PUSH1 0x40 DUP1 MLOAD DUP7 DUP4 AND DUP2 MSTORE DUP6 DUP4 AND PUSH1 0x20 DUP3 ADD MSTORE SWAP2 DUP4 AND SWAP2 PUSH32 0x4D2A87C1BA137FA06166EA13381BADD4094EF8D73605E0830728E59279FFE6D9 SWAP2 ADD JUMPDEST PUSH1 0x40 MLOAD DUP1 SWAP2 SUB SWAP1 LOG2 SWAP4 SWAP3 POP POP POP JUMP JUMPDEST PUSH1 0x1 PUSH1 0x1 PUSH1 0xA0 SHL SUB DUP3 AND PUSH2 0x13D1 JUMPI PUSH1 0x40 MLOAD PUSH4 0x32505749 PUSH1 0xE1 SHL DUP2 MSTORE PUSH0 PUSH1 0x4 DUP3 ADD MSTORE PUSH1 0x24 ADD PUSH2 0xD50 JUMP JUMPDEST PUSH0 PUSH2 0x13DD DUP4 DUP4 CALLER PUSH2 0x23FF JUMP JUMPDEST SWAP1 POP DUP4 PUSH1 0x1 PUSH1 0x1 PUSH1 0xA0 SHL SUB AND DUP2 PUSH1 0x1 PUSH1 0x1 PUSH1 0xA0 SHL SUB AND EQ PUSH2 0x142B JUMPI PUSH1 0x40 MLOAD PUSH4 0x64283D7B PUSH1 0xE0 SHL DUP2 MSTORE PUSH1 0x1 PUSH1 0x1 PUSH1 0xA0 SHL SUB DUP1 DUP7 AND PUSH1 0x4 DUP4 ADD MSTORE PUSH1 0x24 DUP3 ADD DUP5 SWAP1 MSTORE DUP3 AND PUSH1 0x44 DUP3 ADD MSTORE PUSH1 0x64 ADD PUSH2 0xD50 JUMP JUMPDEST POP POP POP POP JUMP JUMPDEST PUSH2 0x1439 PUSH2 0x24D2 JUMP JUMPDEST PUSH1 0xD SLOAD PUSH5 0xFFFFFFFFFF AND PUSH0 DUP2 ISZERO PUSH2 0x145A JUMPI PUSH2 0x1455 PUSH1 0x1 DUP4 PUSH2 0x3512 JUMP JUMPDEST PUSH2 0x145C JUMP JUMPDEST PUSH0 JUMPDEST SWAP1 POP PUSH0 PUSH2 0x146A PUSH1 0x1 NUMBER PUSH2 0x3485 JUMP JUMPDEST PUSH1 0x40 DUP1 MLOAD SWAP2 BLOCKHASH PUSH1 0x20 DUP4 ADD MSTORE PUSH12 0xFFFFFFFFFFFFFFFFFFFFFFFF NOT PUSH1 0x60 DUP9 SWAP1 SHL AND SWAP1 DUP3 ADD MSTORE PUSH1 0x54 DUP2 ADD DUP6 SWAP1 MSTORE PUSH1 0x1 PUSH1 0x1 PUSH1 0xD8 SHL SUB NOT PUSH1 0xD8 DUP5 SWAP1 SHL AND PUSH1 0x74 DUP3 ADD MSTORE PUSH1 0x79 ADD PUSH1 0x40 DUP1 MLOAD PUSH1 0x1F NOT DUP2 DUP5 SUB ADD DUP2 MSTORE DUP3 DUP3 MSTORE DUP1 MLOAD PUSH1 0x20 SWAP2 DUP3 ADD KECCAK256 PUSH1 0x60 DUP5 ADD DUP4 MSTORE PUSH5 0xFFFFFFFFFF DUP1 DUP8 AND DUP6 MSTORE DUP5 DUP4 ADD DUP3 DUP2 MSTORE TIMESTAMP DUP3 AND DUP7 DUP7 ADD SWAP1 DUP2 MSTORE DUP10 DUP4 AND PUSH0 DUP2 DUP2 MSTORE PUSH1 0xC SWAP1 SWAP7 MSTORE SWAP6 SWAP1 SWAP5 KECCAK256 SWAP6 MLOAD DUP7 SLOAD SWAP1 DUP4 AND PUSH5 0xFFFFFFFFFF NOT SWAP2 DUP3 AND OR DUP8 SSTORE SWAP1 MLOAD PUSH1 0x1 DUP8 ADD SSTORE SWAP3 MLOAD PUSH1 0x2 SWAP1 SWAP6 ADD DUP1 SLOAD SWAP6 SWAP1 SWAP2 AND SWAP5 SWAP1 SWAP3 AND SWAP4 SWAP1 SWAP4 OR SWAP1 SSTORE SWAP1 SWAP2 POP PUSH2 0x1533 SWAP1 DUP7 SWAP1 PUSH2 0x24FF JUMP JUMPDEST PUSH1 0xD DUP1 SLOAD PUSH5 0xFFFFFFFFFF AND SWAP1 PUSH0 PUSH2 0x1549 DUP4 PUSH2 0x34EF JUMP JUMPDEST SWAP2 SWAP1 PUSH2 0x100 EXP DUP2 SLOAD DUP2 PUSH5 0xFFFFFFFFFF MUL NOT AND SWAP1 DUP4 PUSH5 0xFFFFFFFFFF AND MUL OR SWAP1 SSTORE POP POP DUP3 PUSH5 0xFFFFFFFFFF AND DUP6 PUSH1 0x1 PUSH1 0x1 PUSH1 0xA0 SHL SUB AND PUSH32 0x4C10F935E0E6852F460D1682CBFE7200C89F570E056578FD9DE6F9F0AED4CDB1 DUP5 DUP5 PUSH1 0x40 MLOAD PUSH2 0x15BF SWAP3 SWAP2 SWAP1 PUSH5 0xFFFFFFFFFF SWAP3 SWAP1 SWAP3 AND DUP3 MSTORE PUSH1 0x20 DUP3 ADD MSTORE PUSH1 0x40 ADD SWAP1 JUMP JUMPDEST PUSH1 0x40 MLOAD DUP1 SWAP2 SUB SWAP1 LOG3 POP POP POP POP POP JUMP JUMPDEST PUSH0 DUP3 DUP2 MSTORE PUSH1 0xB PUSH1 0x20 MSTORE PUSH1 0x40 SWAP1 KECCAK256 PUSH1 0x1 ADD SLOAD PUSH2 0x15E8 DUP2 PUSH2 0x2518 JUMP JUMPDEST PUSH2 0x142B DUP4 DUP4 PUSH2 0x2522 JUMP JUMPDEST PUSH0 PUSH2 0x15FC DUP4 PUSH2 0x19C1 JUMP JUMPDEST DUP3 LT PUSH2 0x162D JUMPI PUSH1 0x40 MLOAD PUSH4 0x295F44F7 PUSH1 0xE2 SHL DUP2 MSTORE PUSH1 0x1 PUSH1 0x1 PUSH1 0xA0 SHL SUB DUP5 AND PUSH1 0x4 DUP3 ADD MSTORE PUSH1 0x24 DUP2 ADD DUP4 SWAP1 MSTORE PUSH1 0x44 ADD PUSH2 0xD50 JUMP JUMPDEST POP PUSH1 0x1 PUSH1 0x1 PUSH1 0xA0 SHL SUB SWAP2 SWAP1 SWAP2 AND PUSH0 SWAP1 DUP2 MSTORE PUSH1 0x6 PUSH1 0x20 SWAP1 DUP2 MSTORE PUSH1 0x40 DUP1 DUP4 KECCAK256 SWAP4 DUP4 MSTORE SWAP3 SWAP1 MSTORE KECCAK256 SLOAD SWAP1 JUMP JUMPDEST PUSH1 0x1 PUSH1 0x1 PUSH1 0xA0 SHL SUB DUP2 AND CALLER EQ PUSH2 0x167E JUMPI PUSH1 0x40 MLOAD PUSH4 0x334BD919 PUSH1 0xE1 SHL DUP2 MSTORE PUSH1 0x4 ADD PUSH1 0x40 MLOAD DUP1 SWAP2 SUB SWAP1 REVERT JUMPDEST PUSH2 0x1688 DUP3 DUP3 PUSH2 0x25B3 JUMP JUMPDEST POP POP POP JUMP JUMPDEST PUSH1 0xA PUSH5 0xFFFFFFFFFF DUP4 AND LT PUSH2 0x16D8 JUMPI PUSH1 0x40 MLOAD PUSH3 0x461BCD PUSH1 0xE5 SHL DUP2 MSTORE PUSH1 0x20 PUSH1 0x4 DUP3 ADD MSTORE PUSH1 0x11 PUSH1 0x24 DUP3 ADD MSTORE PUSH17 0x496E76616C6964207465727269746F7279 PUSH1 0x78 SHL PUSH1 0x44 DUP3 ADD MSTORE PUSH1 0x64 ADD PUSH2 0xD50 JUMP JUMPDEST CALLER PUSH2 0x16E9 PUSH5 0xFFFFFFFFFF DUP4 AND PUSH2 0x19B7 JUMP JUMPDEST PUSH1 0x1 PUSH1 0x1 PUSH1 0xA0 SHL SUB AND EQ PUSH2 0x170F JUMPI PUSH1 0x40 MLOAD PUSH3 0x461BCD PUSH1 0xE5 SHL DUP2 MSTORE PUSH1 0x4 ADD PUSH2 0xD50 SWAP1 PUSH2 0x3530 JUMP JUMPDEST PUSH1 0x40 DUP1 MLOAD PUSH1 0x60 DUP2 ADD DUP3 MSTORE PUSH5 0xFFFFFFFFFF DUP1 DUP5 AND DUP1 DUP4 MSTORE PUSH0 DUP2 DUP2 MSTORE PUSH1 0x11 PUSH1 0x20 SWAP1 DUP2 MSTORE DUP6 DUP3 KECCAK256 SLOAD DUP5 AND DUP2 DUP7 ADD SWAP1 DUP2 MSTORE TIMESTAMP DUP6 AND DUP7 DUP9 ADD SWAP1 DUP2 MSTORE DUP10 DUP7 AND DUP5 MSTORE PUSH1 0x17 DUP4 MSTORE DUP8 DUP5 KECCAK256 SWAP7 MLOAD DUP8 SLOAD SWAP3 MLOAD SWAP2 MLOAD DUP8 AND PUSH1 0x1 PUSH1 0x50 SHL MUL PUSH5 0xFFFFFFFFFF PUSH1 0x50 SHL NOT SWAP3 DUP9 AND PUSH1 0x1 PUSH1 0x28 SHL MUL PUSH10 0xFFFFFFFFFFFFFFFFFFFF NOT SWAP1 SWAP5 AND SWAP2 SWAP1 SWAP8 AND OR SWAP2 SWAP1 SWAP2 OR AND SWAP4 SWAP1 SWAP4 OR SWAP1 SWAP4 SSTORE DUP3 MSTORE PUSH1 0x18 SWAP1 MSTORE SWAP1 DUP2 KECCAK256 DUP1 SLOAD PUSH1 0x32 SWAP3 SWAP1 PUSH2 0x17B4 SWAP1 DUP5 SWAP1 PUSH4 0xFFFFFFFF AND PUSH2 0x34B7 JUMP JUMPDEST DUP3 SLOAD PUSH2 0x100 SWAP3 SWAP1 SWAP3 EXP PUSH4 0xFFFFFFFF DUP2 DUP2 MUL NOT SWAP1 SWAP4 AND SWAP2 DUP4 AND MUL OR SWAP1 SWAP2 SSTORE PUSH5 0xFFFFFFFFFF DUP4 AND PUSH0 SWAP1 DUP2 MSTORE PUSH1 0x18 PUSH1 0x20 MSTORE PUSH1 0x40 DUP2 KECCAK256 SLOAD SWAP1 SWAP3 POP PUSH2 0x17F4 SWAP2 AND PUSH2 0x2397 JUMP JUMPDEST PUSH5 0xFFFFFFFFFF DUP4 DUP2 AND PUSH0 DUP2 DUP2 MSTORE PUSH1 0x18 PUSH1 0x20 SWAP1 DUP2 MSTORE PUSH1 0x40 DUP1 DUP4 KECCAK256 DUP1 SLOAD PUSH5 0xFF00000000 NOT AND PUSH5 0x100000000 PUSH1 0xFF DUP10 AND MUL OR SWAP1 SSTORE PUSH1 0x11 SWAP1 SWAP2 MSTORE DUP1 DUP3 KECCAK256 SLOAD SWAP1 MLOAD SWAP5 SWAP6 POP DUP4 AND SWAP4 SWAP2 SWAP3 DUP8 AND SWAP2 PUSH32 0x2D3BBFFD93F30E4D9D78F300C2F02460C032AE17C775876FDD9CE2917B361286 SWAP2 SWAP1 LOG4 PUSH1 0x40 MLOAD PUSH1 0xFF DUP3 AND DUP2 MSTORE PUSH5 0xFFFFFFFFFF DUP4 AND SWAP1 PUSH32 0xDDEC92DA7CC59A7428F9A8CC1A1E125A910CA18941C46D002D023F6F8BB97A16 SWAP1 PUSH1 0x20 ADD PUSH1 0x40 MLOAD DUP1 SWAP2 SUB SWAP1 LOG2 POP POP POP JUMP JUMPDEST PUSH2 0x1688 DUP4 DUP4 DUP4 PUSH1 0x40 MLOAD DUP1 PUSH1 0x20 ADD PUSH1 0x40 MSTORE DUP1 PUSH0 DUP2 MSTORE POP PUSH2 0x1FF0 JUMP JUMPDEST CALLER PUSH2 0x18CE PUSH5 0xFFFFFFFFFF DUP5 AND PUSH2 0x19B7 JUMP JUMPDEST PUSH1 0x1 PUSH1 0x1 PUSH1 0xA0 SHL SUB AND EQ PUSH2 0x1910 JUMPI PUSH1 0x40 MLOAD PUSH3 0x461BCD PUSH1 0xE5 SHL DUP2 MSTORE PUSH1 0x20 PUSH1 0x4 DUP3 ADD MSTORE PUSH1 0x9 PUSH1 0x24 DUP3 ADD MSTORE PUSH9 0x2737BA1037BBB732B9 PUSH1 0xB9 SHL PUSH1 0x44 DUP3 ADD MSTORE PUSH1 0x64 ADD PUSH2 0xD50 JUMP JUMPDEST PUSH5 0xFFFFFFFFFF DUP3 DUP2 AND PUSH0 DUP2 DUP2 MSTORE PUSH1 0x16 PUSH1 0x20 MSTORE PUSH1 0x40 DUP1 DUP3 KECCAK256 DUP1 SLOAD PUSH5 0xFFFFFFFFFF NOT AND SWAP5 DUP7 AND SWAP5 DUP6 OR SWAP1 SSTORE MLOAD PUSH32 0x8AE944086487743363C2AF0D66070AD4F9D4A0FDAA56C289FA29F9D03A9FD4AA SWAP2 SWAP1 LOG3 POP POP JUMP JUMPDEST PUSH0 PUSH2 0x196C PUSH1 0x8 SLOAD SWAP1 JUMP JUMPDEST DUP3 LT PUSH2 0x1994 JUMPI PUSH1 0x40 MLOAD PUSH4 0x295F44F7 PUSH1 0xE2 SHL DUP2 MSTORE PUSH0 PUSH1 0x4 DUP3 ADD MSTORE PUSH1 0x24 DUP2 ADD DUP4 SWAP1 MSTORE PUSH1 0x44 ADD PUSH2 0xD50 JUMP JUMPDEST PUSH1 0x8 DUP3 DUP2 SLOAD DUP2 LT PUSH2 0x19A7 JUMPI PUSH2 0x19A7 PUSH2 0x34DB JUMP JUMPDEST SWAP1 PUSH0 MSTORE PUSH1 0x20 PUSH0 KECCAK256 ADD SLOAD SWAP1 POP SWAP2 SWAP1 POP JUMP JUMPDEST PUSH0 PUSH2 0xC1A DUP3 PUSH2 0x2352 JUMP JUMPDEST PUSH0 PUSH1 0x1 PUSH1 0x1 PUSH1 0xA0 SHL SUB DUP3 AND PUSH2 0x19EB JUMPI PUSH1 0x40 MLOAD PUSH4 0x22718AD9 PUSH1 0xE2 SHL DUP2 MSTORE PUSH0 PUSH1 0x4 DUP3 ADD MSTORE PUSH1 0x24 ADD PUSH2 0xD50 JUMP JUMPDEST POP PUSH1 0x1 PUSH1 0x1 PUSH1 0xA0 SHL SUB AND PUSH0 SWAP1 DUP2 MSTORE PUSH1 0x3 PUSH1 0x20 MSTORE PUSH1 0x40 SWAP1 KECCAK256 SLOAD SWAP1 JUMP JUMPDEST PUSH2 0x1A0E PUSH2 0x24D2 JUMP JUMPDEST PUSH2 0x1A17 PUSH0 PUSH2 0x261E JUMP JUMPDEST JUMP JUMPDEST CALLER PUSH2 0x1A2A PUSH5 0xFFFFFFFFFF DUP6 AND PUSH2 0x19B7 JUMP JUMPDEST PUSH1 0x1 PUSH1 0x1 PUSH1 0xA0 SHL SUB AND EQ PUSH2 0x1A50 JUMPI PUSH1 0x40 MLOAD PUSH3 0x461BCD PUSH1 0xE5 SHL DUP2 MSTORE PUSH1 0x4 ADD PUSH2 0xD50 SWAP1 PUSH2 0x3530 JUMP JUMPDEST DUP1 ISZERO DUP1 ISZERO SWAP1 PUSH2 0x1A60 JUMPI POP PUSH1 0x40 DUP2 GT ISZERO JUMPDEST PUSH2 0x1A9D JUMPI PUSH1 0x40 MLOAD PUSH3 0x461BCD PUSH1 0xE5 SHL DUP2 MSTORE PUSH1 0x20 PUSH1 0x4 DUP3 ADD MSTORE PUSH1 0xE PUSH1 0x24 DUP3 ADD MSTORE PUSH14 0x9ACAE6E6C2CECA40D8CADCCEE8D PUSH1 0x93 SHL PUSH1 0x44 DUP3 ADD MSTORE PUSH1 0x64 ADD PUSH2 0xD50 JUMP JUMPDEST PUSH5 0xFFFFFFFFFF DUP4 AND PUSH0 SWAP1 DUP2 MSTORE PUSH1 0xF PUSH1 0x20 MSTORE PUSH1 0x40 SWAP1 KECCAK256 SLOAD PUSH2 0x1ABE SWAP1 PUSH1 0xA PUSH2 0x266F JUMP JUMPDEST PUSH2 0x1AF5 JUMPI PUSH1 0x40 MLOAD PUSH3 0x461BCD PUSH1 0xE5 SHL DUP2 MSTORE PUSH1 0x20 PUSH1 0x4 DUP3 ADD MSTORE PUSH1 0x8 PUSH1 0x24 DUP3 ADD MSTORE PUSH8 0x21B7B7B63237BBB7 PUSH1 0xC1 SHL PUSH1 0x44 DUP3 ADD MSTORE PUSH1 0x64 ADD PUSH2 0xD50 JUMP JUMPDEST PUSH5 0xFFFFFFFFFF DUP4 AND PUSH0 SWAP1 DUP2 MSTORE PUSH1 0x10 PUSH1 0x20 MSTORE PUSH1 0x40 SWAP1 KECCAK256 SLOAD PUSH6 0x9184E72A000 SWAP1 SHL CALLVALUE DUP2 GT ISZERO PUSH2 0x1B57 JUMPI PUSH1 0x40 MLOAD PUSH3 0x461BCD PUSH1 0xE5 SHL DUP2 MSTORE PUSH1 0x20 PUSH1 0x4 DUP3 ADD MSTORE PUSH1 0x10 PUSH1 0x24 DUP3 ADD MSTORE PUSH16 0x496E73756666696369656E7420666565 PUSH1 0x80 SHL PUSH1 0x44 DUP3 ADD MSTORE PUSH1 0x64 ADD PUSH2 0xD50 JUMP JUMPDEST PUSH0 DUP4 DUP4 PUSH1 0x40 MLOAD PUSH2 0x1B68 SWAP3 SWAP2 SWAP1 PUSH2 0x3557 JUMP JUMPDEST PUSH1 0x40 DUP1 MLOAD SWAP2 DUP3 SWAP1 SUB DUP3 KECCAK256 PUSH5 0xFFFFFFFFFF DUP9 DUP2 AND PUSH0 DUP2 DUP2 MSTORE PUSH1 0xE PUSH1 0x20 SWAP1 DUP2 MSTORE DUP6 DUP3 KECCAK256 PUSH1 0x60 DUP9 ADD DUP8 MSTORE CALLER DUP9 MSTORE DUP2 DUP9 ADD DUP7 DUP2 MSTORE TIMESTAMP DUP7 AND DUP10 DUP10 ADD SWAP1 DUP2 MSTORE DUP3 SLOAD PUSH1 0x1 DUP1 DUP3 ADD DUP6 SSTORE SWAP4 DUP7 MSTORE DUP5 DUP7 KECCAK256 SWAP11 MLOAD PUSH1 0x3 SWAP1 SWAP2 MUL SWAP1 SWAP11 ADD DUP1 SLOAD PUSH1 0x1 PUSH1 0x1 PUSH1 0xA0 SHL SUB NOT AND PUSH1 0x1 PUSH1 0x1 PUSH1 0xA0 SHL SUB SWAP1 SWAP12 AND SWAP11 SWAP1 SWAP11 OR DUP11 SSTORE SWAP1 MLOAD SWAP2 DUP10 ADD SWAP2 SWAP1 SWAP2 SSTORE MLOAD PUSH1 0x2 SWAP1 SWAP8 ADD DUP1 SLOAD PUSH5 0xFFFFFFFFFF NOT AND SWAP8 SWAP1 SWAP5 AND SWAP7 SWAP1 SWAP7 OR SWAP1 SWAP3 SSTORE DUP2 MSTORE PUSH1 0xF DUP5 MSTORE DUP3 DUP2 KECCAK256 NUMBER SWAP1 SSTORE PUSH1 0x10 SWAP1 SWAP4 MSTORE SWAP1 DUP3 KECCAK256 DUP1 SLOAD SWAP2 SWAP4 POP SWAP1 SWAP2 PUSH2 0x1C1F DUP4 PUSH2 0x3566 JUMP JUMPDEST SWAP1 SWAP2 SSTORE POP POP PUSH1 0x40 DUP1 MLOAD DUP3 DUP2 MSTORE PUSH1 0x20 DUP2 ADD DUP5 SWAP1 MSTORE CALLER SWAP2 PUSH5 0xFFFFFFFFFF DUP9 AND SWAP2 PUSH32 0x74F8A0D6CC1D5E3C4F35A2E52027F4D38DEF0A75A72A4E06CAABDA68AE05400D SWAP2 ADD PUSH2 0x15BF JUMP JUMPDEST PUSH1 0xE PUSH1 0x20 MSTORE DUP2 PUSH0 MSTORE PUSH1 0x40 PUSH0 KECCAK256 DUP2 DUP2 SLOAD DUP2 LT PUSH2 0x1C7E JUMPI PUSH0 DUP1 REVERT JUMPDEST PUSH0 SWAP2 DUP3 MSTORE PUSH1 0x20 SWAP1 SWAP2 KECCAK256 PUSH1 0x3 SWAP1 SWAP2 MUL ADD DUP1 SLOAD PUSH1 0x1 DUP3 ADD SLOAD PUSH1 0x2 SWAP1 SWAP3 ADD SLOAD PUSH1 0x1 PUSH1 0x1 PUSH1 0xA0 SHL SUB SWAP1 SWAP2 AND SWAP4 POP SWAP1 SWAP2 POP PUSH5 0xFFFFFFFFFF AND DUP4 JUMP JUMPDEST PUSH0 SWAP2 DUP3 MSTORE PUSH1 0xB PUSH1 0x20 SWAP1 DUP2 MSTORE PUSH1 0x40 DUP1 DUP5 KECCAK256 PUSH1 0x1 PUSH1 0x1 PUSH1 0xA0 SHL SUB SWAP4 SWAP1 SWAP4 AND DUP5 MSTORE SWAP2 SWAP1 MSTORE SWAP1 KECCAK256 SLOAD PUSH1 0xFF AND SWAP1 JUMP JUMPDEST PUSH1 0x60 PUSH1 0x1 DUP1 SLOAD PUSH2 0xC2E SWAP1 PUSH2 0x3439 JUMP JUMPDEST PUSH2 0xCE1 CALLER DUP4 DUP4 PUSH2 0x2684 JUMP JUMPDEST CALLER PUSH2 0x1D09 PUSH5 0xFFFFFFFFFF DUP4 AND PUSH2 0x19B7 JUMP JUMPDEST PUSH1 0x1 PUSH1 0x1 PUSH1 0xA0 SHL SUB AND EQ PUSH2 0x1D4B JUMPI PUSH1 0x40 MLOAD PUSH3 0x461BCD PUSH1 0xE5 SHL DUP2 MSTORE PUSH1 0x20 PUSH1 0x4 DUP3 ADD MSTORE PUSH1 0x9 PUSH1 0x24 DUP3 ADD MSTORE PUSH9 0x2737BA1037BBB732B9 PUSH1 0xB9 SHL PUSH1 0x44 DUP3 ADD MSTORE PUSH1 0x64 ADD PUSH2 0xD50 JUMP JUMPDEST PUSH5 0xFFFFFFFFFF DUP3 DUP2 AND PUSH0 SWAP1 DUP2 MSTORE PUSH1 0x16 PUSH1 0x20 MSTORE PUSH1 0x40 SWAP1 KECCAK256 SLOAD DUP2 AND SWAP1 DUP3 AND EQ PUSH2 0x1DA2 JUMPI PUSH1 0x40 MLOAD PUSH3 0x461BCD PUSH1 0xE5 SHL DUP2 MSTORE PUSH1 0x20 PUSH1 0x4 DUP3 ADD MSTORE PUSH1 0xB PUSH1 0x24 DUP3 ADD MSTORE PUSH11 0x139BC81C1C9BDC1BDCD85B PUSH1 0xAA SHL PUSH1 0x44 DUP3 ADD MSTORE PUSH1 0x64 ADD PUSH2 0xD50 JUMP JUMPDEST PUSH0 PUSH2 0x1DB3 DUP4 PUSH5 0xFFFFFFFFFF AND PUSH2 0x19B7 JUMP JUMPDEST SWAP1 POP PUSH0 PUSH2 0x1DC6 DUP4 PUSH5 0xFFFFFFFFFF AND PUSH2 0x19B7 JUMP JUMPDEST SWAP1 POP PUSH2 0x1DE9 DUP3 DUP3 DUP7 PUSH5 0xFFFFFFFFFF AND PUSH1 0x40 MLOAD DUP1 PUSH1 0x20 ADD PUSH1 0x40 MSTORE DUP1 PUSH0 DUP2 MSTORE POP PUSH2 0x2722 JUMP JUMPDEST PUSH2 0x1E0A DUP2 DUP4 DUP6 PUSH5 0xFFFFFFFFFF AND PUSH1 0x40 MLOAD DUP1 PUSH1 0x20 ADD PUSH1 0x40 MSTORE DUP1 PUSH0 DUP2 MSTORE POP PUSH2 0x2722 JUMP JUMPDEST PUSH5 0xFFFFFFFFFF DUP1 DUP6 AND PUSH0 DUP2 DUP2 MSTORE PUSH1 0x16 PUSH1 0x20 MSTORE PUSH1 0x40 DUP1 DUP3 KECCAK256 DUP1 SLOAD PUSH5 0xFFFFFFFFFF NOT AND SWAP1 SSTORE MLOAD SWAP3 DUP7 AND SWAP3 PUSH32 0x12A7944A4752BF8E2C4FE39B345E3F378F032131BD1E47331255149561A5AC7E SWAP2 SWAP1 LOG3 POP POP POP POP JUMP JUMPDEST PUSH5 0xFFFFFFFFFF DUP3 AND PUSH0 SWAP1 DUP2 MSTORE PUSH1 0x12 PUSH1 0x20 MSTORE PUSH1 0x40 SWAP1 KECCAK256 PUSH1 0x1 ADD SLOAD PUSH1 0xFF AND PUSH2 0x1EC4 JUMPI PUSH1 0x40 MLOAD PUSH3 0x461BCD PUSH1 0xE5 SHL DUP2 MSTORE PUSH1 0x20 PUSH1 0x4 DUP3 ADD MSTORE PUSH1 0x17 PUSH1 0x24 DUP3 ADD MSTORE PUSH32 0x416C6C69616E636520646F6573206E6F74206578697374000000000000000000 PUSH1 0x44 DUP3 ADD MSTORE PUSH1 0x64 ADD PUSH2 0xD50 JUMP JUMPDEST CALLER PUSH2 0x1ED5 PUSH5 0xFFFFFFFFFF DUP4 AND PUSH2 0x19B7 JUMP JUMPDEST PUSH1 0x1 PUSH1 0x1 PUSH1 0xA0 SHL SUB AND EQ PUSH2 0x1EFB JUMPI PUSH1 0x40 MLOAD PUSH3 0x461BCD PUSH1 0xE5 SHL DUP2 MSTORE PUSH1 0x4 ADD PUSH2 0xD50 SWAP1 PUSH2 0x3530 JUMP JUMPDEST PUSH5 0xFFFFFFFFFF DUP3 DUP2 AND PUSH0 DUP2 DUP2 MSTORE PUSH1 0x12 PUSH1 0x20 SWAP1 DUP2 MSTORE PUSH1 0x40 DUP1 DUP4 KECCAK256 DUP1 SLOAD PUSH1 0x1 DUP2 ADD DUP3 SSTORE SWAP1 DUP5 MSTORE DUP3 DUP5 KECCAK256 PUSH1 0x6 DUP1 DUP4 DIV SWAP1 SWAP2 ADD DUP1 SLOAD SWAP2 SWAP1 SWAP3 MOD PUSH1 0x5 MUL PUSH2 0x100 EXP DUP1 DUP9 MUL NOT SWAP1 SWAP2 AND SWAP7 DUP9 AND SWAP1 DUP2 MUL SWAP7 SWAP1 SWAP7 OR SWAP1 SSTORE DUP5 DUP4 MSTORE PUSH1 0x11 SWAP1 SWAP2 MSTORE DUP1 DUP3 KECCAK256 DUP1 SLOAD PUSH5 0xFFFFFFFFFF NOT AND DUP5 OR SWAP1 SSTORE MLOAD PUSH32 0xD92A267FC0A66FEBA6010A5A39605CCE10EFC23A5F540CC417525E94BB941405 SWAP2 SWAP1 LOG3 POP POP JUMP JUMPDEST PUSH1 0x60 DUP1 PUSH1 0x60 PUSH1 0x40 MLOAD DUP1 PUSH2 0x480 ADD PUSH1 0x40 MSTORE DUP1 PUSH2 0x444 DUP2 MSTORE PUSH1 0x20 ADD PUSH2 0x43AB PUSH2 0x444 SWAP2 CODECOPY PUSH1 0x40 MLOAD DUP1 PUSH2 0x440 ADD PUSH1 0x40 MSTORE DUP1 PUSH2 0x40E DUP2 MSTORE PUSH1 0x20 ADD PUSH2 0x3DDD PUSH2 0x40E SWAP2 CODECOPY PUSH1 0x40 MLOAD DUP1 PUSH2 0x1E0 ADD PUSH1 0x40 MSTORE DUP1 PUSH2 0x1C0 DUP2 MSTORE PUSH1 0x20 ADD PUSH2 0x41EB PUSH2 0x1C0 SWAP2 CODECOPY SWAP3 POP SWAP3 POP SWAP3 POP SWAP1 SWAP2 SWAP3 JUMP JUMPDEST PUSH2 0x1FFB DUP5 DUP5 DUP5 PUSH2 0x13A8 JUMP JUMPDEST PUSH2 0x142B CALLER DUP6 DUP6 DUP6 DUP6 PUSH2 0x272D JUMP JUMPDEST PUSH1 0x60 PUSH1 0x40 MLOAD DUP1 PUSH2 0x7C0 ADD PUSH1 0x40 MSTORE DUP1 PUSH2 0x78C DUP2 MSTORE PUSH1 0x20 ADD PUSH2 0x3651 PUSH2 0x78C SWAP2 CODECOPY SWAP3 SWAP2 POP POP JUMP JUMPDEST PUSH0 DUP1 JUMPDEST DUP3 DUP2 LT ISZERO PUSH2 0x20CE JUMPI CALLER PUSH2 0x206E DUP6 DUP6 DUP5 DUP2 DUP2 LT PUSH2 0x204D JUMPI PUSH2 0x204D PUSH2 0x34DB JUMP JUMPDEST SWAP1 POP PUSH1 0x20 MUL ADD PUSH1 0x20 DUP2 ADD SWAP1 PUSH2 0x2062 SWAP2 SWAP1 PUSH2 0x3010 JUMP JUMPDEST PUSH5 0xFFFFFFFFFF AND PUSH2 0x19B7 JUMP JUMPDEST PUSH1 0x1 PUSH1 0x1 PUSH1 0xA0 SHL SUB AND EQ PUSH2 0x20BC JUMPI PUSH1 0x40 MLOAD PUSH3 0x461BCD PUSH1 0xE5 SHL DUP2 MSTORE PUSH1 0x20 PUSH1 0x4 DUP3 ADD MSTORE PUSH1 0x15 PUSH1 0x24 DUP3 ADD MSTORE PUSH21 0x4E6F74206F776E6572206F6620616C6C204E465473 PUSH1 0x58 SHL PUSH1 0x44 DUP3 ADD MSTORE PUSH1 0x64 ADD PUSH2 0xD50 JUMP JUMPDEST DUP1 PUSH2 0x20C6 DUP2 PUSH2 0x3566 JUMP JUMPDEST SWAP2 POP POP PUSH2 0x202F JUMP JUMPDEST POP PUSH1 0x13 DUP1 SLOAD PUSH0 SWAP2 PUSH5 0xFFFFFFFFFF SWAP1 SWAP2 AND SWAP1 DUP3 PUSH2 0x20E9 DUP4 PUSH2 0x34EF JUMP JUMPDEST SWAP2 SWAP1 PUSH2 0x100 EXP DUP2 SLOAD DUP2 PUSH5 0xFFFFFFFFFF MUL NOT AND SWAP1 DUP4 PUSH5 0xFFFFFFFFFF AND MUL OR SWAP1 SSTORE POP SWAP1 POP PUSH1 0x40 MLOAD DUP1 PUSH1 0x60 ADD PUSH1 0x40 MSTORE DUP1 DUP6 DUP6 DUP1 DUP1 PUSH1 0x20 MUL PUSH1 0x20 ADD PUSH1 0x40 MLOAD SWAP1 DUP2 ADD PUSH1 0x40 MSTORE DUP1 SWAP4 SWAP3 SWAP2 SWAP1 DUP2 DUP2 MSTORE PUSH1 0x20 ADD DUP4 DUP4 PUSH1 0x20 MUL DUP1 DUP3 DUP5 CALLDATACOPY PUSH0 SWAP3 ADD DUP3 SWAP1 MSTORE POP SWAP4 DUP6 MSTORE POP POP PUSH1 0x1 PUSH1 0x20 DUP1 DUP6 ADD SWAP2 SWAP1 SWAP2 MSTORE CALLER PUSH1 0x40 SWAP5 DUP6 ADD MSTORE PUSH5 0xFFFFFFFFFF DUP7 AND DUP4 MSTORE PUSH1 0x12 DUP2 MSTORE SWAP3 SWAP1 SWAP2 KECCAK256 DUP4 MLOAD DUP1 MLOAD SWAP2 SWAP4 PUSH2 0x2182 SWAP4 POP DUP5 SWAP3 SWAP2 ADD SWAP1 PUSH2 0x2E53 JUMP JUMPDEST POP PUSH1 0x20 DUP3 ADD MLOAD PUSH1 0x1 SWAP1 SWAP2 ADD DUP1 SLOAD PUSH1 0x40 SWAP1 SWAP4 ADD MLOAD PUSH1 0x1 PUSH1 0x1 PUSH1 0xA0 SHL SUB AND PUSH2 0x100 MUL PUSH2 0x100 PUSH1 0x1 PUSH1 0xA8 SHL SUB NOT SWAP3 ISZERO ISZERO SWAP3 SWAP1 SWAP3 AND PUSH1 0x1 PUSH1 0x1 PUSH1 0xA8 SHL SUB NOT SWAP1 SWAP4 AND SWAP3 SWAP1 SWAP3 OR OR SWAP1 SSTORE PUSH0 JUMPDEST DUP4 DUP2 LT ISZERO PUSH2 0x2239 JUMPI DUP2 PUSH1 0x11 PUSH0 DUP8 DUP8 DUP6 DUP2 DUP2 LT PUSH2 0x21E6 JUMPI PUSH2 0x21E6 PUSH2 0x34DB JUMP JUMPDEST SWAP1 POP PUSH1 0x20 MUL ADD PUSH1 0x20 DUP2 ADD SWAP1 PUSH2 0x21FB SWAP2 SWAP1 PUSH2 0x3010 JUMP JUMPDEST PUSH5 0xFFFFFFFFFF SWAP1 DUP2 AND DUP3 MSTORE PUSH1 0x20 DUP3 ADD SWAP3 SWAP1 SWAP3 MSTORE PUSH1 0x40 ADD PUSH0 KECCAK256 DUP1 SLOAD PUSH5 0xFFFFFFFFFF NOT AND SWAP3 SWAP1 SWAP2 AND SWAP2 SWAP1 SWAP2 OR SWAP1 SSTORE DUP1 PUSH2 0x2231 DUP2 PUSH2 0x3566 JUMP JUMPDEST SWAP2 POP POP PUSH2 0x21C8 JUMP JUMPDEST POP PUSH2 0x2264 PUSH32 0x828A9190DC16DC0116154C184677DAC8ABEBC0B3AEEBA46F3BA5F89B8E414398 CALLER PUSH2 0x2522 JUMP JUMPDEST POP DUP1 PUSH5 0xFFFFFFFFFF AND PUSH32 0x3A4C5433C67E6C3A4697D7912F890EB0D2BF330958C95BE2BBE9F0A8402C10AA DUP6 DUP6 CALLER PUSH1 0x40 MLOAD PUSH2 0x1399 SWAP4 SWAP3 SWAP2 SWAP1 PUSH2 0x357E JUMP JUMPDEST PUSH0 DUP3 DUP2 MSTORE PUSH1 0xB PUSH1 0x20 MSTORE PUSH1 0x40 SWAP1 KECCAK256 PUSH1 0x1 ADD SLOAD PUSH2 0x22BA DUP2 PUSH2 0x2518 JUMP JUMPDEST PUSH2 0x142B DUP4 DUP4 PUSH2 0x25B3 JUMP JUMPDEST PUSH1 0x1 PUSH1 0x1 PUSH1 0xA0 SHL SUB SWAP2 DUP3 AND PUSH0 SWAP1 DUP2 MSTORE PUSH1 0x5 PUSH1 0x20 SWAP1 DUP2 MSTORE PUSH1 0x40 DUP1 DUP4 KECCAK256 SWAP4 SWAP1 SWAP5 AND DUP3 MSTORE SWAP2 SWAP1 SWAP2 MSTORE KECCAK256 SLOAD PUSH1 0xFF AND SWAP1 JUMP JUMPDEST PUSH2 0x22F9 PUSH2 0x24D2 JUMP JUMPDEST PUSH1 0x1 PUSH1 0x1 PUSH1 0xA0 SHL SUB DUP2 AND PUSH2 0x2322 JUMPI PUSH1 0x40 MLOAD PUSH4 0x1E4FBDF7 PUSH1 0xE0 SHL DUP2 MSTORE PUSH0 PUSH1 0x4 DUP3 ADD MSTORE PUSH1 0x24 ADD PUSH2 0xD50 JUMP JUMPDEST PUSH2 0x232B DUP2 PUSH2 0x261E JUMP JUMPDEST POP JUMP JUMPDEST PUSH0 PUSH1 0x1 PUSH1 0x1 PUSH1 0xE0 SHL SUB NOT DUP3 AND PUSH4 0x7965DB0B PUSH1 0xE0 SHL EQ DUP1 PUSH2 0xC1A JUMPI POP PUSH2 0xC1A DUP3 PUSH2 0x2855 JUMP JUMPDEST PUSH0 DUP2 DUP2 MSTORE PUSH1 0x2 PUSH1 0x20 MSTORE PUSH1 0x40 DUP2 KECCAK256 SLOAD PUSH1 0x1 PUSH1 0x1 PUSH1 0xA0 SHL SUB AND DUP1 PUSH2 0xC1A JUMPI PUSH1 0x40 MLOAD PUSH4 0x7E273289 PUSH1 0xE0 SHL DUP2 MSTORE PUSH1 0x4 DUP2 ADD DUP5 SWAP1 MSTORE PUSH1 0x24 ADD PUSH2 0xD50 JUMP JUMPDEST PUSH2 0x1688 DUP4 DUP4 DUP4 PUSH1 0x1 PUSH2 0x2879 JUMP JUMPDEST PUSH0 PUSH1 0x64 DUP3 PUSH4 0xFFFFFFFF AND LT ISZERO PUSH2 0x23AF JUMPI POP PUSH1 0x1 SWAP2 SWAP1 POP JUMP JUMPDEST PUSH2 0x12C DUP3 PUSH4 0xFFFFFFFF AND LT ISZERO PUSH2 0x23C7 JUMPI POP PUSH1 0x2 SWAP2 SWAP1 POP JUMP JUMPDEST PUSH2 0x258 DUP3 PUSH4 0xFFFFFFFF AND LT ISZERO PUSH2 0x23DF JUMPI POP PUSH1 0x3 SWAP2 SWAP1 POP JUMP JUMPDEST PUSH2 0x3E8 DUP3 PUSH4 0xFFFFFFFF AND LT ISZERO PUSH2 0x23F7 JUMPI POP PUSH1 0x4 SWAP2 SWAP1 POP JUMP JUMPDEST POP PUSH1 0x5 SWAP2 SWAP1 POP JUMP JUMPDEST PUSH0 DUP1 PUSH2 0x240C DUP6 DUP6 DUP6 PUSH2 0x297D JUMP JUMPDEST SWAP1 POP PUSH1 0x1 PUSH1 0x1 PUSH1 0xA0 SHL SUB DUP2 AND PUSH2 0x2468 JUMPI PUSH2 0x2463 DUP5 PUSH1 0x8 DUP1 SLOAD PUSH0 DUP4 DUP2 MSTORE PUSH1 0x9 PUSH1 0x20 MSTORE PUSH1 0x40 DUP2 KECCAK256 DUP3 SWAP1 SSTORE PUSH1 0x1 DUP3 ADD DUP4 SSTORE SWAP2 SWAP1 SWAP2 MSTORE PUSH32 0xF3F7A9FE364FAAB93B216DA50A3214154F22A0A2B415B23A84C8169E8B636EE3 ADD SSTORE JUMP JUMPDEST PUSH2 0x248B JUMP JUMPDEST DUP5 PUSH1 0x1 PUSH1 0x1 PUSH1 0xA0 SHL SUB AND DUP2 PUSH1 0x1 PUSH1 0x1 PUSH1 0xA0 SHL SUB AND EQ PUSH2 0x248B JUMPI PUSH2 0x248B DUP2 DUP6 PUSH2 0x2A6F JUMP JUMPDEST PUSH1 0x1 PUSH1 0x1 PUSH1 0xA0 SHL SUB DUP6 AND PUSH2 0x24A7 JUMPI PUSH2 0x24A2 DUP5 PUSH2 0x2AEC JUMP JUMPDEST PUSH2 0x24CA JUMP JUMPDEST DUP5 PUSH1 0x1 PUSH1 0x1 PUSH1 0xA0 SHL SUB AND DUP2 PUSH1 0x1 PUSH1 0x1 PUSH1 0xA0 SHL SUB AND EQ PUSH2 0x24CA JUMPI PUSH2 0x24CA DUP6 DUP6 PUSH2 0x2B93 JUMP JUMPDEST SWAP5 SWAP4 POP POP POP POP JUMP JUMPDEST PUSH1 0xA SLOAD PUSH1 0x1 PUSH1 0x1 PUSH1 0xA0 SHL SUB AND CALLER EQ PUSH2 0x1A17 JUMPI PUSH1 0x40 MLOAD PUSH4 0x118CDAA7 PUSH1 0xE0 SHL DUP2 MSTORE CALLER PUSH1 0x4 DUP3 ADD MSTORE PUSH1 0x24 ADD PUSH2 0xD50 JUMP JUMPDEST PUSH2 0xCE1 DUP3 DUP3 PUSH1 0x40 MLOAD DUP1 PUSH1 0x20 ADD PUSH1 0x40 MSTORE DUP1 PUSH0 DUP2 MSTORE POP PUSH2 0x2BE1 JUMP JUMPDEST PUSH2 0x232B DUP2 CALLER PUSH2 0x2BF8 JUMP JUMPDEST PUSH0 PUSH2 0x252D DUP4 DUP4 PUSH2 0x1CB4 JUMP JUMPDEST PUSH2 0x25AC JUMPI PUSH0 DUP4 DUP2 MSTORE PUSH1 0xB PUSH1 0x20 SWAP1 DUP2 MSTORE PUSH1 0x40 DUP1 DUP4 KECCAK256 PUSH1 0x1 PUSH1 0x1 PUSH1 0xA0 SHL SUB DUP7 AND DUP5 MSTORE SWAP1 SWAP2 MSTORE SWAP1 KECCAK256 DUP1 SLOAD PUSH1 0xFF NOT AND PUSH1 0x1 OR SWAP1 SSTORE PUSH2 0x2564 CALLER SWAP1 JUMP JUMPDEST PUSH1 0x1 PUSH1 0x1 PUSH1 0xA0 SHL SUB AND DUP3 PUSH1 0x1 PUSH1 0x1 PUSH1 0xA0 SHL SUB AND DUP5 PUSH32 0x2F8788117E7EFF1D82E926EC794901D17C78024A50270940304540A733656F0D PUSH1 0x40 MLOAD PUSH1 0x40 MLOAD DUP1 SWAP2 SUB SWAP1 LOG4 POP PUSH1 0x1 PUSH2 0xC1A JUMP JUMPDEST POP PUSH0 PUSH2 0xC1A JUMP JUMPDEST PUSH0 PUSH2 0x25BE DUP4 DUP4 PUSH2 0x1CB4 JUMP JUMPDEST ISZERO PUSH2 0x25AC JUMPI PUSH0 DUP4 DUP2 MSTORE PUSH1 0xB PUSH1 0x20 SWAP1 DUP2 MSTORE PUSH1 0x40 DUP1 DUP4 KECCAK256 PUSH1 0x1 PUSH1 0x1 PUSH1 0xA0 SHL SUB DUP7 AND DUP1 DUP6 MSTORE SWAP3 MSTORE DUP1 DUP4 KECCAK256 DUP1 SLOAD PUSH1 0xFF NOT AND SWAP1 SSTORE MLOAD CALLER SWAP3 DUP7 SWAP2 PUSH32 0xF6391F5C32D9C69D2A47EA670B442974B53935D1EDC7FD64EB21E047A839171B SWAP2 SWAP1 LOG4 POP PUSH1 0x1 PUSH2 0xC1A JUMP JUMPDEST PUSH1 0xA DUP1 SLOAD PUSH1 0x1 PUSH1 0x1 PUSH1 0xA0 SHL SUB DUP4 DUP2 AND PUSH1 0x1 PUSH1 0x1 PUSH1 0xA0 SHL SUB NOT DUP4 AND DUP2 OR SWAP1 SWAP4 SSTORE PUSH1 0x40 MLOAD SWAP2 AND SWAP2 SWAP1 DUP3 SWAP1 PUSH32 0x8BE0079C531659141344CD1FD0A4F28419497F9722A3DAAFE3B4186F6B6457E0 SWAP1 PUSH0 SWAP1 LOG3 POP POP JUMP JUMPDEST PUSH0 PUSH2 0x267A DUP3 DUP5 PUSH2 0x35DC JUMP JUMPDEST NUMBER LT ISZERO SWAP4 SWAP3 POP POP POP JUMP JUMPDEST PUSH1 0x1 PUSH1 0x1 PUSH1 0xA0 SHL SUB DUP3 AND PUSH2 0x26B6 JUMPI PUSH1 0x40 MLOAD PUSH4 0xB611743 PUSH1 0xE3 SHL DUP2 MSTORE PUSH1 0x1 PUSH1 0x1 PUSH1 0xA0 SHL SUB DUP4 AND PUSH1 0x4 DUP3 ADD MSTORE PUSH1 0x24 ADD PUSH2 0xD50 JUMP JUMPDEST PUSH1 0x1 PUSH1 0x1 PUSH1 0xA0 SHL SUB DUP4 DUP2 AND PUSH0 DUP2 DUP2 MSTORE PUSH1 0x5 PUSH1 0x20 SWAP1 DUP2 MSTORE PUSH1 0x40 DUP1 DUP4 KECCAK256 SWAP5 DUP8 AND DUP1 DUP5 MSTORE SWAP5 DUP3 MSTORE SWAP2 DUP3 SWAP1 KECCAK256 DUP1 SLOAD PUSH1 0xFF NOT AND DUP7 ISZERO ISZERO SWAP1 DUP2 OR SWAP1 SWAP2 SSTORE SWAP2 MLOAD SWAP2 DUP3 MSTORE PUSH32 0x17307EAB39AB6107E8899845AD3D59BD9653F200F220920489CA2B5937696C31 SWAP2 ADD PUSH1 0x40 MLOAD DUP1 SWAP2 SUB SWAP1 LOG3 POP POP POP JUMP JUMPDEST PUSH2 0x1FFB DUP5 DUP5 DUP5 PUSH2 0x2C31 JUMP JUMPDEST PUSH1 0x1 PUSH1 0x1 PUSH1 0xA0 SHL SUB DUP4 AND EXTCODESIZE ISZERO PUSH2 0x284E JUMPI PUSH1 0x40 MLOAD PUSH4 0xA85BD01 PUSH1 0xE1 SHL DUP2 MSTORE PUSH1 0x1 PUSH1 0x1 PUSH1 0xA0 SHL SUB DUP5 AND SWAP1 PUSH4 0x150B7A02 SWAP1 PUSH2 0x276F SWAP1 DUP9 SWAP1 DUP9 SWAP1 DUP8 SWAP1 DUP8 SWAP1 PUSH1 0x4 ADD PUSH2 0x35EF JUMP JUMPDEST PUSH1 0x20 PUSH1 0x40 MLOAD DUP1 DUP4 SUB DUP2 PUSH0 DUP8 GAS CALL SWAP3 POP POP POP DUP1 ISZERO PUSH2 0x27A9 JUMPI POP PUSH1 0x40 DUP1 MLOAD PUSH1 0x1F RETURNDATASIZE SWAP1 DUP2 ADD PUSH1 0x1F NOT AND DUP3 ADD SWAP1 SWAP3 MSTORE PUSH2 0x27A6 SWAP2 DUP2 ADD SWAP1 PUSH2 0x3621 JUMP JUMPDEST PUSH1 0x1 JUMPDEST PUSH2 0x2810 JUMPI RETURNDATASIZE DUP1 DUP1 ISZERO PUSH2 0x27D6 JUMPI PUSH1 0x40 MLOAD SWAP2 POP PUSH1 0x1F NOT PUSH1 0x3F RETURNDATASIZE ADD AND DUP3 ADD PUSH1 0x40 MSTORE RETURNDATASIZE DUP3 MSTORE RETURNDATASIZE PUSH0 PUSH1 0x20 DUP5 ADD RETURNDATACOPY PUSH2 0x27DB JUMP JUMPDEST PUSH1 0x60 SWAP2 POP JUMPDEST POP DUP1 MLOAD PUSH0 SUB PUSH2 0x2808 JUMPI PUSH1 0x40 MLOAD PUSH4 0x32505749 PUSH1 0xE1 SHL DUP2 MSTORE PUSH1 0x1 PUSH1 0x1 PUSH1 0xA0 SHL SUB DUP6 AND PUSH1 0x4 DUP3 ADD MSTORE PUSH1 0x24 ADD PUSH2 0xD50 JUMP JUMPDEST DUP1 MLOAD PUSH1 0x20 DUP3 ADD REVERT JUMPDEST PUSH1 0x1 PUSH1 0x1 PUSH1 0xE0 SHL SUB NOT DUP2 AND PUSH4 0xA85BD01 PUSH1 0xE1 SHL EQ PUSH2 0x284C JUMPI PUSH1 0x40 MLOAD PUSH4 0x32505749 PUSH1 0xE1 SHL DUP2 MSTORE PUSH1 0x1 PUSH1 0x1 PUSH1 0xA0 SHL SUB DUP6 AND PUSH1 0x4 DUP3 ADD MSTORE PUSH1 0x24 ADD PUSH2 0xD50 JUMP JUMPDEST POP JUMPDEST POP POP POP POP POP JUMP JUMPDEST PUSH0 PUSH1 0x1 PUSH1 0x1 PUSH1 0xE0 SHL SUB NOT DUP3 AND PUSH4 0x780E9D63 PUSH1 0xE0 SHL EQ DUP1 PUSH2 0xC1A JUMPI POP PUSH2 0xC1A DUP3 PUSH2 0x2CDE JUMP JUMPDEST DUP1 DUP1 PUSH2 0x288D JUMPI POP PUSH1 0x1 PUSH1 0x1 PUSH1 0xA0 SHL SUB DUP3 AND ISZERO ISZERO JUMPDEST ISZERO PUSH2 0x294E JUMPI PUSH0 PUSH2 0x289C DUP5 PUSH2 0x2352 JUMP JUMPDEST SWAP1 POP PUSH1 0x1 PUSH1 0x1 PUSH1 0xA0 SHL SUB DUP4 AND ISZERO DUP1 ISZERO SWAP1 PUSH2 0x28C8 JUMPI POP DUP3 PUSH1 0x1 PUSH1 0x1 PUSH1 0xA0 SHL SUB AND DUP2 PUSH1 0x1 PUSH1 0x1 PUSH1 0xA0 SHL SUB AND EQ ISZERO JUMPDEST DUP1 ISZERO PUSH2 0x28DB JUMPI POP PUSH2 0x28D9 DUP2 DUP5 PUSH2 0x22C4 JUMP JUMPDEST ISZERO JUMPDEST ISZERO PUSH2 0x2904 JUMPI PUSH1 0x40 MLOAD PUSH4 0xA9FBF51F PUSH1 0xE0 SHL DUP2 MSTORE PUSH1 0x1 PUSH1 0x1 PUSH1 0xA0 SHL SUB DUP5 AND PUSH1 0x4 DUP3 ADD MSTORE PUSH1 0x24 ADD PUSH2 0xD50 JUMP JUMPDEST DUP2 ISZERO PUSH2 0x294C JUMPI DUP4 DUP6 PUSH1 0x1 PUSH1 0x1 PUSH1 0xA0 SHL SUB AND DUP3 PUSH1 0x1 PUSH1 0x1 PUSH1 0xA0 SHL SUB AND PUSH32 0x8C5BE1E5EBEC7D5BD14F71427D1E84F3DD0314C0F7B2291E5B200AC8C7C3B925 PUSH1 0x40 MLOAD PUSH1 0x40 MLOAD DUP1 SWAP2 SUB SWAP1 LOG4 JUMPDEST POP JUMPDEST POP POP PUSH0 SWAP1 DUP2 MSTORE PUSH1 0x4 PUSH1 0x20 MSTORE PUSH1 0x40 SWAP1 KECCAK256 DUP1 SLOAD PUSH1 0x1 PUSH1 0x1 PUSH1 0xA0 SHL SUB NOT AND PUSH1 0x1 PUSH1 0x1 PUSH1 0xA0 SHL SUB SWAP3 SWAP1 SWAP3 AND SWAP2 SWAP1 SWAP2 OR SWAP1 SSTORE JUMP JUMPDEST PUSH0 DUP3 DUP2 MSTORE PUSH1 0x2 PUSH1 0x20 MSTORE PUSH1 0x40 DUP2 KECCAK256 SLOAD PUSH1 0x1 PUSH1 0x1 PUSH1 0xA0 SHL SUB SWAP1 DUP2 AND SWAP1 DUP4 AND ISZERO PUSH2 0x29A9 JUMPI PUSH2 0x29A9 DUP2 DUP5 DUP7 PUSH2 0x2D2D JUMP JUMPDEST PUSH1 0x1 PUSH1 0x1 PUSH1 0xA0 SHL SUB DUP2 AND ISZERO PUSH2 0x29E3 JUMPI PUSH2 0x29C4 PUSH0 DUP6 PUSH0 DUP1 PUSH2 0x2879 JUMP JUMPDEST PUSH1 0x1 PUSH1 0x1 PUSH1 0xA0 SHL SUB DUP2 AND PUSH0 SWAP1 DUP2 MSTORE PUSH1 0x3 PUSH1 0x20 MSTORE PUSH1 0x40 SWAP1 KECCAK256 DUP1 SLOAD PUSH0 NOT ADD SWAP1 SSTORE JUMPDEST PUSH1 0x1 PUSH1 0x1 PUSH1 0xA0 SHL SUB DUP6 AND ISZERO PUSH2 0x2A11 JUMPI PUSH1 0x1 PUSH1 0x1 PUSH1 0xA0 SHL SUB DUP6 AND PUSH0 SWAP1 DUP2 MSTORE PUSH1 0x3 PUSH1 0x20 MSTORE PUSH1 0x40 SWAP1 KECCAK256 DUP1 SLOAD PUSH1 0x1 ADD SWAP1 SSTORE JUMPDEST PUSH0 DUP5 DUP2 MSTORE PUSH1 0x2 PUSH1 0x20 MSTORE PUSH1 0x40 DUP1 DUP3 KECCAK256 DUP1 SLOAD PUSH1 0x1 PUSH1 0x1 PUSH1 0xA0 SHL SUB NOT AND PUSH1 0x1 PUSH1 0x1 PUSH1 0xA0 SHL SUB DUP10 DUP2 AND SWAP2 DUP3 OR SWAP1 SWAP3 SSTORE SWAP2 MLOAD DUP8 SWAP4 SWAP2 DUP6 AND SWAP2 PUSH32 0xDDF252AD1BE2C89B69C2B068FC378DAA952BA7F163C4A11628F55A4DF523B3EF SWAP2 LOG4 SWAP5 SWAP4 POP POP POP POP JUMP JUMPDEST PUSH0 PUSH2 0x2A79 DUP4 PUSH2 0x19C1 JUMP JUMPDEST PUSH0 DUP4 DUP2 MSTORE PUSH1 0x7 PUSH1 0x20 SWAP1 DUP2 MSTORE PUSH1 0x40 DUP1 DUP4 KECCAK256 SLOAD PUSH1 0x1 PUSH1 0x1 PUSH1 0xA0 SHL SUB DUP9 AND DUP5 MSTORE PUSH1 0x6 SWAP1 SWAP3 MSTORE SWAP1 SWAP2 KECCAK256 SWAP2 SWAP3 POP SWAP1 DUP2 DUP4 EQ PUSH2 0x2ACE JUMPI PUSH0 DUP4 DUP2 MSTORE PUSH1 0x20 DUP3 DUP2 MSTORE PUSH1 0x40 DUP1 DUP4 KECCAK256 SLOAD DUP6 DUP5 MSTORE DUP2 DUP5 KECCAK256 DUP2 SWAP1 SSTORE DUP4 MSTORE PUSH1 0x7 SWAP1 SWAP2 MSTORE SWAP1 KECCAK256 DUP3 SWAP1 SSTORE JUMPDEST PUSH0 SWAP4 DUP5 MSTORE PUSH1 0x7 PUSH1 0x20 SWAP1 DUP2 MSTORE PUSH1 0x40 DUP1 DUP7 KECCAK256 DUP7 SWAP1 SSTORE SWAP4 DUP6 MSTORE MSTORE POP DUP2 KECCAK256 SSTORE POP JUMP JUMPDEST PUSH1 0x8 SLOAD PUSH0 SWAP1 PUSH2 0x2AFD SWAP1 PUSH1 0x1 SWAP1 PUSH2 0x3485 JUMP JUMPDEST PUSH0 DUP4 DUP2 MSTORE PUSH1 0x9 PUSH1 0x20 MSTORE PUSH1 0x40 DUP2 KECCAK256 SLOAD PUSH1 0x8 DUP1 SLOAD SWAP4 SWAP5 POP SWAP1 SWAP3 DUP5 SWAP1 DUP2 LT PUSH2 0x2B24 JUMPI PUSH2 0x2B24 PUSH2 0x34DB JUMP JUMPDEST SWAP1 PUSH0 MSTORE PUSH1 0x20 PUSH0 KECCAK256 ADD SLOAD SWAP1 POP DUP1 PUSH1 0x8 DUP4 DUP2 SLOAD DUP2 LT PUSH2 0x2B43 JUMPI PUSH2 0x2B43 PUSH2 0x34DB JUMP JUMPDEST PUSH0 SWAP2 DUP3 MSTORE PUSH1 0x20 DUP1 DUP4 KECCAK256 SWAP1 SWAP2 ADD SWAP3 SWAP1 SWAP3 SSTORE DUP3 DUP2 MSTORE PUSH1 0x9 SWAP1 SWAP2 MSTORE PUSH1 0x40 DUP1 DUP3 KECCAK256 DUP5 SWAP1 SSTORE DUP6 DUP3 MSTORE DUP2 KECCAK256 SSTORE PUSH1 0x8 DUP1 SLOAD DUP1 PUSH2 0x2B7A JUMPI PUSH2 0x2B7A PUSH2 0x363C JUMP JUMPDEST PUSH1 0x1 SWAP1 SUB DUP2 DUP2 SWAP1 PUSH0 MSTORE PUSH1 0x20 PUSH0 KECCAK256 ADD PUSH0 SWAP1 SSTORE SWAP1 SSTORE POP POP POP POP JUMP JUMPDEST PUSH0 PUSH1 0x1 PUSH2 0x2B9F DUP5 PUSH2 0x19C1 JUMP JUMPDEST PUSH2 0x2BA9 SWAP2 SWAP1 PUSH2 0x3485 JUMP JUMPDEST PUSH1 0x1 PUSH1 0x1 PUSH1 0xA0 SHL SUB SWAP1 SWAP4 AND PUSH0 SWAP1 DUP2 MSTORE PUSH1 0x6 PUSH1 0x20 SWAP1 DUP2 MSTORE PUSH1 0x40 DUP1 DUP4 KECCAK256 DUP7 DUP5 MSTORE DUP3 MSTORE DUP1 DUP4 KECCAK256 DUP6 SWAP1 SSTORE SWAP4 DUP3 MSTORE PUSH1 0x7 SWAP1 MSTORE SWAP2 SWAP1 SWAP2 KECCAK256 SWAP2 SWAP1 SWAP2 SSTORE POP JUMP JUMPDEST PUSH2 0x2BEB DUP4 DUP4 PUSH2 0x2D91 JUMP JUMPDEST PUSH2 0x1688 CALLER PUSH0 DUP6 DUP6 DUP6 PUSH2 0x272D JUMP JUMPDEST PUSH2 0x2C02 DUP3 DUP3 PUSH2 0x1CB4 JUMP JUMPDEST PUSH2 0xCE1 JUMPI PUSH1 0x40 MLOAD PUSH4 0xE2517D3F PUSH1 0xE0 SHL DUP2 MSTORE PUSH1 0x1 PUSH1 0x1 PUSH1 0xA0 SHL SUB DUP3 AND PUSH1 0x4 DUP3 ADD MSTORE PUSH1 0x24 DUP2 ADD DUP4 SWAP1 MSTORE PUSH1 0x44 ADD PUSH2 0xD50 JUMP JUMPDEST PUSH1 0x1 PUSH1 0x1 PUSH1 0xA0 SHL SUB DUP3 AND PUSH2 0x2C5A JUMPI PUSH1 0x40 MLOAD PUSH4 0x32505749 PUSH1 0xE1 SHL DUP2 MSTORE PUSH0 PUSH1 0x4 DUP3 ADD MSTORE PUSH1 0x24 ADD PUSH2 0xD50 JUMP JUMPDEST PUSH0 PUSH2 0x2C66 DUP4 DUP4 PUSH0 PUSH2 0x23FF JUMP JUMPDEST SWAP1 POP PUSH1 0x1 PUSH1 0x1 PUSH1 0xA0 SHL SUB DUP2 AND PUSH2 0x2C92 JUMPI PUSH1 0x40 MLOAD PUSH4 0x7E273289 PUSH1 0xE0 SHL DUP2 MSTORE PUSH1 0x4 DUP2 ADD DUP4 SWAP1 MSTORE PUSH1 0x24 ADD PUSH2 0xD50 JUMP JUMPDEST DUP4 PUSH1 0x1 PUSH1 0x1 PUSH1 0xA0 SHL SUB AND DUP2 PUSH1 0x1 PUSH1 0x1 PUSH1 0xA0 SHL SUB AND EQ PUSH2 0x142B JUMPI PUSH1 0x40 MLOAD PUSH4 0x64283D7B PUSH1 0xE0 SHL DUP2 MSTORE PUSH1 0x1 PUSH1 0x1 PUSH1 0xA0 SHL SUB DUP1 DUP7 AND PUSH1 0x4 DUP4 ADD MSTORE PUSH1 0x24 DUP3 ADD DUP5 SWAP1 MSTORE DUP3 AND PUSH1 0x44 DUP3 ADD MSTORE PUSH1 0x64 ADD PUSH2 0xD50 JUMP JUMPDEST PUSH0 PUSH1 0x1 PUSH1 0x1 PUSH1 0xE0 SHL SUB NOT DUP3 AND PUSH4 0x80AC58CD PUSH1 0xE0 SHL EQ DUP1 PUSH2 0x2D0E JUMPI POP PUSH1 0x1 PUSH1 0x1 PUSH1 0xE0 SHL SUB NOT DUP3 AND PUSH4 0x5B5E139F PUSH1 0xE0 SHL EQ JUMPDEST DUP1 PUSH2 0xC1A JUMPI POP PUSH4 0x1FFC9A7 PUSH1 0xE0 SHL PUSH1 0x1 PUSH1 0x1 PUSH1 0xE0 SHL SUB NOT DUP4 AND EQ PUSH2 0xC1A JUMP JUMPDEST PUSH2 0x2D38 DUP4 DUP4 DUP4 PUSH2 0x2DF2 JUMP JUMPDEST PUSH2 0x1688 JUMPI PUSH1 0x1 PUSH1 0x1 PUSH1 0xA0 SHL SUB DUP4 AND PUSH2 0x2D66 JUMPI PUSH1 0x40 MLOAD PUSH4 0x7E273289 PUSH1 0xE0 SHL DUP2 MSTORE PUSH1 0x4 DUP2 ADD DUP3 SWAP1 MSTORE PUSH1 0x24 ADD PUSH2 0xD50 JUMP JUMPDEST PUSH1 0x40 MLOAD PUSH4 0x177E802F PUSH1 0xE0 SHL DUP2 MSTORE PUSH1 0x1 PUSH1 0x1 PUSH1 0xA0 SHL SUB DUP4 AND PUSH1 0x4 DUP3 ADD MSTORE PUSH1 0x24 DUP2 ADD DUP3 SWAP1 MSTORE PUSH1 0x44 ADD PUSH2 0xD50 JUMP JUMPDEST PUSH1 0x1 PUSH1 0x1 PUSH1 0xA0 SHL SUB DUP3 AND PUSH2 0x2DBA JUMPI PUSH1 0x40 MLOAD PUSH4 0x32505749 PUSH1 0xE1 SHL DUP2 MSTORE PUSH0 PUSH1 0x4 DUP3 ADD MSTORE PUSH1 0x24 ADD PUSH2 0xD50 JUMP JUMPDEST PUSH0 PUSH2 0x2DC6 DUP4 DUP4 PUSH0 PUSH2 0x23FF JUMP JUMPDEST SWAP1 POP PUSH1 0x1 PUSH1 0x1 PUSH1 0xA0 SHL SUB DUP2 AND ISZERO PUSH2 0x1688 JUMPI PUSH1 0x40 MLOAD PUSH4 0x39E35637 PUSH1 0xE1 SHL DUP2 MSTORE PUSH0 PUSH1 0x4 DUP3 ADD MSTORE PUSH1 0x24 ADD PUSH2 0xD50 JUMP JUMPDEST PUSH0 PUSH1 0x1 PUSH1 0x1 PUSH1 0xA0 SHL SUB DUP4 AND ISZERO DUP1 ISZERO SWAP1 PUSH2 0x24CA JUMPI POP DUP3 PUSH1 0x1 PUSH1 0x1 PUSH1 0xA0 SHL SUB AND DUP5 PUSH1 0x1 PUSH1 0x1 PUSH1 0xA0 SHL SUB AND EQ DUP1 PUSH2 0x2E2B JUMPI POP PUSH2 0x2E2B DUP5 DUP5 PUSH2 0x22C4 JUMP JUMPDEST DUP1 PUSH2 0x24CA JUMPI POP POP PUSH0 SWAP1 DUP2 MSTORE PUSH1 0x4 PUSH1 0x20 MSTORE PUSH1 0x40 SWAP1 KECCAK256 SLOAD PUSH1 0x1 PUSH1 0x1 PUSH1 0xA0 SHL SUB SWAP1 DUP2 AND SWAP2 AND EQ SWAP2 SWAP1 POP JUMP JUMPDEST DUP3 DUP1 SLOAD DUP3 DUP3 SSTORE SWAP1 PUSH0 MSTORE PUSH1 0x20 PUSH0 KECCAK256 SWAP1 PUSH1 0x5 ADD PUSH1 0x6 SWAP1 DIV DUP2 ADD SWAP3 DUP3 ISZERO PUSH2 0x2EF2 JUMPI SWAP2 PUSH1 0x20 MUL DUP3 ADD PUSH0 JUMPDEST DUP4 DUP3 GT ISZERO PUSH2 0x2EBF JUMPI DUP4 MLOAD DUP4 DUP3 PUSH2 0x100 EXP DUP2 SLOAD DUP2 PUSH5 0xFFFFFFFFFF MUL NOT AND SWAP1 DUP4 PUSH5 0xFFFFFFFFFF AND MUL OR SWAP1 SSTORE POP SWAP3 PUSH1 0x20 ADD SWAP3 PUSH1 0x5 ADD PUSH1 0x20 DUP2 PUSH1 0x4 ADD DIV SWAP3 DUP4 ADD SWAP3 PUSH1 0x1 SUB MUL PUSH2 0x2E79 JUMP JUMPDEST DUP1 ISZERO PUSH2 0x2EF0 JUMPI DUP3 DUP2 PUSH2 0x100 EXP DUP2 SLOAD SWAP1 PUSH5 0xFFFFFFFFFF MUL NOT AND SWAP1 SSTORE PUSH1 0x5 ADD PUSH1 0x20 DUP2 PUSH1 0x4 ADD DIV SWAP3 DUP4 ADD SWAP3 PUSH1 0x1 SUB MUL PUSH2 0x2EBF JUMP JUMPDEST POP JUMPDEST POP PUSH2 0x2EFE SWAP3 SWAP2 POP PUSH2 0x2F02 JUMP JUMPDEST POP SWAP1 JUMP JUMPDEST JUMPDEST DUP1 DUP3 GT ISZERO PUSH2 0x2EFE JUMPI PUSH0 DUP2 SSTORE PUSH1 0x1 ADD PUSH2 0x2F03 JUMP JUMPDEST PUSH1 0x1 PUSH1 0x1 PUSH1 0xE0 SHL SUB NOT DUP2 AND DUP2 EQ PUSH2 0x232B JUMPI PUSH0 DUP1 REVERT JUMPDEST PUSH0 PUSH1 0x20 DUP3 DUP5 SUB SLT ISZERO PUSH2 0x2F3B JUMPI PUSH0 DUP1 REVERT JUMPDEST DUP2 CALLDATALOAD PUSH2 0x2F46 DUP2 PUSH2 0x2F16 JUMP JUMPDEST SWAP4 SWAP3 POP POP POP JUMP JUMPDEST PUSH0 DUP2 MLOAD DUP1 DUP5 MSTORE PUSH0 JUMPDEST DUP2 DUP2 LT ISZERO PUSH2 0x2F71 JUMPI PUSH1 0x20 DUP2 DUP6 ADD DUP2 ADD MLOAD DUP7 DUP4 ADD DUP3 ADD MSTORE ADD PUSH2 0x2F55 JUMP JUMPDEST POP PUSH0 PUSH1 0x20 DUP3 DUP7 ADD ADD MSTORE PUSH1 0x20 PUSH1 0x1F NOT PUSH1 0x1F DUP4 ADD AND DUP6 ADD ADD SWAP2 POP POP SWAP3 SWAP2 POP POP JUMP JUMPDEST PUSH1 0x20 DUP2 MSTORE PUSH0 PUSH2 0x2F46 PUSH1 0x20 DUP4 ADD DUP5 PUSH2 0x2F4D JUMP JUMPDEST PUSH0 PUSH1 0x20 DUP3 DUP5 SUB SLT ISZERO PUSH2 0x2FB2 JUMPI PUSH0 DUP1 REVERT JUMPDEST POP CALLDATALOAD SWAP2 SWAP1 POP JUMP JUMPDEST DUP1 CALLDATALOAD PUSH1 0x1 PUSH1 0x1 PUSH1 0xA0 SHL SUB DUP2 AND DUP2 EQ PUSH2 0x2FCF JUMPI PUSH0 DUP1 REVERT JUMPDEST SWAP2 SWAP1 POP JUMP JUMPDEST PUSH0 DUP1 PUSH1 0x40 DUP4 DUP6 SUB SLT ISZERO PUSH2 0x2FE5 JUMPI PUSH0 DUP1 REVERT JUMPDEST PUSH2 0x2FEE DUP4 PUSH2 0x2FB9 JUMP JUMPDEST SWAP5 PUSH1 0x20 SWAP4 SWAP1 SWAP4 ADD CALLDATALOAD SWAP4 POP POP POP JUMP JUMPDEST DUP1 CALLDATALOAD PUSH5 0xFFFFFFFFFF DUP2 AND DUP2 EQ PUSH2 0x2FCF JUMPI PUSH0 DUP1 REVERT JUMPDEST PUSH0 PUSH1 0x20 DUP3 DUP5 SUB SLT ISZERO PUSH2 0x3020 JUMPI PUSH0 DUP1 REVERT JUMPDEST PUSH2 0x2F46 DUP3 PUSH2 0x2FFC JUMP JUMPDEST PUSH0 DUP1 PUSH1 0x40 DUP4 DUP6 SUB SLT ISZERO PUSH2 0x303A JUMPI PUSH0 DUP1 REVERT JUMPDEST PUSH2 0x3043 DUP4 PUSH2 0x2FFC JUMP JUMPDEST SWAP2 POP PUSH2 0x3051 PUSH1 0x20 DUP5 ADD PUSH2 0x2FFC JUMP JUMPDEST SWAP1 POP SWAP3 POP SWAP3 SWAP1 POP JUMP JUMPDEST PUSH1 0x20 DUP1 DUP3 MSTORE DUP3 MLOAD DUP3 DUP3 ADD DUP2 SWAP1 MSTORE PUSH0 SWAP2 SWAP1 PUSH1 0x40 SWAP1 DUP2 DUP6 ADD SWAP1 DUP7 DUP5 ADD DUP6 JUMPDEST DUP3 DUP2 LT ISZERO PUSH2 0x30B0 JUMPI DUP2 MLOAD DUP1 MLOAD PUSH5 0xFFFFFFFFFF SWAP1 DUP2 AND DUP7 MSTORE DUP8 DUP3 ADD MLOAD DUP9 DUP8 ADD MSTORE SWAP1 DUP7 ADD MLOAD AND DUP6 DUP6 ADD MSTORE PUSH1 0x60 SWAP1 SWAP4 ADD SWAP3 SWAP1 DUP6 ADD SWAP1 PUSH1 0x1 ADD PUSH2 0x3076 JUMP JUMPDEST POP SWAP2 SWAP8 SWAP7 POP POP POP POP POP POP POP JUMP JUMPDEST PUSH4 0x4E487B71 PUSH1 0xE0 SHL PUSH0 MSTORE PUSH1 0x21 PUSH1 0x4 MSTORE PUSH1 0x24 PUSH0 REVERT JUMPDEST PUSH5 0xFFFFFFFFFF DUP7 DUP2 AND DUP3 MSTORE DUP6 DUP2 AND PUSH1 0x20 DUP4 ADD MSTORE PUSH1 0xA0 DUP3 ADD SWAP1 PUSH1 0x4 DUP7 LT PUSH2 0x3105 JUMPI PUSH4 0x4E487B71 PUSH1 0xE0 SHL PUSH0 MSTORE PUSH1 0x21 PUSH1 0x4 MSTORE PUSH1 0x24 PUSH0 REVERT JUMPDEST PUSH1 0x40 DUP4 ADD SWAP6 SWAP1 SWAP6 MSTORE PUSH1 0x1 PUSH1 0x1 PUSH1 0xA0 SHL SUB SWAP4 SWAP1 SWAP4 AND PUSH1 0x60 DUP3 ADD MSTORE SWAP3 AND PUSH1 0x80 SWAP1 SWAP3 ADD SWAP2 SWAP1 SWAP2 MSTORE SWAP3 SWAP2 POP POP JUMP JUMPDEST PUSH0 DUP1 PUSH0 PUSH1 0x60 DUP5 DUP7 SUB SLT ISZERO PUSH2 0x3141 JUMPI PUSH0 DUP1 REVERT JUMPDEST PUSH2 0x314A DUP5 PUSH2 0x2FB9 JUMP JUMPDEST SWAP3 POP PUSH2 0x3158 PUSH1 0x20 DUP6 ADD PUSH2 0x2FB9 JUMP JUMPDEST SWAP2 POP PUSH1 0x40 DUP5 ADD CALLDATALOAD SWAP1 POP SWAP3 POP SWAP3 POP SWAP3 JUMP JUMPDEST PUSH0 DUP1 PUSH1 0x40 DUP4 DUP6 SUB SLT ISZERO PUSH2 0x3179 JUMPI PUSH0 DUP1 REVERT JUMPDEST DUP3 CALLDATALOAD SWAP2 POP PUSH2 0x3051 PUSH1 0x20 DUP5 ADD PUSH2 0x2FB9 JUMP JUMPDEST PUSH0 PUSH1 0x20 DUP3 DUP5 SUB SLT ISZERO PUSH2 0x3199 JUMPI PUSH0 DUP1 REVERT JUMPDEST PUSH2 0x2F46 DUP3 PUSH2 0x2FB9 JUMP JUMPDEST PUSH0 DUP1 PUSH0 PUSH1 0x40 DUP5 DUP7 SUB SLT ISZERO PUSH2 0x31B4 JUMPI PUSH0 DUP1 REVERT JUMPDEST PUSH2 0x31BD DUP5 PUSH2 0x2FFC JUMP JUMPDEST SWAP3 POP PUSH1 0x20 DUP5 ADD CALLDATALOAD PUSH8 0xFFFFFFFFFFFFFFFF DUP1 DUP3 GT ISZERO PUSH2 0x31D9 JUMPI PUSH0 DUP1 REVERT JUMPDEST DUP2 DUP7 ADD SWAP2 POP DUP7 PUSH1 0x1F DUP4 ADD SLT PUSH2 0x31EC JUMPI PUSH0 DUP1 REVERT JUMPDEST DUP2 CALLDATALOAD DUP2 DUP2 GT ISZERO PUSH2 0x31FA JUMPI PUSH0 DUP1 REVERT JUMPDEST DUP8 PUSH1 0x20 DUP3 DUP6 ADD ADD GT ISZERO PUSH2 0x320B JUMPI PUSH0 DUP1 REVERT JUMPDEST PUSH1 0x20 DUP4 ADD SWAP5 POP DUP1 SWAP4 POP POP POP POP SWAP3 POP SWAP3 POP SWAP3 JUMP JUMPDEST PUSH0 DUP1 PUSH1 0x40 DUP4 DUP6 SUB SLT ISZERO PUSH2 0x322F JUMPI PUSH0 DUP1 REVERT JUMPDEST POP POP DUP1 CALLDATALOAD SWAP3 PUSH1 0x20 SWAP1 SWAP2 ADD CALLDATALOAD SWAP2 POP JUMP JUMPDEST PUSH0 DUP1 PUSH1 0x40 DUP4 DUP6 SUB SLT ISZERO PUSH2 0x324F JUMPI PUSH0 DUP1 REVERT JUMPDEST PUSH2 0x3258 DUP4 PUSH2 0x2FB9 JUMP JUMPDEST SWAP2 POP PUSH1 0x20 DUP4 ADD CALLDATALOAD DUP1 ISZERO ISZERO DUP2 EQ PUSH2 0x326C JUMPI PUSH0 DUP1 REVERT JUMPDEST DUP1 SWAP2 POP POP SWAP3 POP SWAP3 SWAP1 POP JUMP JUMPDEST PUSH1 0x60 DUP2 MSTORE PUSH0 PUSH2 0x3289 PUSH1 0x60 DUP4 ADD DUP7 PUSH2 0x2F4D JUMP JUMPDEST DUP3 DUP2 SUB PUSH1 0x20 DUP5 ADD MSTORE PUSH2 0x329B DUP2 DUP7 PUSH2 0x2F4D JUMP JUMPDEST SWAP1 POP DUP3 DUP2 SUB PUSH1 0x40 DUP5 ADD MSTORE PUSH2 0x32AF DUP2 DUP6 PUSH2 0x2F4D JUMP JUMPDEST SWAP7 SWAP6 POP POP POP POP POP POP JUMP JUMPDEST PUSH4 0x4E487B71 PUSH1 0xE0 SHL PUSH0 MSTORE PUSH1 0x41 PUSH1 0x4 MSTORE PUSH1 0x24 PUSH0 REVERT JUMPDEST PUSH0 DUP1 PUSH0 DUP1 PUSH1 0x80 DUP6 DUP8 SUB SLT ISZERO PUSH2 0x32E0 JUMPI PUSH0 DUP1 REVERT JUMPDEST PUSH2 0x32E9 DUP6 PUSH2 0x2FB9 JUMP JUMPDEST SWAP4 POP PUSH2 0x32F7 PUSH1 0x20 DUP7 ADD PUSH2 0x2FB9 JUMP JUMPDEST SWAP3 POP PUSH1 0x40 DUP6 ADD CALLDATALOAD SWAP2 POP PUSH1 0x60 DUP6 ADD CALLDATALOAD PUSH8 0xFFFFFFFFFFFFFFFF DUP1 DUP3 GT ISZERO PUSH2 0x331A JUMPI PUSH0 DUP1 REVERT JUMPDEST DUP2 DUP8 ADD SWAP2 POP DUP8 PUSH1 0x1F DUP4 ADD SLT PUSH2 0x332D JUMPI PUSH0 DUP1 REVERT JUMPDEST DUP2 CALLDATALOAD DUP2 DUP2 GT ISZERO PUSH2 0x333F JUMPI PUSH2 0x333F PUSH2 0x32B9 JUMP JUMPDEST PUSH1 0x40 MLOAD PUSH1 0x1F DUP3 ADD PUSH1 0x1F NOT SWAP1 DUP2 AND PUSH1 0x3F ADD AND DUP2 ADD SWAP1 DUP4 DUP3 GT DUP2 DUP4 LT OR ISZERO PUSH2 0x3367 JUMPI PUSH2 0x3367 PUSH2 0x32B9 JUMP JUMPDEST DUP2 PUSH1 0x40 MSTORE DUP3 DUP2 MSTORE DUP11 PUSH1 0x20 DUP5 DUP8 ADD ADD GT ISZERO PUSH2 0x337F JUMPI PUSH0 DUP1 REVERT JUMPDEST DUP3 PUSH1 0x20 DUP7 ADD PUSH1 0x20 DUP4 ADD CALLDATACOPY PUSH0 PUSH1 0x20 DUP5 DUP4 ADD ADD MSTORE DUP1 SWAP6 POP POP POP POP POP POP SWAP3 SWAP6 SWAP2 SWAP5 POP SWAP3 POP JUMP JUMPDEST PUSH0 DUP1 PUSH1 0x20 DUP4 DUP6 SUB SLT ISZERO PUSH2 0x33B3 JUMPI PUSH0 DUP1 REVERT JUMPDEST DUP3 CALLDATALOAD PUSH8 0xFFFFFFFFFFFFFFFF DUP1 DUP3 GT ISZERO PUSH2 0x33CA JUMPI PUSH0 DUP1 REVERT JUMPDEST DUP2 DUP6 ADD SWAP2 POP DUP6 PUSH1 0x1F DUP4 ADD SLT PUSH2 0x33DD JUMPI PUSH0 DUP1 REVERT JUMPDEST DUP2 CALLDATALOAD DUP2 DUP2 GT ISZERO PUSH2 0x33EB JUMPI PUSH0 DUP1 REVERT JUMPDEST DUP7 PUSH1 0x20 DUP3 PUSH1 0x5 SHL DUP6 ADD ADD GT ISZERO PUSH2 0x33FF JUMPI PUSH0 DUP1 REVERT JUMPDEST PUSH1 0x20 SWAP3 SWAP1 SWAP3 ADD SWAP7 SWAP2 SWAP6 POP SWAP1 SWAP4 POP POP POP POP JUMP JUMPDEST PUSH0 DUP1 PUSH1 0x40 DUP4 DUP6 SUB SLT ISZERO PUSH2 0x3422 JUMPI PUSH0 DUP1 REVERT JUMPDEST PUSH2 0x342B DUP4 PUSH2 0x2FB9 JUMP JUMPDEST SWAP2 POP PUSH2 0x3051 PUSH1 0x20 DUP5 ADD PUSH2 0x2FB9 JUMP JUMPDEST PUSH1 0x1 DUP2 DUP2 SHR SWAP1 DUP3 AND DUP1 PUSH2 0x344D JUMPI PUSH1 0x7F DUP3 AND SWAP2 POP JUMPDEST PUSH1 0x20 DUP3 LT DUP2 SUB PUSH2 0x346B JUMPI PUSH4 0x4E487B71 PUSH1 0xE0 SHL PUSH0 MSTORE PUSH1 0x22 PUSH1 0x4 MSTORE PUSH1 0x24 PUSH0 REVERT JUMPDEST POP SWAP2 SWAP1 POP JUMP JUMPDEST PUSH4 0x4E487B71 PUSH1 0xE0 SHL PUSH0 MSTORE PUSH1 0x11 PUSH1 0x4 MSTORE PUSH1 0x24 PUSH0 REVERT JUMPDEST DUP2 DUP2 SUB DUP2 DUP2 GT ISZERO PUSH2 0xC1A JUMPI PUSH2 0xC1A PUSH2 0x3471 JUMP JUMPDEST PUSH0 DUP3 PUSH2 0x34B2 JUMPI PUSH4 0x4E487B71 PUSH1 0xE0 SHL PUSH0 MSTORE PUSH1 0x12 PUSH1 0x4 MSTORE PUSH1 0x24 PUSH0 REVERT JUMPDEST POP MOD SWAP1 JUMP JUMPDEST PUSH4 0xFFFFFFFF DUP2 DUP2 AND DUP4 DUP3 AND ADD SWAP1 DUP1 DUP3 GT ISZERO PUSH2 0x34D4 JUMPI PUSH2 0x34D4 PUSH2 0x3471 JUMP JUMPDEST POP SWAP3 SWAP2 POP POP JUMP JUMPDEST PUSH4 0x4E487B71 PUSH1 0xE0 SHL PUSH0 MSTORE PUSH1 0x32 PUSH1 0x4 MSTORE PUSH1 0x24 PUSH0 REVERT JUMPDEST PUSH0 PUSH5 0xFFFFFFFFFF DUP1 DUP4 AND DUP2 DUP2 SUB PUSH2 0x3508 JUMPI PUSH2 0x3508 PUSH2 0x3471 JUMP JUMPDEST PUSH1 0x1 ADD SWAP4 SWAP3 POP POP POP JUMP JUMPDEST PUSH5 0xFFFFFFFFFF DUP3 DUP2 AND DUP3 DUP3 AND SUB SWAP1 DUP1 DUP3 GT ISZERO PUSH2 0x34D4 JUMPI PUSH2 0x34D4 PUSH2 0x3471 JUMP JUMPDEST PUSH1 0x20 DUP1 DUP3 MSTORE PUSH1 0xD SWAP1 DUP3 ADD MSTORE PUSH13 0x2737BA1027232A1037BBB732B9 PUSH1 0x99 SHL PUSH1 0x40 DUP3 ADD MSTORE PUSH1 0x60 ADD SWAP1 JUMP JUMPDEST DUP2 DUP4 DUP3 CALLDATACOPY PUSH0 SWAP2 ADD SWAP1 DUP2 MSTORE SWAP2 SWAP1 POP JUMP JUMPDEST PUSH0 PUSH1 0x1 DUP3 ADD PUSH2 0x3577 JUMPI PUSH2 0x3577 PUSH2 0x3471 JUMP JUMPDEST POP PUSH1 0x1 ADD SWAP1 JUMP JUMPDEST PUSH1 0x40 DUP1 DUP3 MSTORE DUP2 ADD DUP4 SWAP1 MSTORE PUSH0 DUP5 PUSH1 0x60 DUP4 ADD DUP3 JUMPDEST DUP7 DUP2 LT ISZERO PUSH2 0x35BC JUMPI PUSH5 0xFFFFFFFFFF PUSH2 0x35A7 DUP5 PUSH2 0x2FFC JUMP JUMPDEST AND DUP3 MSTORE PUSH1 0x20 SWAP3 DUP4 ADD SWAP3 SWAP1 SWAP2 ADD SWAP1 PUSH1 0x1 ADD PUSH2 0x3590 JUMP JUMPDEST POP PUSH1 0x1 PUSH1 0x1 PUSH1 0xA0 SHL SUB SWAP5 SWAP1 SWAP5 AND PUSH1 0x20 SWAP4 SWAP1 SWAP4 ADD SWAP3 SWAP1 SWAP3 MSTORE POP SWAP1 SWAP4 SWAP3 POP POP POP JUMP JUMPDEST DUP1 DUP3 ADD DUP1 DUP3 GT ISZERO PUSH2 0xC1A JUMPI PUSH2 0xC1A PUSH2 0x3471 JUMP JUMPDEST PUSH1 0x1 PUSH1 0x1 PUSH1 0xA0 SHL SUB DUP6 DUP2 AND DUP3 MSTORE DUP5 AND PUSH1 0x20 DUP3 ADD MSTORE PUSH1 0x40 DUP2 ADD DUP4 SWAP1 MSTORE PUSH1 0x80 PUSH1 0x60 DUP3 ADD DUP2 SWAP1 MSTORE PUSH0 SWAP1 PUSH2 0x32AF SWAP1 DUP4 ADD DUP5 PUSH2 0x2F4D JUMP JUMPDEST PUSH0 PUSH1 0x20 DUP3 DUP5 SUB SLT ISZERO PUSH2 0x3631 JUMPI PUSH0 DUP1 REVERT JUMPDEST DUP2 MLOAD PUSH2 0x2F46 DUP2 PUSH2 0x2F16 JUMP JUMPDEST PUSH4 0x4E487B71 PUSH1 0xE0 SHL PUSH0 MSTORE PUSH1 0x31 PUSH1 0x4 MSTORE PUSH1 0x24 PUSH0 REVERT INVALID PUSH5 0x6174613A69 PUSH14 0x6167652F706E673B626173653634 0x2C PUSH10 0x56424F5277304B47676F COINBASE COINBASE COINBASE COINBASE 0x4E MSTORE8 SSTORE PUSH9 0x455567414141674141 COINBASE COINBASE 0x49 COINBASE NUMBER COINBASE MSIZE COINBASE COINBASE COINBASE PREVRANDAO ADDRESS PUSH6 0x4E5436414141 COINBASE NUMBER PC TIMESTAMP 0x49 JUMPI PC 0x4D COINBASE COINBASE COINBASE PUSH20 0x544141414C457745416D7077594141414B54326C PREVRANDAO MLOAD BALANCE TIMESTAMP MLOAD PUSH2 0x4739 ADDRESS PUSH3 0x334E6F PUSH3 0x334167 MSTORE8 SSTORE 0x4E PREVRANDAO 0x49 BASEFEE TIMESTAMP PUSH26 0x62325A706247554141486A616E564E6E56465070466A33333376 MSTORE NUMBER MSTORE8 CALLVALUE PUSH10 0x416C4574765568554949 CHAINID 0x4A NUMBER PUSH10 0x3441556B53597149516B MLOAD MSTORE8 PUSH16 0x67686F646B5655634552525555454738 PUSH10 0x6769414F4F6A6F434D46 JUMP GASLIMIT PUSH20 0x44496F4B3241666B49614B4F67364F4969737237 CALLVALUE PC PUSH22 0x6A61396138392B624E2F725858507565733835327A7A PUSH24 0x66414341795753444E524E59414D71554965456543447838 SLOAD SELFBALANCE CALLVALUE PUSH6 0x51755149454B 0x4A BASEFEE COINBASE COINBASE GASLIMIT COINBASE PUSH10 0x7A5A43467A2F534D4241 POP PUSH9 0x2B5044777249734148 PUSH23 0x674142654E4D4C43414441545A76414D4279482F772F71 MLOAD PUSH17 0x6C6341594345416342306B54684C434941 SSTORE COINBASE GASLIMIT TIMESTAMP CALLDATASIZE PUSH11 0x6B4B6D4145424741594364 PUSH14 0x435A54414B41454147444C59324C PUSH11 0x414641744147416E662B62 SLOAD COINBASE 0x49 NUMBER PUSH5 0x2B4A6C3741 MLOAD TIMESTAMP PUSH3 0x6C4345 JUMP COINBASE PUSH2 0x4352 COINBASE NUMBER COINBASE SLOAD GAS MSIZE PUSH9 0x4541476737414B7A50 JUMP PUSH16 0x7046414667774142526D53385135414E PUSH8 0x744144424A56325A 0x49 COINBASE 0x4C NUMBER CALLER COINBASE 0x4D PREVRANDAO 0x4F GASLIMIT COINBASE PUSH22 0x794141674D4144425269495570414152374147444949 PUSH26 0x4E344149535A41425247386C633838537575454F637141414234 PUSH14 0x6249387553513552594662434331 PUSH25 0x423164584C68346F7A6B6B584B78513259514A686D6B417577 PUSH15 0x6D5A47544B424E412F673838774141 0x4B NUMBER MSTORE CHAINID MSTORE BASEFEE PUSH8 0x672F5039654D344F PUSH19 0x73374F4E6F3632446C3874367238472F794A69 MSIZE PUSH22 0x502B35632B7263454141414F46306674482B4C432B7A SELFBALANCE PUSH16 0x4137426F42742F71496C3767526F5867 PUSH22 0x676466654C5A724950514C55416F4F6E61562F4E772B BASEFEE CALLVALUE CODESIZE POP GASLIMIT JUMPI PUSH9 0x6B4C6E5A3265586B35 0x4E PUSH9 0x4B78454A6259637058 PUSH7 0x66356E776C2F41 JUMP 0x2F BALANCE PUSH20 0x2B5834382F506631344C37694A49457958594648 TIMESTAMP POP PUSH11 0x6777737A30544B55637A35 0x49 0x4A PUSH9 0x474C63356F39482F4C PUSH4 0x4C2F2F77 PUSH5 0x30794C4553 JUMPI 0x4B CALLDATALOAD JUMPI NUMBER PUSH16 0x5534314553635935456D6F7A7A4D7155 PUSH10 0x69554B534B63556C3076 CODECOPY PUSH12 0x347438732B774D2B337A5541 PUSH20 0x476F2B415875524C616864597750325379635157 BASEFEE SLOAD COINBASE CALLVALUE PUSH23 0x634141504B37623848554B41674467476944346339332F 0x2B CODESIZE 0x2F 0x2F SSTORE PUSH6 0x674A5143415A PUSH12 0x6D5363514141586B516B4C6C SLOAD 0x4B PUSH20 0x7A2F4843414141524B43424B724242472F544247 NUMBER PUSH27 0x4142687A4242647A42432F78674E6F52434A4D544351684243436D MSTORE8 COINBASE BASEFEE BASEFEE 0x4A PUSH8 0x4B61794351696947 PUSH27 0x6241644B6D4176314541644E4D42526149615463413475776C5734 PREVRANDAO PUSH11 0x3177442F7068434A37424B 0x4C PUSH26 0x4243515242794167545953486169414669696C676A6A6767586D MSIZE PC CALLVALUE 0x49 PUSH4 0x46494242 0x4B 0x4C 0x4A NUMBER PREVRANDAO 0x4A PUSH10 0x425252496B75524E5567 PUSH25 0x556F7055494656494866493963674935683178477570453779 COINBASE COINBASE PUSH26 0x67767947764563786C49477955543355444C564475616733476F MSTORE SELFBALANCE PUSH16 0x6776515A4851786D6F38576F4A765163 PUSH19 0x5161505977326F65665171326750326F382B51 CODESIZE PUSH4 0x77774F67 MSIZE TIMESTAMP PUSH27 0x50456244417578734E4373546773435A4E6A793745697241797278 PUSH9 0x71775671774475346E BALANCE MSIZE CODESIZE 0x2B PUSH25 0x64775153675558414354594564304967595235425346684D57 GASLIMIT CALLDATACOPY MSIZE MSTORE8 0x4B PUSH8 0x674843513045646F 0x4A 0x4E PUSH24 0x6B44684648434A794B54714575304A726F522B635159596A 0x49 PUSH25 0x683168494C435057456F38544C784237694550454E79515369 SSTORE 0x4D PUSH26 0x4A376D51416B6D787046545345744A47306D3553492B6B73715A PUSH20 0x3053426F6A6B386E615A477579427A6D554C4341 PUSH19 0x7949586B6E6554443544506B472B5168386C73 0x4B PUSH15 0x574A4163615434552B496F55737071 MSTORE8 PUSH9 0x6E6C454F553035515A PUSH13 0x6D444A4256614F615574326F6F JUMP MLOAD MSTORE 0x4E MSIZE CODECOPY PUSH2 0x5171 ORIGIN PUSH9 0x746C4B765559656F45 PUSH27 0x52316D6A6E4E67785A4A533657746F705854476D67586150647072 0x2B PUSH9 0x30756848646C52354F PUSH13 0x39425830737670522B69583641 POP ADDRESS PUSH5 0x77774E6868 JUMPI PREVRANDAO PUSH25 0x34686E4B426D62474163595A786C33474B2B59544B595A3034 PUSH20 0x5A783151774E7A48726D4F655A44356C76565667 PUSH18 0x74697038465A484B4370564B6C5361564779 PUSH16 0x76564B6D717071726571677456383158 0x4C JUMP 0x49 0x2B PUSH17 0x586C4E39726B5A564D31506A71516E556C PUSH18 0x74567170315136314D62553265704F366948 PUSH18 0x6D656F6231512F7048355A2F596B4757634E 0x4D PUSH24 0x3039447046476773562F6A764D596743324D5A7333677349 JUMPI PUSH20 0x4E71345A31675458454A72484E325878324B7275 MSIZE 0x2F MSTORE ORIGIN CALLDATACOPY PUSH10 0x7A327171614535517A4E 0x4B 0x4D BALANCE PUSH6 0x7A55764F555A PUSH11 0x3848343568782B4A783054 PUSH8 0x6E6E4B4B65583833 CALLDATASIZE 0x4B CALLER PUSH9 0x54764B654970473659 ADDRESS SLOAD 0x4C PUSH12 0x785A567872717061586C6C69 PUSH19 0x534B7452713066727654617537616564707231 CHAINID PUSH22 0x316E376751354278306F6E584364485A342F4F425A33 PUSH15 0x55396C543361634B70785A4E505472 BALANCE PUSH19 0x693671613655626F62744564373975702B3659 PUSH15 0x723565674A354D623666656562336E 0x2B PUSH9 0x78394C2F31552F5733 CALLDATASIZE PUSH17 0x2F5648444667477377776B4274734D7A68 PUSH8 0x3878545678627A77 PUSH5 0x4C38666238 JUMP CHAINID PREVRANDAO PC PUSH4 0x4E415136 JUMP PUSH9 0x6C5747583453552E2E 0x2E GASLIMIT PUSH14 0x706C6F7920612070687973696361 PUSH13 0x2D64656C6976657279206D6574 PUSH9 0x6F6420666F72207472 PUSH2 0x6E73 PUSH2 0x6374 PUSH10 0x6F6E732E204F6E652070 PUSH6 0x72736F6E2073 PUSH10 0x676E732061207472616E PUSH20 0x616374696F6E2C20616E6420616E6F7468657220 PUSH17 0x6572736F6E20706879736963616C6C7920 PUSH4 0x61727269 PUSH6 0x732074686520 PUSH5 0x6174612074 PUSH16 0x2061206C6F636174696F6E2077697468 KECCAK256 PUSH2 0x6E20 PUSH10 0x6E7465726E657420636F PUSH15 0x6E656374696F6E20746F2062726F61 PUSH5 0x6361737420 PUSH10 0x742E2054686973206D65 PUSH21 0x686F64207475726E73207472616E73616374696F6E KECCAK256 PUSH5 0x656C697665 PUSH19 0x7920696E746F206120666F726D206F66207370 PUSH26 0x63726166742E0A505254434C340A444154412052454C49430A55 MSTORE8 TIMESTAMP KECCAK256 MSTORE8 PUSH15 0x65616B65726E65740A557365206120 PUSH17 0x6F727461626C652073746F726167652064 PUSH6 0x766963652061 PUSH20 0x20746865206461746120636172726965722E2041 KECCAK256 PUSH20 0x69676E6564207472616E73616374696F6E206669 PUSH13 0x6520697320736176656420746F KECCAK256 PUSH2 0x2055 MSTORE8 TIMESTAMP KECCAK256 PUSH20 0x7469636B2C20706879736963616C6C79206D6F76 PUSH6 0x6420746F2061 KECCAK256 PUSH5 0x6576696365 KECCAK256 PUSH21 0x68617420686173206E6574776F726B206163636573 PUSH20 0x2C20616E64207468656E2062726F616463617374 KECCAK256 PUSH21 0x6F2074686520626C6F636B636861696E2E0A505254 NUMBER 0x4C CALLDATALOAD EXP KECCAK256 MSTORE8 SLOAD COINBASE SLOAD 0x49 NUMBER KECCAK256 BASEFEE COINBASE SSTORE 0x4C KECCAK256 0x28 0x4C 0x4F 0x4E SELFBALANCE KECCAK256 0x26 KECCAK256 MSTORE8 BASEFEE 0x4F MSTORE SLOAD 0x29 EXP BASEFEE PUSH2 0x6D20 MSTORE PUSH2 0x6469 PUSH16 0x20426C6F636B636861696E200A486172 PUSH15 0x6573732074686520706F776572206F PUSH7 0x20616D61746575 PUSH19 0x20726164696F2E2049662068616D2072616469 PUSH16 0x2063616E207472616E736D697420656D PUSH2 0x696C PUSH20 0x206F766572206C6F6E672064697374616E636573 0x2C KECCAK256 PUSH10 0x742063616E207472616E PUSH20 0x6D697420626C6F636B636861696E20646174612C KECCAK256 PUSH16 0x66666572696E67206120726573696C69 PUSH6 0x6E742C206372 PUSH16 0x73732D626F72646572206D6574686F64 KECCAK256 PUSH16 0x6620636F6D6D756E69636174696F6E20 PUSH21 0x68617420697320696D6D756E6520746F2070687973 PUSH10 0x63616C20696E66726173 PUSH21 0x7275637475726520637574732E0A505254434C360A SELFBALANCE BASEFEE 0x4F MSTORE8 SLOAD KECCAK256 0x4D 0x4F PREVRANDAO GASLIMIT EXP MSTORE PUSH2 0x6469 PUSH16 0x2042726F6164636173740A4C65766572 PUSH2 0x6765 KECCAK256 PUSH19 0x6164696F2062726F6164636173747320746F20 PUSH21 0x72616E736D6974207472616E73616374696F6E732E KECCAK256 COINBASE KECCAK256 PUSH20 0x69676E65642C20636F6D70726573736564206461 PUSH21 0x61207061636B657420697320636F6E766572746564 KECCAK256 PUSH10 0x6E746F20726164696F20 PUSH24 0x6176657320616E642062726F616463617374206F76657220 PUSH21 0x6865206169722E20416E796F6E6520776974682074 PUSH9 0x652072696768742072 PUSH6 0x636569766572 KECCAK256 PUSH4 0x616E2063 PUSH2 0x7074 PUSH22 0x72652C206465636F64652C20616E640A505254434C37 EXP MSTORE8 0x4B MSIZE NUMBER BASEFEE COINBASE 0x49 0x4E KECCAK256 MSTORE GASLIMIT 0x4C COINBASE MSIZE EXP MSTORE8 PUSH2 0x7465 PUSH13 0x6C697465204C696E6B2042726F PUSH2 0x6463 PUSH2 0x7374 KECCAK256 PUSH21 0x72616E73616374696F6E73206469726563746C7920 PUSH10 0x6E746F20737061636520 PUSH22 0x73696E67206120736174656C6C69746520646973682E KECCAK256 SLOAD PUSH9 0x6520736174656C6C69 PUSH21 0x65207468656E2072656C6179732074686520646174 PUSH2 0x2062 PUSH2 0x636B KECCAK256 PUSH5 0x6F776E2074 PUSH16 0x206120726563656976696E6720737461 PUSH21 0x696F6E20636F6E6E656374656420746F2074686520 PUSH3 0x6C6F63 PUSH12 0x636861696E206E6574776F72 PUSH12 0x2C20636F6D706C6574656C79 KECCAK256 PUSH3 0x797061 PUSH20 0x73696E6720616C6C20746572726573747269616C KECCAK256 PUSH10 0x6E667261737472756374 PUSH22 0x72652E0A436F726520446F637472696E650A54686520 PUSH3 0x6C6F63 PUSH12 0x636861696E27732074727565 KECCAK256 PUSH9 0x6F6D65206973206E6F PUSH21 0x2074686520696E7465726E65743B2074686520696E PUSH21 0x65726E6574206973206D6572656C79206120636F6E PUSH23 0x656E69656E74207472616E73706F7274206C617965722E KECCAK256 JUMPI PUSH9 0x656E206F6E65207061 PUSH21 0x68776179206661696C732C206120726573696C6965 PUSH15 0x74206E6574776F726B2066696E6473 KECCAK256 PUSH2 0x6E6F PUSH21 0x6865722E204173206C6F6E6720617320796F752063 PUSH2 0x6E20 PUSH14 0x6F766520646174612C20796F7520 PUSH4 0x616E206D PUSH16 0x76652076616C75652E4461726B6E6574 KECCAK256 NUMBER PUSH16 0x6E74696E75756D0A4D4F56494E472056 COINBASE 0x4C SSTORE GASLIMIT KECCAK256 JUMPI 0x49 SLOAD BASEFEE 0x4F SSTORE SLOAD KECCAK256 SLOAD BASEFEE GASLIMIT KECCAK256 0x49 0x4E SLOAD GASLIMIT MSTORE 0x4E GASLIMIT SLOAD EXP 0x4F PUSH15 0x2D436861696E20526573696C69656E PUSH4 0x65204669 PUSH6 0x6C64204D616E PUSH22 0x616C0A496E207468652065766F6C76696E6720646967 PUSH10 0x74616C2065636F6E6F6D PUSH26 0x2C2072656C69616E6365206F6E2074686520747261646974696F PUSH15 0x616C20696E7465726E657420696E66 PUSH19 0x6173747275637475726520706F736573207269 PUSH20 0x6B732E20496E206361736573206F6620706F7765 PUSH19 0x206F7574616765732C206361626C652064616D PUSH2 0x6765 0x2C KECCAK256 PUSH16 0x722067726964206661696C757265732C KECCAK256 PUSH3 0x6C6F63 PUSH12 0x636861696E206E6574776F72 PUSH12 0x732063616E20656E64757265 KECCAK256 PUSH3 0x792066 PUSH10 0x6E64696E6720616C7465 PUSH19 0x6E61746976652064617461207472616E736D69 PUSH20 0x73696F6E20726F757465732E2054686973206775 PUSH10 0x64652070726F76696465 PUSH20 0x2070726F746F636F6C7320746F206D61696E7461 PUSH10 0x6E207472616E73616374 PUSH10 0x6F6E20666C6F772C2065 PUSH23 0x656E207768656E20636F6E76656E74696F6E616C206E65 PUSH21 0x776F726B73206661696C2E0A505254434C310A2042 0x4F 0x4E GASLIMIT KECCAK256 0x4E GASLIMIT SLOAD KECCAK256 0x28 TIMESTAMP 0x4F 0x4E GASLIMIT SLOAD 0x29 EXP 0x4D PUSH6 0x7368204E6574 PUSH24 0x6F726B696E67200A437265617465206120646563656E7472 PUSH2 0x6C69 PUSH27 0x65642C20706565722D746F2D70656572206E6574776F726B207768 PUSH6 0x726520646576 PUSH10 0x63657320636F6E6E6563 PUSH21 0x206469726563746C7920746F2065616368206F7468 PUSH6 0x722E20547261 PUSH15 0x73616374696F6E7320617265207061 PUSH20 0x7365642066726F6D2064657669636520746F2064 PUSH6 0x76696365206C PUSH10 0x6B652077686973706572 PUSH20 0x207468726F75676820612063726F77642E205468 PUSH10 0x73206D6574686F642069 PUSH20 0x20736C6F7765722062757420686967686C792065 PUSH7 0x66656374697665 KECCAK256 PUSH7 0x6F72206D6F7669 PUSH15 0x67207369676E6564207472616E7361 PUSH4 0x74696F6E PUSH20 0x20776974686F757420612063656E7472616C2069 PUSH15 0x7465726E657420636F6E6E65637469 PUSH16 0x6E2E0A505254434C320A205349474E41 0x4C KECCAK256 MSTORE8 NUMBER MSTORE 0x49 POP SLOAD EXP MSTORE8 0x4D MSTORE8 KECCAK256 SLOAD PUSH19 0x616E73616374696F6E730A5574696C697A6520 PUSH6 0x78697374696E PUSH8 0x2063656C6C756C61 PUSH19 0x20746F7765727320666F722062617369632063 PUSH16 0x6D6D756E69636174696F6E2E20547261 PUSH15 0x73616374696F6E732063616E206265 KECCAK256 PUSH20 0x656E742076696120706C61696E2D746578742053 0x4D MSTORE8 0x2C KECCAK256 PUSH4 0x6F6E7461 PUSH10 0x6E696E6720612073696D PUSH17 0x6C6520636F6D6D616E642C2077616C6C65 PUSH21 0x20616464726573732C20616E64207369676E617475 PUSH19 0x652E2054686973206D6574686F642072657175 PUSH10 0x726573206E6F20617070 PUSH20 0x206F722062726F77736572732C2072656C79696E PUSH8 0x206F6E6C79206F6E KECCAK256 PUSH2 0x2063 PUSH6 0x6C6C20736967 PUSH15 0x616C20616E642061206B6579706164 0x2E EXP POP MSTORE SLOAD NUMBER 0x4C CALLER EXP POP BASEFEE MSIZE MSTORE8 0x49 NUMBER COINBASE 0x4C KECCAK256 BASEFEE COINBASE 0x4E PREVRANDAO MSTORE8 BASEFEE COINBASE 0x4B GASLIMIT KECCAK256 0x28 0x4C GASLIMIT PREVRANDAO SELFBALANCE GASLIMIT MSTORE 0x29 EXP 0x4F PUSH7 0x666C696E652048 PUSH2 0x7264 PUSH24 0x617265205472616E7366657220A2646970667358221220EF EXTCODESIZE REVERT 0xE4 0xD4 0xC3 BYTE SDIV DUP13 PUSH17 0x91E6F2FD9CFD0B672BF3E69AFBA3CCCC2A SWAP16 EXTCODECOPY MOD 0x29 LOG1 PUSH5 0x736F6C6343 STOP ADDMOD ISZERO STOP CALLER "},"methodIdentifiers":{"ALLIANCE_LEADER_ROLE()":"17282d5c","BASE_MSG_FEE()":"8c9d2e96","DEFAULT_ADMIN_ROLE()":"a217fddf","GAME_ADMIN_ROLE()":"be22d27d","MAX_MSG_LEN()":"05ef7797","MSG_COOLDOWN_BLOCKS()":"f71e2dff","NUM_TERRITORIES()":"e7661ef7","acceptChallenge(uint40)":"0e8876bf","acceptTrade(uint40,uint40)":"a828043e","allianceOf(uint40)":"5eef0fe7","alliances(uint40)":"d55adf1c","approve(address,uint256)":"095ea7b3","balanceOf(address)":"70a08231","chain(uint256)":"5852cc0c","challenges(uint40)":"233c1cc7","claimTerritory(uint40,uint40)":"3b771d54","createAlliance(uint40[])":"ce1cc2e8","getApproved(uint256)":"081812fc","getChain(uint40,uint40)":"1a1b8ae8","getDarknetGuide()":"b00cf317","getRoleAdmin(bytes32)":"248a9ca3","grantRole(bytes32,address)":"2f2ff15d","hasRole(bytes32,address)":"91d14854","isApprovedForAll(address,address)":"e985e9c5","issueChallenge(uint40,uint40)":"1b8826a2","joinAlliance(uint40,uint40)":"ae89e98c","lastMsgBlock(uint256)":"3309b2d7","levels(uint40)":"13556b82","messages(uint256,uint256)":"8f272112","mint(address,bytes32)":"2cfd3005","msgCount(uint256)":"5cddbc7a","name()":"06fdde03","nextAllianceId()":"53768aba","nextChallengeId()":"fc67aa50","nextTokenId()":"75794a3c","owner()":"8da5cb5b","ownerOf(uint256)":"6352211e","proposeTrade(uint40,uint40)":"49a8f2cb","renounceOwnership()":"715018a6","renounceRole(bytes32,address)":"36568abe","revokeRole(bytes32,address)":"d547741f","safeTransferFrom(address,address,uint256)":"42842e0e","safeTransferFrom(address,address,uint256,bytes)":"b88d4fde","sendMessage(uint40,string)":"76d15b08","setApprovalForAll(address,bool)":"a22cb465","supportsInterface(bytes4)":"01ffc9a7","symbol()":"95d89b41","territories(uint40)":"d3213939","tokenByIndex(uint256)":"4f6ccce7","tokenOfOwnerByIndex(address,uint256)":"2f745c59","tokenURI(uint256)":"c87b56dd","totalSupply()":"18160ddd","tradeProposals(uint40)":"34030bcc","transferFrom(address,address,uint256)":"23b872dd","transferOwnership(address)":"f2fde38b"}}}}}